{
  "transactions": [
    {
      "hash": "0xe889e3e9d1af2b891e3c11bc6accedbd9e738d9172ddaaed37626cc195427237",
      "transactionType": "CALL",
      "contractName": null,
      "contractAddress": "0x063F23aAfaA0B39a1Cf42827f77da0CA04840523",
      "function": null,
      "arguments": null,
      "rpc": "https://eth-sepolia.g.alchemy.com/v2/d-LIwWZ8hzqmjIPKZ-X-jXIoy-rS9gHa",
      "transaction": {
        "type": "0x02",
        "from": "0xa771e1625dd4faa2ff0a41fa119eb9644c9a46c8",
        "to": "0x063f23aafaa0b39a1cf42827f77da0ca04840523",
        "gas": "0x28959",
        "value": "0x0",
        "data": "0x2ac54011000000000000000000000000a771e1625dd4faa2ff0a41fa119eb9644c9a46c80000000000000000000000001f8a1018d1f84749ad4ae3d3711cc98b79e8f96200000000000000000000000000000000000000000000000000000000000000680000000000000000000000000000000000000000000000000000000064458b7e00000000000000000000000000000000000000000000062417d8af6a38200000",
        "nonce": "0x1e4",
        "accessList": []
      },
      "additionalContracts": [],
      "isFixedGasLimit": false
    },
    {
      "hash": "0xa660237e0948b9f3197d40bc35b44f6c3abad05cafabe7a6afa41eacd791ba5c",
      "transactionType": "CALL",
      "contractName": "StarDaoToken",
      "contractAddress": "0x1F8a1018d1f84749aD4aE3d3711Cc98b79E8f962",
      "function": "approve(address,uint256):(bool)",
      "arguments": [
        "0x063F23aAfaA0B39a1Cf42827f77da0CA04840523",
        "100000000000000000000000000000000"
      ],
      "rpc": "https://eth-sepolia.g.alchemy.com/v2/d-LIwWZ8hzqmjIPKZ-X-jXIoy-rS9gHa",
      "transaction": {
        "type": "0x02",
        "from": "0xa771e1625dd4faa2ff0a41fa119eb9644c9a46c8",
        "to": "0x1f8a1018d1f84749ad4ae3d3711cc98b79e8f962",
        "gas": "0x9db6",
        "value": "0x0",
        "data": "0x095ea7b3000000000000000000000000063f23aafaa0b39a1cf42827f77da0ca0484052300000000000000000000000000000000000004ee2d6d415b85acef8100000000",
        "nonce": "0x1e5",
        "accessList": []
      },
      "additionalContracts": [],
      "isFixedGasLimit": false
    },
    {
      "hash": "0x89a7d9e5778040613212868e00ef092ed0cdec2d042a8d86124e3d65f5e77866",
      "transactionType": "CALL",
      "contractName": null,
      "contractAddress": "0x063F23aAfaA0B39a1Cf42827f77da0CA04840523",
      "function": null,
      "arguments": null,
      "rpc": "https://eth-sepolia.g.alchemy.com/v2/d-LIwWZ8hzqmjIPKZ-X-jXIoy-rS9gHa",
      "transaction": {
        "type": "0x02",
        "from": "0xa771e1625dd4faa2ff0a41fa119eb9644c9a46c8",
        "to": "0x063f23aafaa0b39a1cf42827f77da0ca04840523",
        "gas": "0x2335c0",
        "value": "0x0",
        "data": "0xc71b390e00000000000000000000000000000000000000000000000000000000000000680000000000000000000000001f8a1018d1f84749ad4ae3d3711cc98b79e8f9620000000000000000000000000000000000000000000000000000000000000100000000000000000000000000000000000000000000000000000000000000014000000000000000000000000000000000000000000000062417d8af6a3820000000000000000000000000000000000000000000000000062417d8af6a382000000000000000000000000000000000000000000000000000000000000000001c200000000000000000000000000000000000000000000000000000000000000008000000000000000000000000000000000000000000000000000000000000000a53544152204c4947485400000000000000000000000000000000000000000000000000000000000000000000000000000000000000000000000000000000000353524c0000000000000000000000000000000000000000000000000000000000",
        "nonce": "0x1e6",
        "accessList": []
      },
      "additionalContracts": [
        {
          "transactionType": "CREATE",
          "address": "0x806A68Ff19Ce8E1038f50a0FE695590bA52A7e32",
          "initCode": "60806040523480156200001157600080fd5b50604051620018af380380620018af833981016040819052620000349162000291565b600080546001600160a01b038084166001600160a01b031992831617909255600380549286169290911691909117905560088290556200007c8c8c8c8c8c8c8c8c8c6200008e565b505050505050505050505050620003a3565b6001600160a01b038716620000a257600080fd5b60008511620000b057600080fd5b60008311620000be57600080fd5b8315620001635760008111620001105760405162461bcd60e51b815260206004820152601260248201527150455243454e5441474520544f4f204c4f5760701b60448201526064015b60405180910390fd5b6064811115620001635760405162461bcd60e51b815260206004820152601360248201527f50455243454e5441474520544f4f204849474800000000000000000000000000604482015260640162000107565b620001768989888a8987898b8962000181565b505050505050505050565b600280546001600160a01b0319166001600160a01b038b81169190911790915560068990556009805461ff01600160b01b0319166201000092891692909202919091176001179055600d85905542620001dc84603c6200036b565b620001e8919062000350565b600c819055600a80546001600160a01b03199081166001600160a01b0388811691821790935560118690556013859055600180549092168b841617909155604080519182529189166020820152908101919091527f9f48ed7233c22694a09a88b91d83d18bc425120181b6806b665358b9d9e1bb269060600160405180910390a1505050505050505050565b80516001600160a01b03811681146200028c57600080fd5b919050565b6000806000806000806000806000806000806101808d8f031215620002b557600080fd5b620002c08d62000274565b9b5060208d01519a50620002d760408e0162000274565b9950620002e760608e0162000274565b985060808d0151975060a08d0151965060c08d015195506200030c60e08e0162000274565b94506101008d01519350620003256101208e0162000274565b92506101408d015191506200033e6101608e0162000274565b90509295989b509295989b509295989b565b600082198211156200036657620003666200038d565b500190565b60008160001904831182151516156200038857620003886200038d565b500290565b634e487b7160e01b600052601160045260246000fd5b6114fc80620003b36000396000f3fe608060405234801561001057600080fd5b50600436106101585760003560e01c80637ac561e4116100c3578063b997cd351161007c578063b997cd3514610296578063c891e8ed146102a9578063d5baf83f146102b1578063de55ab24146102b9578063efdb14fe146102e2578063fffd788d146102ea57600080fd5b80637ac561e41461021657806382e756921461024257806398b7395114610267578063a43be57b1461026f578063a8d5232714610277578063b7ba1dba1461028e57600080fd5b8063522990c511610115578063522990c5146101b657806360d938dc146101be57806362f6e47b146101d557806363acc38f146101dd5780636990256c146101f057806370e5deb91461020357600080fd5b80632432b8ac1461015d5780632488b0b414610174578063278bacd3146101895780633427b870146101915780633ad970c9146101a65780634be2eb0a146101ae575b600080fd5b600d545b6040519081526020015b60405180910390f35b61017c6102f2565b60405161016b9190611385565b600c54610161565b6101a461019f36600461136c565b610354565b005b6101a4610525565b61017c61066e565b6101a46106ce565b60105460ff165b604051901515815260200161016b565b600e54610161565b6101c56101eb36600461136c565b6106f6565b6101a46101fe36600461136c565b6107c4565b6101a461021136600461136c565b610917565b6101c5610224366004611321565b6001600160a01b031660009081526017602052604090205460ff1690565b600a546001600160a01b03165b6040516001600160a01b03909116815260200161016b565b601154610161565b6101a46109a9565b6009546201000090046001600160a01b031661024f565b6101a4610a66565b6101a46102a436600461136c565b610b3a565b600554610161565b601354610161565b6101616102c7366004611321565b6001600160a01b031660009081526019602052604090205490565b601254610161565b600b54610161565b6060600b80548060200260200160405190810160405280929190818152602001828054801561034a57602002820191906000526020600020905b81546001600160a01b0316815260019091019060200180831161032c575b5050505050905090565b600954610100900460ff16156103855760405162461bcd60e51b815260040161037c906113d2565b60405180910390fd5b600c544211156103a857604051632fcad0fb60e11b815260040160405180910390fd5b806103c657604051631f4ff1cf60e31b815260040160405180910390fd5b6003546103dd906001600160a01b03168233610f38565b600b805460018101825560009182527f0175b7a638427703f0dbe7bb9bbf987a2551717b34e79f33b5b1008d1fa01db90180546001600160a01b03191633179055600e8054839290610430908490611440565b90915550503360009081526019602052604081208054839290610454908490611440565b90915550503360009081526015602052604090205460ff166104e857600154604051631951d2b560e11b81523360048201526001600160a01b03909116906332a3a56a90602401600060405180830381600087803b1580156104b557600080fd5b505af11580156104c9573d6000803e3d6000fd5b5050336000908152601560205260409020805460ff1916600117905550505b60408051338152602081018390527fff843de903461a83d80c77649ed36998e537f6fd6969a06f0cef493d208fca7a91015b60405180910390a150565b600954610100900460ff161561054d5760405162461bcd60e51b815260040161037c906113d2565b3360009081526017602052604090205460ff1615156001141561058357604051630968d3f560e21b815260040160405180910390fd5b336000908152601960205260409020546105b05760405163eb7d3ba960e01b815260040160405180910390fd5b600c544210156105d357604051635c81c5cd60e01b815260040160405180910390fd5b60006105dd611006565b336000908152601760205260408120805460ff19166001179055600f8054929350839290919061060e908490611440565b9091555050600954610630906201000090046001600160a01b03168233611121565b61063861115a565b60408051338152602081018390527f55b23e34fc96dccffe7f8c501b5273c8d3e15e8cb2d58282ff94e192bd1c1a2b910161051a565b6060601480548060200260200160405190810160405280929190818152602001828054801561034a576020028201919060005260206000209081546001600160a01b0316815260019091019060200180831161032c575050505050905090565b6001546001600160a01b031633146106e557600080fd5b6009805461ff001916610100179055565b600a546000906001600160a01b031633146107235760405162461bcd60e51b815260040161037c90611409565b600954610100900460ff161561074b5760405162461bcd60e51b815260040161037c906113d2565b600c5442111561076e57604051630fd6d2b760e41b815260040160405180910390fd5b61078561077c83603c61147a565b600c5490611269565b600c55506040518181526001907f2c3957d0010f6725c32be5dd614ebf1d0faa8bc5410ec01585a6c1f63b2c65de9060200160405180910390a1919050565b600a546001600160a01b031633146107ee5760405162461bcd60e51b815260040161037c90611409565b600954610100900460ff16156108165760405162461bcd60e51b815260040161037c906113d2565b8061083457604051631f4ff1cf60e31b815260040160405180910390fd5b600c5442101561085757604051635c81c5cd60e01b815260040160405180910390fd5b61085f61115a565b600454601254600e546108729190611440565b61087c9190611499565b81111561089c57604051635097f10f60e01b815260040160405180910390fd5b600454156108ca576003546004546001546108c4926001600160a01b03908116929116611121565b60006004555b6003546108e1906001600160a01b03168233611121565b60408051338152602081018390527fca46b9b7c324188c4b8a2b29b9399ac5b3ce27e9e21ad4e53733b7c354cb9ea0910161051a565b600954610100900460ff166109785760405162461bcd60e51b815260206004820152602160248201527f4f4e4c5920415641494c41424c45204946205041442049532043414e43454c456044820152601160fa1b606482015260840161037c565b6001546001600160a01b0316331461098f57600080fd5b6003546109a6906001600160a01b03168233611121565b50565b600a546001600160a01b031633146109d35760405162461bcd60e51b815260040161037c90611409565b60105460ff161515600114156109fc57604051630f48b18160e21b815260040160405180910390fd5b6010805460ff1916905560015460408051630e580b2b60e41b815290516001600160a01b039092169163e580b2b09160048082019260009290919082900301818387803b158015610a4c57600080fd5b505af1158015610a60573d6000803e3d6000fd5b50505050565b600a546001600160a01b03163314610a905760405162461bcd60e51b815260040161037c90611409565b600954610100900460ff1615610ab85760405162461bcd60e51b815260040161037c906113d2565b60105460ff16610adb57604051634e3a0cc160e11b815260040160405180910390fd5b600954601154610afb916201000090046001600160a01b03169033611121565b6011546040805133815260208101929092527f0b26a7deabcc23ddb1e7ac0e09f2750788424b50871be8225cd275127f8c610e910160405180910390a1565b600954610100900460ff1615610b625760405162461bcd60e51b815260040161037c906113d2565b600c544211610bb35760405162461bcd60e51b815260206004820152601b60248201527f4c41554e4348504144205354494c4c20494e2050524f47524553530000000000604482015260640161037c565b610bbb61115a565b60095460ff16151560011415610be35760405162eb1cc760e31b815260040160405180910390fd5b601154610c0357604051637a8dd83f60e11b815260040160405180910390fd5b60105460ff16151560011415610c2c57604051630f48b18160e21b815260040160405180910390fd5b6000610c378261127c565b9050601154811115610c5c576040516373c6a6a760e01b815260040160405180910390fd5b6003546040516323b872dd60e01b8152336004820152306024820152604481018490526000916001600160a01b0316906323b872dd90606401602060405180830381600087803b158015610caf57600080fd5b505af1158015610cc3573d6000803e3d6000fd5b505050506040513d601f19601f82011682018060405250810190610ce7919061134a565b905080610d315760405162461bcd60e51b81526020600482015260186024820152774552524f52205452414e53464552494e4720544f4b454e5360401b604482015260640161037c565b601154610d3e90836112ce565b601155601254610d4e9084611269565b6012556014805460018101825560009182527fce6d7b5282bd9a3661ae061feed1dbda4e52ab073b1f9285be6e155d9c38d4ec0180546001600160a01b0319163390811790915560095460405163a9059cbb60e01b81526004810192909252602482018590526201000090046001600160a01b03169063a9059cbb90604401602060405180830381600087803b158015610de757600080fd5b505af1158015610dfb573d6000803e3d6000fd5b505050506040513d601f19601f82011682018060405250810190610e1f919061134a565b3360009081526016602052604090205490915060ff16610eb15760015460405163c3e5e8b360e01b81523360048201526001600160a01b039091169063c3e5e8b390602401600060405180830381600087803b158015610e7e57600080fd5b505af1158015610e92573d6000803e3d6000fd5b5050336000908152601660205260409020805460ff1916600117905550505b80610ef95760405162461bcd60e51b81526020600482015260186024820152774552524f52205452414e53464552494e4720544f4b454e5360401b604482015260640161037c565b60408051338152602081018590527fee8a2330a1ede71b41e00a75a09bce5a2708f8be50397e9a146191cb2158eb48910160405180910390a150505050565b6040516323b872dd60e01b81526001600160a01b03828116600483015230602483015260448201849052600091908516906323b872dd906064015b602060405180830381600087803b158015610f8d57600080fd5b505af1158015610fa1573d6000803e3d6000fd5b505050506040513d601f19601f82011682018060405250810190610fc5919061134a565b905080610a605760405162461bcd60e51b815260206004820152600f60248201526e1514905394d1915488119052531151608a1b604482015260640161037c565b33600090815260196020526040812054600854811080159061103857503360009081526018602052604090205460ff16155b156110e85733600081815260186020526040808220805460ff191660011790559054905163e9c2e14b60e01b815260048101929092526001600160a01b03169063e9c2e14b90602401600060405180830381600087803b15801561109b57600080fd5b505af11580156110af573d6000803e3d6000fd5b50506040513381527f3dab64d173b82cdea212bccb7c499f8f5a25d0cc1a55c9b50875f41b9f1408439250602001905060405180910390a15b611109600e54611103600d54846112da90919063ffffffff16565b906112e6565b336000908152601a6020526040902081905592915050565b60405163a9059cbb60e01b81526001600160a01b038281166004830152602482018490526000919085169063a9059cbb90604401610f73565b60095460ff1615156001141561121e576009805460ff191690556001546040805163e4c94fa160e01b815290516001600160a01b039092169163e4c94fa19160048082019260009290919082900301818387803b1580156111ba57600080fd5b505af11580156111ce573d6000803e3d6000fd5b505060095460408051620100009092046001600160a01b031682524260208301527f4f347311bfc24c315aeb5e78922d63e941dd3c0f698bd6ffe105f86dfcd8871c935001905060405180910390a15b60075460ff166112585760006064600e5460065461123c919061147a565b6112469190611458565b600455506007805460ff191660011790555b600554611267576112676112f2565b565b60006112758284611440565b9392505050565b6000806064601354670de0b6b3a7640000611297919061147a565b6112a19190611458565b6112b390670de0b6b3a7640000611440565b905080600554846112c4919061147a565b6112759190611458565b60006112758284611499565b6000611275828461147a565b60006112758284611458565b600e54600d54670de0b6b3a76400009160009161131090849061147a565b61131a9190611458565b6005555050565b60006020828403121561133357600080fd5b81356001600160a01b038116811461127557600080fd5b60006020828403121561135c57600080fd5b8151801515811461127557600080fd5b60006020828403121561137e57600080fd5b5035919050565b6020808252825182820181905260009190848201906040850190845b818110156113c65783516001600160a01b0316835292840192918401916001016113a1565b50909695505050505050565b6020808252601b908201527f4c41554e43485041442043414e43454c45442042592041444d494e0000000000604082015260600190565b60208082526017908201527f4e4f54204c61756e6368506164204d6f64657261746f72000000000000000000604082015260600190565b60008219821115611453576114536114b0565b500190565b60008261147557634e487b7160e01b600052601260045260246000fd5b500490565b6000816000190483118215151615611494576114946114b0565b500290565b6000828210156114ab576114ab6114b0565b500390565b634e487b7160e01b600052601160045260246000fdfea26469706673582212202c97e28403aaeeb3e90a8269f200473424fbfd3280e3a4ec7dfa2ee443db25c964736f6c63430008070033000000000000000000000000a771e1625dd4faa2ff0a41fa119eb9644c9a46c8000000000000000000000000000000000000000000000000000000000000000a0000000000000000000000001f8a1018d1f84749ad4ae3d3711cc98b79e8f962000000000000000000000000063f23aafaa0b39a1cf42827f77da0ca0484052300000000000000000000000000000000000000000000062417d8af6a3820000000000000000000000000000000000000000000000000062417d8af6a382000000000000000000000000000000000000000000000000000000000000000001c20000000000000000000000000a771e1625dd4faa2ff0a41fa119eb9644c9a46c800000000000000000000000000000000000000000000000000000000000000080000000000000000000000008760dd5ccde41e812e62d6df4c3e06f8233931df00000000000000000000000000000000000000000000000000000000000007d0000000000000000000000000c85da1ee66ada8ddac4742486a5cdcd36428ecc7"
        }
      ],
      "isFixedGasLimit": false
    }
  ],
  "receipts": [
    {
      "transactionHash": "0xe889e3e9d1af2b891e3c11bc6accedbd9e738d9172ddaaed37626cc195427237",
      "transactionIndex": "0x2",
      "blockHash": "0x2907dc82e90eea99b7701d2c0f5df7ec90aae233155636be907ea9a184000c23",
      "blockNumber": "0x331253",
      "from": "0xA771E1625DD4FAa2Ff0a41FA119Eb9644c9A46C8",
      "to": "0x063F23aAfaA0B39a1Cf42827f77da0CA04840523",
      "cumulativeGasUsed": "0x34bce",
      "gasUsed": "0x1d61f",
      "contractAddress": null,
      "logs": [
        {
          "address": "0x063F23aAfaA0B39a1Cf42827f77da0CA04840523",
          "topics": [
            "0xd7ade55009cd5a05f2ecf3ec274889a8e3b3a8ffbad4742dd55e0671de2d9b35"
          ],
          "data": "0x0000000000000000000000001f8a1018d1f84749ad4ae3d3711cc98b79e8f9620000000000000000000000000000000000000000000000000000000000000068",
          "blockHash": "0x2907dc82e90eea99b7701d2c0f5df7ec90aae233155636be907ea9a184000c23",
          "blockNumber": "0x331253",
          "transactionHash": "0xe889e3e9d1af2b891e3c11bc6accedbd9e738d9172ddaaed37626cc195427237",
          "transactionIndex": "0x2",
          "logIndex": "0x3",
          "removed": false
        }
      ],
      "status": "0x1",
      "logsBloom": "0x00000000000000000000000000000000000000000000000000000000000000000000000000000000000000800000000000000000000000000000000000000000000000000400000000000000000000000000000000000000010000000000000000000000000000000000000000000000000000000000000000000000000000000000000000000000000010000000000000000000000000000000000000000000000000000000000000000000000000000000000000000000000000000000100000000000000000000000000000000000000000000000000000000000000000000000000000000000000000000000000000000000000200000000000000000000",
      "type": "0x2",
      "effectiveGasPrice": "0xb2d05e07"
    },
    {
      "transactionHash": "0xa660237e0948b9f3197d40bc35b44f6c3abad05cafabe7a6afa41eacd791ba5c",
      "transactionIndex": "0x3",
      "blockHash": "0x2907dc82e90eea99b7701d2c0f5df7ec90aae233155636be907ea9a184000c23",
      "blockNumber": "0x331253",
      "from": "0xA771E1625DD4FAa2Ff0a41FA119Eb9644c9A46C8",
      "to": "0x1F8a1018d1f84749aD4aE3d3711Cc98b79E8f962",
      "cumulativeGasUsed": "0x3bdfd",
      "gasUsed": "0x722f",
      "contractAddress": null,
      "logs": [
        {
          "address": "0x1F8a1018d1f84749aD4aE3d3711Cc98b79E8f962",
          "topics": [
            "0x8c5be1e5ebec7d5bd14f71427d1e84f3dd0314c0f7b2291e5b200ac8c7c3b925",
            "0x000000000000000000000000a771e1625dd4faa2ff0a41fa119eb9644c9a46c8",
            "0x000000000000000000000000063f23aafaa0b39a1cf42827f77da0ca04840523"
          ],
          "data": "0x00000000000000000000000000000000000004ee2d6d415b85acef8100000000",
          "blockHash": "0x2907dc82e90eea99b7701d2c0f5df7ec90aae233155636be907ea9a184000c23",
          "blockNumber": "0x331253",
          "transactionHash": "0xa660237e0948b9f3197d40bc35b44f6c3abad05cafabe7a6afa41eacd791ba5c",
          "transactionIndex": "0x3",
          "logIndex": "0x4",
          "removed": false
        }
      ],
      "status": "0x1",
      "logsBloom": "0x00000000000000000000000000000000000100000000000000400000000000000000000002000000000000000000000800000000000000000000000000200000000000000000000000000000000000000000000000000000000008000000000000000000040000000000000000000000000000000000000000000000000000000000000000000000000000000000000000000000000000000000000000000000020000000000000000000000000002000000000000000000000000000000000000000000000000000000000000000000000000000000000000800000000000000010000000000000000000000080000000000000000000000000000000000000",
      "type": "0x2",
      "effectiveGasPrice": "0xb2d05e07"
    },
    {
      "transactionHash": "0x89a7d9e5778040613212868e00ef092ed0cdec2d042a8d86124e3d65f5e77866",
      "transactionIndex": "0x4",
      "blockHash": "0x2907dc82e90eea99b7701d2c0f5df7ec90aae233155636be907ea9a184000c23",
      "blockNumber": "0x331253",
      "from": "0xA771E1625DD4FAa2Ff0a41FA119Eb9644c9A46C8",
      "to": "0x063F23aAfaA0B39a1Cf42827f77da0CA04840523",
      "cumulativeGasUsed": "0x1d3d6d",
      "gasUsed": "0x197f70",
      "contractAddress": null,
      "logs": [
        {
          "address": "0x806A68Ff19Ce8E1038f50a0FE695590bA52A7e32",
          "topics": [
            "0x9f48ed7233c22694a09a88b91d83d18bc425120181b6806b665358b9d9e1bb26"
          ],
          "data": "0x000000000000000000000000a771e1625dd4faa2ff0a41fa119eb9644c9a46c80000000000000000000000001f8a1018d1f84749ad4ae3d3711cc98b79e8f96200000000000000000000000000000000000000000000000000000000644c232c",
          "blockHash": "0x2907dc82e90eea99b7701d2c0f5df7ec90aae233155636be907ea9a184000c23",
          "blockNumber": "0x331253",
          "transactionHash": "0x89a7d9e5778040613212868e00ef092ed0cdec2d042a8d86124e3d65f5e77866",
          "transactionIndex": "0x4",
          "logIndex": "0x5",
          "removed": false
        },
        {
          "address": "0x1F8a1018d1f84749aD4aE3d3711Cc98b79E8f962",
          "topics": [
            "0x8c5be1e5ebec7d5bd14f71427d1e84f3dd0314c0f7b2291e5b200ac8c7c3b925",
            "0x000000000000000000000000a771e1625dd4faa2ff0a41fa119eb9644c9a46c8",
            "0x000000000000000000000000063f23aafaa0b39a1cf42827f77da0ca04840523"
          ],
          "data": "0x00000000000000000000000000000000000004ee2d6d351355fb90ac8fc00000",
          "blockHash": "0x2907dc82e90eea99b7701d2c0f5df7ec90aae233155636be907ea9a184000c23",
          "blockNumber": "0x331253",
          "transactionHash": "0x89a7d9e5778040613212868e00ef092ed0cdec2d042a8d86124e3d65f5e77866",
          "transactionIndex": "0x4",
          "logIndex": "0x6",
          "removed": false
        },
        {
          "address": "0x1F8a1018d1f84749aD4aE3d3711Cc98b79E8f962",
          "topics": [
            "0xddf252ad1be2c89b69c2b068fc378daa952ba7f163c4a11628f55a4df523b3ef",
            "0x000000000000000000000000a771e1625dd4faa2ff0a41fa119eb9644c9a46c8",
            "0x000000000000000000000000806a68ff19ce8e1038f50a0fe695590ba52a7e32"
          ],
          "data": "0x000000000000000000000000000000000000000000000c482fb15ed470400000",
          "blockHash": "0x2907dc82e90eea99b7701d2c0f5df7ec90aae233155636be907ea9a184000c23",
          "blockNumber": "0x331253",
          "transactionHash": "0x89a7d9e5778040613212868e00ef092ed0cdec2d042a8d86124e3d65f5e77866",
          "transactionIndex": "0x4",
          "logIndex": "0x7",
          "removed": false
        },
        {
          "address": "0x063F23aAfaA0B39a1Cf42827f77da0CA04840523",
          "topics": [
            "0x9f48ed7233c22694a09a88b91d83d18bc425120181b6806b665358b9d9e1bb26"
          ],
          "data": "0x000000000000000000000000806a68ff19ce8e1038f50a0fe695590ba52a7e320000000000000000000000001f8a1018d1f84749ad4ae3d3711cc98b79e8f9620000000000000000000000000000000000000000000000000000000000001c20",
          "blockHash": "0x2907dc82e90eea99b7701d2c0f5df7ec90aae233155636be907ea9a184000c23",
          "blockNumber": "0x331253",
          "transactionHash": "0x89a7d9e5778040613212868e00ef092ed0cdec2d042a8d86124e3d65f5e77866",
          "transactionIndex": "0x4",
          "logIndex": "0x8",
          "removed": false
        }
      ],
      "status": "0x1",
      "logsBloom": "0x00000000000000000008000000000000000100000000000000480000000000000000000002000000000000800000000800000000000004000000000000200000000000000410000000000008000000000000000000000000000008020000000000000000040000000000000000000000000000000000000000000010000000000000100000000000000000000000000000000000000000000000000004000000020000000000000000000000000202000000000000000000000000000000100000000002000000000000000000000000000000000000000000800000000000000010000000000000000000000080000000000000000000000800000000000000",
      "type": "0x2",
      "effectiveGasPrice": "0xb2d05e07"
    }
  ],
  "libraries": [],
  "pending": [],
  "path": "/home/idogwu_chinonso/Desktop/SmartContracts/BunzzFinalProject/smartContracts/broadcast/deploys.s.sol/11155111/run-latest.json",
  "returns": {},
  "timestamp": 1682279346,
  "chain": 11155111,
  "multi": false,
  "commit": "02ab852"
}