{
  "transactions": [
    {
      "hash": "0xb52dc3530dbd943fd1cb79915e08b35348e07ac21aa82089e05dd8e7798fce7b",
      "transactionType": "CALL",
      "contractName": "StarDaoToken",
      "contractAddress": "0x1F8a1018d1f84749aD4aE3d3711Cc98b79E8f962",
      "function": "mint(address,uint256)",
      "arguments": [
        "0xA771E1625DD4FAa2Ff0a41FA119Eb9644c9A46C8",
        "300000000000000000000000"
      ],
      "rpc": "https://eth-sepolia.g.alchemy.com/v2/d-LIwWZ8hzqmjIPKZ-X-jXIoy-rS9gHa",
      "transaction": {
        "type": "0x02",
        "from": "0xa771e1625dd4faa2ff0a41fa119eb9644c9a46c8",
        "to": "0x1f8a1018d1f84749ad4ae3d3711cc98b79e8f962",
        "gas": "0x12031",
        "value": "0x0",
        "data": "0x40c10f19000000000000000000000000a771e1625dd4faa2ff0a41fa119eb9644c9a46c8000000000000000000000000000000000000000000003f870857a3e0e3800000",
        "nonce": "0x1c0",
        "accessList": []
      },
      "additionalContracts": [],
      "isFixedGasLimit": false
    },
    {
      "hash": "0xa23a3042bd70c420f9e025b6773261c3f20f477932a8284d6395e0d63f406015",
      "transactionType": "CALL",
      "contractName": "StarDaoToken",
      "contractAddress": "0x4fe39e64CdE340AfF497D7da0e16F6E60848cDbd",
      "function": "mint(address,uint256)",
      "arguments": [
        "0xA771E1625DD4FAa2Ff0a41FA119Eb9644c9A46C8",
        "300000000000000000000000"
      ],
      "rpc": "https://eth-sepolia.g.alchemy.com/v2/d-LIwWZ8hzqmjIPKZ-X-jXIoy-rS9gHa",
      "transaction": {
        "type": "0x02",
        "from": "0xa771e1625dd4faa2ff0a41fa119eb9644c9a46c8",
        "to": "0x4fe39e64cde340aff497d7da0e16f6e60848cdbd",
        "gas": "0xcf74",
        "value": "0x0",
        "data": "0x40c10f19000000000000000000000000a771e1625dd4faa2ff0a41fa119eb9644c9a46c8000000000000000000000000000000000000000000003f870857a3e0e3800000",
        "nonce": "0x1c1",
        "accessList": []
      },
      "additionalContracts": [],
      "isFixedGasLimit": false
    },
    {
      "hash": "0x0deab917112f75b27eb030dca6c541eefdccb2a0cc661c1ced186b8977e04f03",
      "transactionType": "CALL",
      "contractName": "StarDaoToken",
      "contractAddress": "0xb556a7FF66c0CEF30a52d3cC579e91D4574a6037",
      "function": "mint(address,uint256)",
      "arguments": [
        "0xA771E1625DD4FAa2Ff0a41FA119Eb9644c9A46C8",
        "300000000000000000000000"
      ],
      "rpc": "https://eth-sepolia.g.alchemy.com/v2/d-LIwWZ8hzqmjIPKZ-X-jXIoy-rS9gHa",
      "transaction": {
        "type": "0x02",
        "from": "0xa771e1625dd4faa2ff0a41fa119eb9644c9a46c8",
        "to": "0xb556a7ff66c0cef30a52d3cc579e91d4574a6037",
        "gas": "0xcf74",
        "value": "0x0",
        "data": "0x40c10f19000000000000000000000000a771e1625dd4faa2ff0a41fa119eb9644c9a46c8000000000000000000000000000000000000000000003f870857a3e0e3800000",
        "nonce": "0x1c2",
        "accessList": []
      },
      "additionalContracts": [],
      "isFixedGasLimit": false
    },
    {
      "hash": "0x96d44d0d796a6089593b1bc07a63f668c52671d7f07118c93e33c282334e7ec3",
      "transactionType": "CALL",
      "contractName": "StarDaoToken",
      "contractAddress": "0x358aE5C64bBF71851Cf817fE0e4b975594DbA78e",
      "function": "mint(address,uint256)",
      "arguments": [
        "0xA771E1625DD4FAa2Ff0a41FA119Eb9644c9A46C8",
        "300000000000000000000000"
      ],
      "rpc": "https://eth-sepolia.g.alchemy.com/v2/d-LIwWZ8hzqmjIPKZ-X-jXIoy-rS9gHa",
      "transaction": {
        "type": "0x02",
        "from": "0xa771e1625dd4faa2ff0a41fa119eb9644c9a46c8",
        "to": "0x358ae5c64bbf71851cf817fe0e4b975594dba78e",
        "gas": "0xcf74",
        "value": "0x0",
        "data": "0x40c10f19000000000000000000000000a771e1625dd4faa2ff0a41fa119eb9644c9a46c8000000000000000000000000000000000000000000003f870857a3e0e3800000",
        "nonce": "0x1c3",
        "accessList": []
      },
      "additionalContracts": [],
      "isFixedGasLimit": false
    },
    {
      "hash": "0x7d114b0b2c34a4ed123c94619b2105a42901019d6c661cad4cc7d783ad7a4ea9",
      "transactionType": "CALL",
      "contractName": "StarDaoToken",
      "contractAddress": "0x77A61844D548E8bbD221AEff646fde357006d525",
      "function": "mint(address,uint256)",
      "arguments": [
        "0xA771E1625DD4FAa2Ff0a41FA119Eb9644c9A46C8",
        "300000000000000000000000"
      ],
      "rpc": "https://eth-sepolia.g.alchemy.com/v2/d-LIwWZ8hzqmjIPKZ-X-jXIoy-rS9gHa",
      "transaction": {
        "type": "0x02",
        "from": "0xa771e1625dd4faa2ff0a41fa119eb9644c9a46c8",
        "to": "0x77a61844d548e8bbd221aeff646fde357006d525",
        "gas": "0xcf74",
        "value": "0x0",
        "data": "0x40c10f19000000000000000000000000a771e1625dd4faa2ff0a41fa119eb9644c9a46c8000000000000000000000000000000000000000000003f870857a3e0e3800000",
        "nonce": "0x1c4",
        "accessList": []
      },
      "additionalContracts": [],
      "isFixedGasLimit": false
    },
    {
      "hash": "0xf3b4972214c5bbdcc7f0fb294cd5d79ccd293227d679a8aa044a449e31be8b8b",
      "transactionType": "CALL",
      "contractName": "StarDaoToken",
      "contractAddress": "0xC8610Db0D58A4F71a1F2f17cf6AFcb3f659F3d4d",
      "function": "mint(address,uint256)",
      "arguments": [
        "0xA771E1625DD4FAa2Ff0a41FA119Eb9644c9A46C8",
        "300000000000000000000000"
      ],
      "rpc": "https://eth-sepolia.g.alchemy.com/v2/d-LIwWZ8hzqmjIPKZ-X-jXIoy-rS9gHa",
      "transaction": {
        "type": "0x02",
        "from": "0xa771e1625dd4faa2ff0a41fa119eb9644c9a46c8",
        "to": "0xc8610db0d58a4f71a1f2f17cf6afcb3f659f3d4d",
        "gas": "0xcf74",
        "value": "0x0",
        "data": "0x40c10f19000000000000000000000000a771e1625dd4faa2ff0a41fa119eb9644c9a46c8000000000000000000000000000000000000000000003f870857a3e0e3800000",
        "nonce": "0x1c5",
        "accessList": []
      },
      "additionalContracts": [],
      "isFixedGasLimit": false
    },
    {
      "hash": "0xfc5e868e40a3dbf764424a8947b74ead94a477f6fc347c578bb3f0a3ebca6f21",
      "transactionType": "CALL",
      "contractName": "StarDaoToken",
      "contractAddress": "0x6E7A13CfD3D35319C91EED0F69822B54055f7D3C",
      "function": "mint(address,uint256)",
      "arguments": [
        "0xA771E1625DD4FAa2Ff0a41FA119Eb9644c9A46C8",
        "300000000000000000000000"
      ],
      "rpc": "https://eth-sepolia.g.alchemy.com/v2/d-LIwWZ8hzqmjIPKZ-X-jXIoy-rS9gHa",
      "transaction": {
        "type": "0x02",
        "from": "0xa771e1625dd4faa2ff0a41fa119eb9644c9a46c8",
        "to": "0x6e7a13cfd3d35319c91eed0f69822b54055f7d3c",
        "gas": "0xcf74",
        "value": "0x0",
        "data": "0x40c10f19000000000000000000000000a771e1625dd4faa2ff0a41fa119eb9644c9a46c8000000000000000000000000000000000000000000003f870857a3e0e3800000",
        "nonce": "0x1c6",
        "accessList": []
      },
      "additionalContracts": [],
      "isFixedGasLimit": false
    }
  ],
  "receipts": [],
  "libraries": [],
  "pending": [
    "0xb52dc3530dbd943fd1cb79915e08b35348e07ac21aa82089e05dd8e7798fce7b",
    "0xa23a3042bd70c420f9e025b6773261c3f20f477932a8284d6395e0d63f406015",
    "0x0deab917112f75b27eb030dca6c541eefdccb2a0cc661c1ced186b8977e04f03",
    "0x96d44d0d796a6089593b1bc07a63f668c52671d7f07118c93e33c282334e7ec3",
    "0x7d114b0b2c34a4ed123c94619b2105a42901019d6c661cad4cc7d783ad7a4ea9",
    "0xf3b4972214c5bbdcc7f0fb294cd5d79ccd293227d679a8aa044a449e31be8b8b",
    "0xfc5e868e40a3dbf764424a8947b74ead94a477f6fc347c578bb3f0a3ebca6f21"
  ],
  "path": "/home/idogwu_chinonso/Desktop/SmartContracts/BunzzFinalProject/smartContracts/broadcast/deploys.s.sol/11155111/run-latest.json",
  "returns": {},
  "timestamp": 1682271935,
  "chain": 11155111,
  "multi": false,
  "commit": "02ab852"
}