{
  "transactions": [
    {
      "hash": "0x2cf8d70886314dc64170ee82cc70e90240ac3ebbab88dd545a7a7e53e0cec25d",
      "transactionType": "CALL",
      "contractName": "IgniteLaunchPadFactory",
      "contractAddress": "0xECE2662b7D6726408C7603e7F1F36bDDE3e041d2",
      "function": "registerLaunchPads(address,address,uint256,uint256,uint256)",
      "arguments": [
        "0xA771E1625DD4FAa2Ff0a41FA119Eb9644c9A46C8",
        "0xf078f89B3cAD8bAe62DA4C15cb2fD1e6A3eB032F",
        "101",
        "1682099954",
        "100000000000000000000000"
      ],
      "rpc": "https://eth-sepolia.g.alchemy.com/v2/d-LIwWZ8hzqmjIPKZ-X-jXIoy-rS9gHa",
      "transaction": {
        "type": "0x02",
        "from": "0xa771e1625dd4faa2ff0a41fa119eb9644c9a46c8",
        "to": "0xece2662b7d6726408c7603e7f1f36bdde3e041d2",
        "gas": "0x2e5a1",
        "value": "0x0",
        "data": "0x2ac54011000000000000000000000000a771e1625dd4faa2ff0a41fa119eb9644c9a46c8000000000000000000000000f078f89b3cad8bae62da4c15cb2fd1e6a3eb032f0000000000000000000000000000000000000000000000000000000000000065000000000000000000000000000000000000000000000000000000006442cef200000000000000000000000000000000000000000000152d02c7e14af6800000",
        "nonce": "0x185",
        "accessList": []
      },
      "additionalContracts": [],
      "isFixedGasLimit": false
    },
    {
      "hash": "0x9a4ea63c3f53a69f2269fbe13864c194c1d20e58f5d3eca392a1fb2c92f1e849",
      "transactionType": "CALL",
      "contractName": "StarDaoToken",
      "contractAddress": "0xf078f89B3cAD8bAe62DA4C15cb2fD1e6A3eB032F",
      "function": "approve(address,uint256):(bool)",
      "arguments": [
        "0xECE2662b7D6726408C7603e7F1F36bDDE3e041d2",
        "100000000000000000000000000000000"
      ],
      "rpc": "https://eth-sepolia.g.alchemy.com/v2/d-LIwWZ8hzqmjIPKZ-X-jXIoy-rS9gHa",
      "transaction": {
        "type": "0x02",
        "from": "0xa771e1625dd4faa2ff0a41fa119eb9644c9a46c8",
        "to": "0xf078f89b3cad8bae62da4c15cb2fd1e6a3eb032f",
        "gas": "0x108ae",
        "value": "0x0",
        "data": "0x095ea7b3000000000000000000000000ece2662b7d6726408c7603e7f1f36bdde3e041d200000000000000000000000000000000000004ee2d6d415b85acef8100000000",
        "nonce": "0x186",
        "accessList": []
      },
      "additionalContracts": [],
      "isFixedGasLimit": false
    },
    {
      "hash": "0xf9e2e7dacfb49f163cfb16e652828c8e9f5a54f204b9d4c455cd9abb98852e28",
      "transactionType": "CALL",
      "contractName": "IgniteLaunchPadFactory",
      "contractAddress": "0xECE2662b7D6726408C7603e7F1F36bDDE3e041d2",
      "function": "createLaunchPad(uint256,address,string,string,uint256,uint256,uint256,uint256)",
      "arguments": [
        "101",
        "0xf078f89B3cAD8bAe62DA4C15cb2fD1e6A3eB032F",
        "DYNAMIC TRUST",
        "DNT",
        "100000000000000000000000",
        "200000000000000000000000",
        "120",
        "10"
      ],
      "rpc": "https://eth-sepolia.g.alchemy.com/v2/d-LIwWZ8hzqmjIPKZ-X-jXIoy-rS9gHa",
      "transaction": {
        "type": "0x02",
        "from": "0xa771e1625dd4faa2ff0a41fa119eb9644c9a46c8",
        "to": "0xece2662b7d6726408c7603e7f1f36bdde3e041d2",
        "gas": "0x2474a8",
        "value": "0x0",
        "data": "0xc71b390e0000000000000000000000000000000000000000000000000000000000000065000000000000000000000000f078f89b3cad8bae62da4c15cb2fd1e6a3eb032f0000000000000000000000000000000000000000000000000000000000000100000000000000000000000000000000000000000000000000000000000000014000000000000000000000000000000000000000000000152d02c7e14af6800000000000000000000000000000000000000000000000002a5a058fc295ed0000000000000000000000000000000000000000000000000000000000000000000078000000000000000000000000000000000000000000000000000000000000000a000000000000000000000000000000000000000000000000000000000000000d44594e414d4943205452555354000000000000000000000000000000000000000000000000000000000000000000000000000000000000000000000000000003444e540000000000000000000000000000000000000000000000000000000000",
        "nonce": "0x187",
        "accessList": []
      },
      "additionalContracts": [
        {
          "transactionType": "CREATE",
          "address": "0xFe7AbD1799256bB6d2Db0E752BD952F30F9332d1",
          "initCode": "60806040523480156200001157600080fd5b506040516200189438038062001894833981016040819052620000349162000291565b600080546001600160a01b038084166001600160a01b031992831617909255600380549286169290911691909117905560088290556200007c8c8c8c8c8c8c8c8c8c6200008e565b5050505050505050505050506200039c565b6001600160a01b038716620000a257600080fd5b60008511620000b057600080fd5b60008311620000be57600080fd5b8315620001635760008111620001105760405162461bcd60e51b815260206004820152601260248201527150455243454e5441474520544f4f204c4f5760701b60448201526064015b60405180910390fd5b6064811115620001635760405162461bcd60e51b815260206004820152601360248201527f50455243454e5441474520544f4f204849474800000000000000000000000000604482015260640162000107565b620001768989888a8987898b8962000181565b505050505050505050565b600280546001600160a01b0319166001600160a01b038b81169190911790915560068990556009805461ff01600160b01b0319166201000092891692909202919091176001179055600d85905542620001dc84603c62000366565b620001e8919062000386565b600c819055600a80546001600160a01b03199081166001600160a01b0388811691821790935560118690556013859055600180549092168b841617909155604080519182529189166020820152908101919091527f9f48ed7233c22694a09a88b91d83d18bc425120181b6806b665358b9d9e1bb269060600160405180910390a1505050505050505050565b80516001600160a01b03811681146200028c57600080fd5b919050565b6000806000806000806000806000806000806101808d8f031215620002b557600080fd5b620002c08d62000274565b9b5060208d01519a50620002d760408e0162000274565b9950620002e760608e0162000274565b985060808d0151975060a08d0151965060c08d015195506200030c60e08e0162000274565b94506101008d01519350620003256101208e0162000274565b92506101408d015191506200033e6101608e0162000274565b90509295989b509295989b509295989b565b634e487b7160e01b600052601160045260246000fd5b808202811582820484141762000380576200038062000350565b92915050565b8082018082111562000380576200038062000350565b6114e880620003ac6000396000f3fe608060405234801561001057600080fd5b50600436106101585760003560e01c80637ac561e4116100c3578063b997cd351161007c578063b997cd3514610296578063c891e8ed146102a9578063d5baf83f146102b1578063de55ab24146102b9578063efdb14fe146102e2578063fffd788d146102ea57600080fd5b80637ac561e41461021657806382e756921461024257806398b7395114610267578063a43be57b1461026f578063a8d5232714610277578063b7ba1dba1461028e57600080fd5b8063522990c511610115578063522990c5146101b657806360d938dc146101be57806362f6e47b146101d557806363acc38f146101dd5780636990256c146101f057806370e5deb91461020357600080fd5b80632432b8ac1461015d5780632488b0b414610174578063278bacd3146101895780633427b870146101915780633ad970c9146101a65780634be2eb0a146101ae575b600080fd5b600d545b6040519081526020015b60405180910390f35b61017c6102f2565b60405161016b919061131e565b600c54610161565b6101a461019f36600461136b565b610354565b005b6101a461052c565b61017c610676565b6101a46106d6565b60105460ff165b604051901515815260200161016b565b600e54610161565b6101c56101eb36600461136b565b6106fe565b6101a46101fe36600461136b565b6107cc565b6101a461021136600461136b565b610922565b6101c5610224366004611384565b6001600160a01b031660009081526017602052604090205460ff1690565b600a546001600160a01b03165b6040516001600160a01b03909116815260200161016b565b601154610161565b6101a46109b4565b6009546201000090046001600160a01b031661024f565b6101a4610a74565b6101a46102a436600461136b565b610b4d565b600554610161565b601354610161565b6101616102c7366004611384565b6001600160a01b031660009081526019602052604090205490565b601254610161565b600b54610161565b6060600b80548060200260200160405190810160405280929190818152602001828054801561034a57602002820191906000526020600020905b81546001600160a01b0316815260019091019060200180831161032c575b5050505050905090565b600954610100900460ff16156103855760405162461bcd60e51b815260040161037c906113ad565b60405180910390fd5b600c544211156103a857604051632fcad0fb60e11b815260040160405180910390fd5b806000036103c957604051631f4ff1cf60e31b815260040160405180910390fd5b6003546103e0906001600160a01b03168233610f34565b600b805460018101825560009182527f0175b7a638427703f0dbe7bb9bbf987a2551717b34e79f33b5b1008d1fa01db90180546001600160a01b03191633179055600e80548392906104339084906113fa565b909155505033600090815260196020526040812080548392906104579084906113fa565b90915550503360009081526015602052604081205460ff16151590036104ef57600154604051631951d2b560e11b81523360048201526001600160a01b03909116906332a3a56a90602401600060405180830381600087803b1580156104bc57600080fd5b505af11580156104d0573d6000803e3d6000fd5b5050336000908152601560205260409020805460ff1916600117905550505b60408051338152602081018390527fff843de903461a83d80c77649ed36998e537f6fd6969a06f0cef493d208fca7a91015b60405180910390a150565b600954610100900460ff16156105545760405162461bcd60e51b815260040161037c906113ad565b3360009081526017602052604090205460ff16151560010361058957604051630968d3f560e21b815260040160405180910390fd5b3360009081526019602052604081205490036105b85760405163eb7d3ba960e01b815260040160405180910390fd5b600c544210156105db57604051635c81c5cd60e01b815260040160405180910390fd5b60006105e5610ff3565b336000908152601760205260408120805460ff19166001179055600f805492935083929091906106169084906113fa565b9091555050600954610638906201000090046001600160a01b0316823361110e565b610640611147565b60408051338152602081018390527f55b23e34fc96dccffe7f8c501b5273c8d3e15e8cb2d58282ff94e192bd1c1a2b9101610521565b6060601480548060200260200160405190810160405280929190818152602001828054801561034a576020028201919060005260206000209081546001600160a01b0316815260019091019060200180831161032c575050505050905090565b6001546001600160a01b031633146106ed57600080fd5b6009805461ff001916610100179055565b600a546000906001600160a01b0316331461072b5760405162461bcd60e51b815260040161037c9061140d565b600954610100900460ff16156107535760405162461bcd60e51b815260040161037c906113ad565b600c5442111561077657604051630fd6d2b760e41b815260040160405180910390fd5b61078d61078483603c611444565b600c549061125d565b600c55506040518181526001907f2c3957d0010f6725c32be5dd614ebf1d0faa8bc5410ec01585a6c1f63b2c65de9060200160405180910390a1919050565b600a546001600160a01b031633146107f65760405162461bcd60e51b815260040161037c9061140d565b600954610100900460ff161561081e5760405162461bcd60e51b815260040161037c906113ad565b8060000361083f57604051631f4ff1cf60e31b815260040160405180910390fd5b600c5442101561086257604051635c81c5cd60e01b815260040160405180910390fd5b61086a611147565b600454601254600e5461087d91906113fa565b610887919061145b565b8111156108a757604051635097f10f60e01b815260040160405180910390fd5b600454156108d5576003546004546001546108cf926001600160a01b0390811692911661110e565b60006004555b6003546108ec906001600160a01b0316823361110e565b60408051338152602081018390527fca46b9b7c324188c4b8a2b29b9399ac5b3ce27e9e21ad4e53733b7c354cb9ea09101610521565b600954610100900460ff166109835760405162461bcd60e51b815260206004820152602160248201527f4f4e4c5920415641494c41424c45204946205041442049532043414e43454c456044820152601160fa1b606482015260840161037c565b6001546001600160a01b0316331461099a57600080fd5b6003546109b1906001600160a01b0316823361110e565b50565b600a546001600160a01b031633146109de5760405162461bcd60e51b815260040161037c9061140d565b60105460ff161515600103610a0657604051630f48b18160e21b815260040160405180910390fd5b6010805460ff191660019081179091555460408051630e580b2b60e41b815290516001600160a01b039092169163e580b2b09160048082019260009290919082900301818387803b158015610a5a57600080fd5b505af1158015610a6e573d6000803e3d6000fd5b50505050565b600a546001600160a01b03163314610a9e5760405162461bcd60e51b815260040161037c9061140d565b600954610100900460ff1615610ac65760405162461bcd60e51b815260040161037c906113ad565b60105460ff161515600003610aee57604051634e3a0cc160e11b815260040160405180910390fd5b600954601154610b0e916201000090046001600160a01b0316903361110e565b6011546040805133815260208101929092527f0b26a7deabcc23ddb1e7ac0e09f2750788424b50871be8225cd275127f8c610e910160405180910390a1565b600954610100900460ff1615610b755760405162461bcd60e51b815260040161037c906113ad565b600c544211610bc65760405162461bcd60e51b815260206004820152601b60248201527f4c41554e4348504144205354494c4c20494e2050524f47524553530000000000604482015260640161037c565b610bce611147565b60095460ff161515600103610bf55760405162eb1cc760e31b815260040160405180910390fd5b601154600003610c1857604051637a8dd83f60e11b815260040160405180910390fd5b60105460ff161515600103610c4057604051630f48b18160e21b815260040160405180910390fd5b6000610c4b82611272565b9050601154811115610c70576040516373c6a6a760e01b815260040160405180910390fd5b6003546040516323b872dd60e01b8152336004820152306024820152604481018490526000916001600160a01b0316906323b872dd906064016020604051808303816000875af1158015610cc8573d6000803e3d6000fd5b505050506040513d601f19601f82011682018060405250810190610cec919061146e565b905080610d365760405162461bcd60e51b81526020600482015260186024820152774552524f52205452414e53464552494e4720544f4b454e5360401b604482015260640161037c565b601154610d4390836112cb565b601155601254610d53908461125d565b6012556014805460018101825560009182527fce6d7b5282bd9a3661ae061feed1dbda4e52ab073b1f9285be6e155d9c38d4ec0180546001600160a01b0319163390811790915560095460405163a9059cbb60e01b81526004810192909252602482018590526201000090046001600160a01b03169063a9059cbb906044016020604051808303816000875af1158015610df1573d6000803e3d6000fd5b505050506040513d601f19601f82011682018060405250810190610e15919061146e565b3360009081526016602052604081205491925060ff90911615159003610ead5760015460405163c3e5e8b360e01b81523360048201526001600160a01b039091169063c3e5e8b390602401600060405180830381600087803b158015610e7a57600080fd5b505af1158015610e8e573d6000803e3d6000fd5b5050336000908152601660205260409020805460ff1916600117905550505b80610ef55760405162461bcd60e51b81526020600482015260186024820152774552524f52205452414e53464552494e4720544f4b454e5360401b604482015260640161037c565b60408051338152602081018590527fee8a2330a1ede71b41e00a75a09bce5a2708f8be50397e9a146191cb2158eb48910160405180910390a150505050565b6040516323b872dd60e01b81526001600160a01b03828116600483015230602483015260448201849052600091908516906323b872dd906064015b6020604051808303816000875af1158015610f8e573d6000803e3d6000fd5b505050506040513d601f19601f82011682018060405250810190610fb2919061146e565b905080610a6e5760405162461bcd60e51b815260206004820152600f60248201526e1514905394d1915488119052531151608a1b604482015260640161037c565b33600090815260196020526040812054600854811080159061102557503360009081526018602052604090205460ff16155b156110d55733600081815260186020526040808220805460ff191660011790559054905163e9c2e14b60e01b815260048101929092526001600160a01b03169063e9c2e14b90602401600060405180830381600087803b15801561108857600080fd5b505af115801561109c573d6000803e3d6000fd5b50506040513381527f3dab64d173b82cdea212bccb7c499f8f5a25d0cc1a55c9b50875f41b9f1408439250602001905060405180910390a15b6110f6600e546110f0600d54846112d790919063ffffffff16565b906112e3565b336000908152601a6020526040902081905592915050565b60405163a9059cbb60e01b81526001600160a01b038281166004830152602482018490526000919085169063a9059cbb90604401610f6f565b60095460ff16151560010361120a576009805460ff191690556001546040805163e4c94fa160e01b815290516001600160a01b039092169163e4c94fa19160048082019260009290919082900301818387803b1580156111a657600080fd5b505af11580156111ba573d6000803e3d6000fd5b505060095460408051620100009092046001600160a01b031682524260208301527f4f347311bfc24c315aeb5e78922d63e941dd3c0f698bd6ffe105f86dfcd8871c935001905060405180910390a15b60075460ff1615156000036112495760006064600e5460065461122d9190611444565b6112379190611490565b600455506007805460ff191660011790555b60055460000361125b5761125b6112ef565b565b600061126982846113fa565b90505b92915050565b6000806064601354670de0b6b3a764000061128d9190611444565b6112979190611490565b6112a990670de0b6b3a76400006113fa565b905080600554846112ba9190611444565b6112c49190611490565b9392505050565b6000611269828461145b565b60006112698284611444565b60006112698284611490565b600e54600d54670de0b6b3a76400009160009161130d908490611444565b6113179190611490565b6005555050565b6020808252825182820181905260009190848201906040850190845b8181101561135f5783516001600160a01b03168352928401929184019160010161133a565b50909695505050505050565b60006020828403121561137d57600080fd5b5035919050565b60006020828403121561139657600080fd5b81356001600160a01b03811681146112c457600080fd5b6020808252601b908201527f4c41554e43485041442043414e43454c45442042592041444d494e0000000000604082015260600190565b634e487b7160e01b600052601160045260246000fd5b8082018082111561126c5761126c6113e4565b60208082526017908201527f4e4f54204c61756e6368506164204d6f64657261746f72000000000000000000604082015260600190565b808202811582820484141761126c5761126c6113e4565b8181038181111561126c5761126c6113e4565b60006020828403121561148057600080fd5b815180151581146112c457600080fd5b6000826114ad57634e487b7160e01b600052601260045260246000fd5b50049056fea264697066735822122093697a96ced56eb8c7badb442e99b828ee12a8bce5334e9bb0bff160c4bc322364736f6c63430008130033000000000000000000000000a771e1625dd4faa2ff0a41fa119eb9644c9a46c8000000000000000000000000000000000000000000000000000000000000000a000000000000000000000000f078f89b3cad8bae62da4c15cb2fd1e6a3eb032f000000000000000000000000ece2662b7d6726408c7603e7f1f36bdde3e041d200000000000000000000000000000000000000000000152d02c7e14af6800000000000000000000000000000000000000000000000002a5a058fc295ed0000000000000000000000000000000000000000000000000000000000000000000078000000000000000000000000a771e1625dd4faa2ff0a41fa119eb9644c9a46c8000000000000000000000000000000000000000000000000000000000000000a000000000000000000000000f6331218f26643ad596daa065457bfe5ac1d5ba600000000000000000000000000000000000000000000003635c9adc5dea00000000000000000000000000000b07249740915f17bc869fe50625a046aaeed1616"
        }
      ],
      "isFixedGasLimit": false
    },
    {
      "hash": "0x48dc36b934b7b2cf92b86e82304a4b08510f723d0f7324394567b79192d37667",
      "transactionType": "CALL",
      "contractName": "IgniteLaunchPadFactory",
      "contractAddress": "0xECE2662b7D6726408C7603e7F1F36bDDE3e041d2",
      "function": "registerLaunchPads(address,address,uint256,uint256,uint256)",
      "arguments": [
        "0xA771E1625DD4FAa2Ff0a41FA119Eb9644c9A46C8",
        "0x1F8a1018d1f84749aD4aE3d3711Cc98b79E8f962",
        "102",
        "1682099954",
        "100000000000000000000000"
      ],
      "rpc": "https://eth-sepolia.g.alchemy.com/v2/d-LIwWZ8hzqmjIPKZ-X-jXIoy-rS9gHa",
      "transaction": {
        "type": "0x02",
        "from": "0xa771e1625dd4faa2ff0a41fa119eb9644c9a46c8",
        "to": "0xece2662b7d6726408c7603e7f1f36bdde3e041d2",
        "gas": "0x2e5a1",
        "value": "0x0",
        "data": "0x2ac54011000000000000000000000000a771e1625dd4faa2ff0a41fa119eb9644c9a46c80000000000000000000000001f8a1018d1f84749ad4ae3d3711cc98b79e8f9620000000000000000000000000000000000000000000000000000000000000066000000000000000000000000000000000000000000000000000000006442cef200000000000000000000000000000000000000000000152d02c7e14af6800000",
        "nonce": "0x188",
        "accessList": []
      },
      "additionalContracts": [],
      "isFixedGasLimit": false
    },
    {
      "hash": "0x075f1a4242af4e74424d19e021e8d7171270d8f7dc75dbfc52fe8edba77a4372",
      "transactionType": "CALL",
      "contractName": "StarDaoToken",
      "contractAddress": "0x1F8a1018d1f84749aD4aE3d3711Cc98b79E8f962",
      "function": "approve(address,uint256):(bool)",
      "arguments": [
        "0xECE2662b7D6726408C7603e7F1F36bDDE3e041d2",
        "100000000000000000000000000000000"
      ],
      "rpc": "https://eth-sepolia.g.alchemy.com/v2/d-LIwWZ8hzqmjIPKZ-X-jXIoy-rS9gHa",
      "transaction": {
        "type": "0x02",
        "from": "0xa771e1625dd4faa2ff0a41fa119eb9644c9a46c8",
        "to": "0x1f8a1018d1f84749ad4ae3d3711cc98b79e8f962",
        "gas": "0x108ae",
        "value": "0x0",
        "data": "0x095ea7b3000000000000000000000000ece2662b7d6726408c7603e7f1f36bdde3e041d200000000000000000000000000000000000004ee2d6d415b85acef8100000000",
        "nonce": "0x189",
        "accessList": []
      },
      "additionalContracts": [],
      "isFixedGasLimit": false
    },
    {
      "hash": "0x17589230317ccf01fac7acd5de8c7a138a0981985cb72f9b19ca501e65de4377",
      "transactionType": "CALL",
      "contractName": "IgniteLaunchPadFactory",
      "contractAddress": "0xECE2662b7D6726408C7603e7F1F36bDDE3e041d2",
      "function": "createLaunchPad(uint256,address,string,string,uint256,uint256,uint256,uint256)",
      "arguments": [
        "102",
        "0x1F8a1018d1f84749aD4aE3d3711Cc98b79E8f962",
        "INCOGNITOBLISS",
        "IGB",
        "100000000000000000000000",
        "200000000000000000000000",
        "800",
        "15"
      ],
      "rpc": "https://eth-sepolia.g.alchemy.com/v2/d-LIwWZ8hzqmjIPKZ-X-jXIoy-rS9gHa",
      "transaction": {
        "type": "0x02",
        "from": "0xa771e1625dd4faa2ff0a41fa119eb9644c9a46c8",
        "to": "0xece2662b7d6726408c7603e7f1f36bdde3e041d2",
        "gas": "0x259021",
        "value": "0x0",
        "data": "0xc71b390e00000000000000000000000000000000000000000000000000000000000000660000000000000000000000001f8a1018d1f84749ad4ae3d3711cc98b79e8f9620000000000000000000000000000000000000000000000000000000000000100000000000000000000000000000000000000000000000000000000000000014000000000000000000000000000000000000000000000152d02c7e14af6800000000000000000000000000000000000000000000000002a5a058fc295ed0000000000000000000000000000000000000000000000000000000000000000000320000000000000000000000000000000000000000000000000000000000000000f000000000000000000000000000000000000000000000000000000000000000e494e434f474e49544f424c49535300000000000000000000000000000000000000000000000000000000000000000000000000000000000000000000000000034947420000000000000000000000000000000000000000000000000000000000",
        "nonce": "0x18a",
        "accessList": []
      },
      "additionalContracts": [
        {
          "transactionType": "CREATE",
          "address": "0x1c51B01336331f886284DD43F75F5A71749fB568",
          "initCode": "60806040523480156200001157600080fd5b506040516200189438038062001894833981016040819052620000349162000291565b600080546001600160a01b038084166001600160a01b031992831617909255600380549286169290911691909117905560088290556200007c8c8c8c8c8c8c8c8c8c6200008e565b5050505050505050505050506200039c565b6001600160a01b038716620000a257600080fd5b60008511620000b057600080fd5b60008311620000be57600080fd5b8315620001635760008111620001105760405162461bcd60e51b815260206004820152601260248201527150455243454e5441474520544f4f204c4f5760701b60448201526064015b60405180910390fd5b6064811115620001635760405162461bcd60e51b815260206004820152601360248201527f50455243454e5441474520544f4f204849474800000000000000000000000000604482015260640162000107565b620001768989888a8987898b8962000181565b505050505050505050565b600280546001600160a01b0319166001600160a01b038b81169190911790915560068990556009805461ff01600160b01b0319166201000092891692909202919091176001179055600d85905542620001dc84603c62000366565b620001e8919062000386565b600c819055600a80546001600160a01b03199081166001600160a01b0388811691821790935560118690556013859055600180549092168b841617909155604080519182529189166020820152908101919091527f9f48ed7233c22694a09a88b91d83d18bc425120181b6806b665358b9d9e1bb269060600160405180910390a1505050505050505050565b80516001600160a01b03811681146200028c57600080fd5b919050565b6000806000806000806000806000806000806101808d8f031215620002b557600080fd5b620002c08d62000274565b9b5060208d01519a50620002d760408e0162000274565b9950620002e760608e0162000274565b985060808d0151975060a08d0151965060c08d015195506200030c60e08e0162000274565b94506101008d01519350620003256101208e0162000274565b92506101408d015191506200033e6101608e0162000274565b90509295989b509295989b509295989b565b634e487b7160e01b600052601160045260246000fd5b808202811582820484141762000380576200038062000350565b92915050565b8082018082111562000380576200038062000350565b6114e880620003ac6000396000f3fe608060405234801561001057600080fd5b50600436106101585760003560e01c80637ac561e4116100c3578063b997cd351161007c578063b997cd3514610296578063c891e8ed146102a9578063d5baf83f146102b1578063de55ab24146102b9578063efdb14fe146102e2578063fffd788d146102ea57600080fd5b80637ac561e41461021657806382e756921461024257806398b7395114610267578063a43be57b1461026f578063a8d5232714610277578063b7ba1dba1461028e57600080fd5b8063522990c511610115578063522990c5146101b657806360d938dc146101be57806362f6e47b146101d557806363acc38f146101dd5780636990256c146101f057806370e5deb91461020357600080fd5b80632432b8ac1461015d5780632488b0b414610174578063278bacd3146101895780633427b870146101915780633ad970c9146101a65780634be2eb0a146101ae575b600080fd5b600d545b6040519081526020015b60405180910390f35b61017c6102f2565b60405161016b919061131e565b600c54610161565b6101a461019f36600461136b565b610354565b005b6101a461052c565b61017c610676565b6101a46106d6565b60105460ff165b604051901515815260200161016b565b600e54610161565b6101c56101eb36600461136b565b6106fe565b6101a46101fe36600461136b565b6107cc565b6101a461021136600461136b565b610922565b6101c5610224366004611384565b6001600160a01b031660009081526017602052604090205460ff1690565b600a546001600160a01b03165b6040516001600160a01b03909116815260200161016b565b601154610161565b6101a46109b4565b6009546201000090046001600160a01b031661024f565b6101a4610a74565b6101a46102a436600461136b565b610b4d565b600554610161565b601354610161565b6101616102c7366004611384565b6001600160a01b031660009081526019602052604090205490565b601254610161565b600b54610161565b6060600b80548060200260200160405190810160405280929190818152602001828054801561034a57602002820191906000526020600020905b81546001600160a01b0316815260019091019060200180831161032c575b5050505050905090565b600954610100900460ff16156103855760405162461bcd60e51b815260040161037c906113ad565b60405180910390fd5b600c544211156103a857604051632fcad0fb60e11b815260040160405180910390fd5b806000036103c957604051631f4ff1cf60e31b815260040160405180910390fd5b6003546103e0906001600160a01b03168233610f34565b600b805460018101825560009182527f0175b7a638427703f0dbe7bb9bbf987a2551717b34e79f33b5b1008d1fa01db90180546001600160a01b03191633179055600e80548392906104339084906113fa565b909155505033600090815260196020526040812080548392906104579084906113fa565b90915550503360009081526015602052604081205460ff16151590036104ef57600154604051631951d2b560e11b81523360048201526001600160a01b03909116906332a3a56a90602401600060405180830381600087803b1580156104bc57600080fd5b505af11580156104d0573d6000803e3d6000fd5b5050336000908152601560205260409020805460ff1916600117905550505b60408051338152602081018390527fff843de903461a83d80c77649ed36998e537f6fd6969a06f0cef493d208fca7a91015b60405180910390a150565b600954610100900460ff16156105545760405162461bcd60e51b815260040161037c906113ad565b3360009081526017602052604090205460ff16151560010361058957604051630968d3f560e21b815260040160405180910390fd5b3360009081526019602052604081205490036105b85760405163eb7d3ba960e01b815260040160405180910390fd5b600c544210156105db57604051635c81c5cd60e01b815260040160405180910390fd5b60006105e5610ff3565b336000908152601760205260408120805460ff19166001179055600f805492935083929091906106169084906113fa565b9091555050600954610638906201000090046001600160a01b0316823361110e565b610640611147565b60408051338152602081018390527f55b23e34fc96dccffe7f8c501b5273c8d3e15e8cb2d58282ff94e192bd1c1a2b9101610521565b6060601480548060200260200160405190810160405280929190818152602001828054801561034a576020028201919060005260206000209081546001600160a01b0316815260019091019060200180831161032c575050505050905090565b6001546001600160a01b031633146106ed57600080fd5b6009805461ff001916610100179055565b600a546000906001600160a01b0316331461072b5760405162461bcd60e51b815260040161037c9061140d565b600954610100900460ff16156107535760405162461bcd60e51b815260040161037c906113ad565b600c5442111561077657604051630fd6d2b760e41b815260040160405180910390fd5b61078d61078483603c611444565b600c549061125d565b600c55506040518181526001907f2c3957d0010f6725c32be5dd614ebf1d0faa8bc5410ec01585a6c1f63b2c65de9060200160405180910390a1919050565b600a546001600160a01b031633146107f65760405162461bcd60e51b815260040161037c9061140d565b600954610100900460ff161561081e5760405162461bcd60e51b815260040161037c906113ad565b8060000361083f57604051631f4ff1cf60e31b815260040160405180910390fd5b600c5442101561086257604051635c81c5cd60e01b815260040160405180910390fd5b61086a611147565b600454601254600e5461087d91906113fa565b610887919061145b565b8111156108a757604051635097f10f60e01b815260040160405180910390fd5b600454156108d5576003546004546001546108cf926001600160a01b0390811692911661110e565b60006004555b6003546108ec906001600160a01b0316823361110e565b60408051338152602081018390527fca46b9b7c324188c4b8a2b29b9399ac5b3ce27e9e21ad4e53733b7c354cb9ea09101610521565b600954610100900460ff166109835760405162461bcd60e51b815260206004820152602160248201527f4f4e4c5920415641494c41424c45204946205041442049532043414e43454c456044820152601160fa1b606482015260840161037c565b6001546001600160a01b0316331461099a57600080fd5b6003546109b1906001600160a01b0316823361110e565b50565b600a546001600160a01b031633146109de5760405162461bcd60e51b815260040161037c9061140d565b60105460ff161515600103610a0657604051630f48b18160e21b815260040160405180910390fd5b6010805460ff191660019081179091555460408051630e580b2b60e41b815290516001600160a01b039092169163e580b2b09160048082019260009290919082900301818387803b158015610a5a57600080fd5b505af1158015610a6e573d6000803e3d6000fd5b50505050565b600a546001600160a01b03163314610a9e5760405162461bcd60e51b815260040161037c9061140d565b600954610100900460ff1615610ac65760405162461bcd60e51b815260040161037c906113ad565b60105460ff161515600003610aee57604051634e3a0cc160e11b815260040160405180910390fd5b600954601154610b0e916201000090046001600160a01b0316903361110e565b6011546040805133815260208101929092527f0b26a7deabcc23ddb1e7ac0e09f2750788424b50871be8225cd275127f8c610e910160405180910390a1565b600954610100900460ff1615610b755760405162461bcd60e51b815260040161037c906113ad565b600c544211610bc65760405162461bcd60e51b815260206004820152601b60248201527f4c41554e4348504144205354494c4c20494e2050524f47524553530000000000604482015260640161037c565b610bce611147565b60095460ff161515600103610bf55760405162eb1cc760e31b815260040160405180910390fd5b601154600003610c1857604051637a8dd83f60e11b815260040160405180910390fd5b60105460ff161515600103610c4057604051630f48b18160e21b815260040160405180910390fd5b6000610c4b82611272565b9050601154811115610c70576040516373c6a6a760e01b815260040160405180910390fd5b6003546040516323b872dd60e01b8152336004820152306024820152604481018490526000916001600160a01b0316906323b872dd906064016020604051808303816000875af1158015610cc8573d6000803e3d6000fd5b505050506040513d601f19601f82011682018060405250810190610cec919061146e565b905080610d365760405162461bcd60e51b81526020600482015260186024820152774552524f52205452414e53464552494e4720544f4b454e5360401b604482015260640161037c565b601154610d4390836112cb565b601155601254610d53908461125d565b6012556014805460018101825560009182527fce6d7b5282bd9a3661ae061feed1dbda4e52ab073b1f9285be6e155d9c38d4ec0180546001600160a01b0319163390811790915560095460405163a9059cbb60e01b81526004810192909252602482018590526201000090046001600160a01b03169063a9059cbb906044016020604051808303816000875af1158015610df1573d6000803e3d6000fd5b505050506040513d601f19601f82011682018060405250810190610e15919061146e565b3360009081526016602052604081205491925060ff90911615159003610ead5760015460405163c3e5e8b360e01b81523360048201526001600160a01b039091169063c3e5e8b390602401600060405180830381600087803b158015610e7a57600080fd5b505af1158015610e8e573d6000803e3d6000fd5b5050336000908152601660205260409020805460ff1916600117905550505b80610ef55760405162461bcd60e51b81526020600482015260186024820152774552524f52205452414e53464552494e4720544f4b454e5360401b604482015260640161037c565b60408051338152602081018590527fee8a2330a1ede71b41e00a75a09bce5a2708f8be50397e9a146191cb2158eb48910160405180910390a150505050565b6040516323b872dd60e01b81526001600160a01b03828116600483015230602483015260448201849052600091908516906323b872dd906064015b6020604051808303816000875af1158015610f8e573d6000803e3d6000fd5b505050506040513d601f19601f82011682018060405250810190610fb2919061146e565b905080610a6e5760405162461bcd60e51b815260206004820152600f60248201526e1514905394d1915488119052531151608a1b604482015260640161037c565b33600090815260196020526040812054600854811080159061102557503360009081526018602052604090205460ff16155b156110d55733600081815260186020526040808220805460ff191660011790559054905163e9c2e14b60e01b815260048101929092526001600160a01b03169063e9c2e14b90602401600060405180830381600087803b15801561108857600080fd5b505af115801561109c573d6000803e3d6000fd5b50506040513381527f3dab64d173b82cdea212bccb7c499f8f5a25d0cc1a55c9b50875f41b9f1408439250602001905060405180910390a15b6110f6600e546110f0600d54846112d790919063ffffffff16565b906112e3565b336000908152601a6020526040902081905592915050565b60405163a9059cbb60e01b81526001600160a01b038281166004830152602482018490526000919085169063a9059cbb90604401610f6f565b60095460ff16151560010361120a576009805460ff191690556001546040805163e4c94fa160e01b815290516001600160a01b039092169163e4c94fa19160048082019260009290919082900301818387803b1580156111a657600080fd5b505af11580156111ba573d6000803e3d6000fd5b505060095460408051620100009092046001600160a01b031682524260208301527f4f347311bfc24c315aeb5e78922d63e941dd3c0f698bd6ffe105f86dfcd8871c935001905060405180910390a15b60075460ff1615156000036112495760006064600e5460065461122d9190611444565b6112379190611490565b600455506007805460ff191660011790555b60055460000361125b5761125b6112ef565b565b600061126982846113fa565b90505b92915050565b6000806064601354670de0b6b3a764000061128d9190611444565b6112979190611490565b6112a990670de0b6b3a76400006113fa565b905080600554846112ba9190611444565b6112c49190611490565b9392505050565b6000611269828461145b565b60006112698284611444565b60006112698284611490565b600e54600d54670de0b6b3a76400009160009161130d908490611444565b6113179190611490565b6005555050565b6020808252825182820181905260009190848201906040850190845b8181101561135f5783516001600160a01b03168352928401929184019160010161133a565b50909695505050505050565b60006020828403121561137d57600080fd5b5035919050565b60006020828403121561139657600080fd5b81356001600160a01b03811681146112c457600080fd5b6020808252601b908201527f4c41554e43485041442043414e43454c45442042592041444d494e0000000000604082015260600190565b634e487b7160e01b600052601160045260246000fd5b8082018082111561126c5761126c6113e4565b60208082526017908201527f4e4f54204c61756e6368506164204d6f64657261746f72000000000000000000604082015260600190565b808202811582820484141761126c5761126c6113e4565b8181038181111561126c5761126c6113e4565b60006020828403121561148057600080fd5b815180151581146112c457600080fd5b6000826114ad57634e487b7160e01b600052601260045260246000fd5b50049056fea264697066735822122093697a96ced56eb8c7badb442e99b828ee12a8bce5334e9bb0bff160c4bc322364736f6c63430008130033000000000000000000000000a771e1625dd4faa2ff0a41fa119eb9644c9a46c8000000000000000000000000000000000000000000000000000000000000000a0000000000000000000000001f8a1018d1f84749ad4ae3d3711cc98b79e8f962000000000000000000000000ece2662b7d6726408c7603e7f1f36bdde3e041d200000000000000000000000000000000000000000000152d02c7e14af6800000000000000000000000000000000000000000000000002a5a058fc295ed0000000000000000000000000000000000000000000000000000000000000000000320000000000000000000000000a771e1625dd4faa2ff0a41fa119eb9644c9a46c8000000000000000000000000000000000000000000000000000000000000000f000000000000000000000000f6331218f26643ad596daa065457bfe5ac1d5ba600000000000000000000000000000000000000000000003635c9adc5dea00000000000000000000000000000b07249740915f17bc869fe50625a046aaeed1616"
        }
      ],
      "isFixedGasLimit": false
    },
    {
      "hash": "0x5c6ed140c5105908a90120fb793c4bdde06c22b4de60741b01f7dbfeac7aa31b",
      "transactionType": "CALL",
      "contractName": "IgniteLaunchPadFactory",
      "contractAddress": "0xECE2662b7D6726408C7603e7F1F36bDDE3e041d2",
      "function": "registerLaunchPads(address,address,uint256,uint256,uint256)",
      "arguments": [
        "0xA771E1625DD4FAa2Ff0a41FA119Eb9644c9A46C8",
        "0x4fe39e64CdE340AfF497D7da0e16F6E60848cDbd",
        "103",
        "1682099954",
        "100000000000000000000000"
      ],
      "rpc": "https://eth-sepolia.g.alchemy.com/v2/d-LIwWZ8hzqmjIPKZ-X-jXIoy-rS9gHa",
      "transaction": {
        "type": "0x02",
        "from": "0xa771e1625dd4faa2ff0a41fa119eb9644c9a46c8",
        "to": "0xece2662b7d6726408c7603e7f1f36bdde3e041d2",
        "gas": "0x2e5a1",
        "value": "0x0",
        "data": "0x2ac54011000000000000000000000000a771e1625dd4faa2ff0a41fa119eb9644c9a46c80000000000000000000000004fe39e64cde340aff497d7da0e16f6e60848cdbd0000000000000000000000000000000000000000000000000000000000000067000000000000000000000000000000000000000000000000000000006442cef200000000000000000000000000000000000000000000152d02c7e14af6800000",
        "nonce": "0x18b",
        "accessList": []
      },
      "additionalContracts": [],
      "isFixedGasLimit": false
    },
    {
      "hash": "0x25b296775a1d62c1b76e9425fb4114fdf1e9e777a22f9e2fc9badc6dfd0b8ea8",
      "transactionType": "CALL",
      "contractName": "StarDaoToken",
      "contractAddress": "0x4fe39e64CdE340AfF497D7da0e16F6E60848cDbd",
      "function": "approve(address,uint256):(bool)",
      "arguments": [
        "0xECE2662b7D6726408C7603e7F1F36bDDE3e041d2",
        "100000000000000000000000000000000"
      ],
      "rpc": "https://eth-sepolia.g.alchemy.com/v2/d-LIwWZ8hzqmjIPKZ-X-jXIoy-rS9gHa",
      "transaction": {
        "type": "0x02",
        "from": "0xa771e1625dd4faa2ff0a41fa119eb9644c9a46c8",
        "to": "0x4fe39e64cde340aff497d7da0e16f6e60848cdbd",
        "gas": "0x108ae",
        "value": "0x0",
        "data": "0x095ea7b3000000000000000000000000ece2662b7d6726408c7603e7f1f36bdde3e041d200000000000000000000000000000000000004ee2d6d415b85acef8100000000",
        "nonce": "0x18c",
        "accessList": []
      },
      "additionalContracts": [],
      "isFixedGasLimit": false
    },
    {
      "hash": "0x2b43471358e911981e2757171da38e48ecf7375732b46ed156a4991f4449317e",
      "transactionType": "CALL",
      "contractName": "IgniteLaunchPadFactory",
      "contractAddress": "0xECE2662b7D6726408C7603e7F1F36bDDE3e041d2",
      "function": "createLaunchPad(uint256,address,string,string,uint256,uint256,uint256,uint256)",
      "arguments": [
        "103",
        "0x4fe39e64CdE340AfF497D7da0e16F6E60848cDbd",
        "FUTURES LIGHT",
        "FTL",
        "100000000000000000000000",
        "200000000000000000000000",
        "500",
        "5"
      ],
      "rpc": "https://eth-sepolia.g.alchemy.com/v2/d-LIwWZ8hzqmjIPKZ-X-jXIoy-rS9gHa",
      "transaction": {
        "type": "0x02",
        "from": "0xa771e1625dd4faa2ff0a41fa119eb9644c9a46c8",
        "to": "0xece2662b7d6726408c7603e7f1f36bdde3e041d2",
        "gas": "0x2379d5",
        "value": "0x0",
        "data": "0xc71b390e00000000000000000000000000000000000000000000000000000000000000670000000000000000000000004fe39e64cde340aff497d7da0e16f6e60848cdbd0000000000000000000000000000000000000000000000000000000000000100000000000000000000000000000000000000000000000000000000000000014000000000000000000000000000000000000000000000152d02c7e14af6800000000000000000000000000000000000000000000000002a5a058fc295ed00000000000000000000000000000000000000000000000000000000000000000001f40000000000000000000000000000000000000000000000000000000000000005000000000000000000000000000000000000000000000000000000000000000d46555455524553204c4947485400000000000000000000000000000000000000000000000000000000000000000000000000000000000000000000000000000346544c0000000000000000000000000000000000000000000000000000000000",
        "nonce": "0x18d",
        "accessList": []
      },
      "additionalContracts": [
        {
          "transactionType": "CREATE",
          "address": "0xfecA0421ABD4e4E22f680d0cd72191988079bE94",
          "initCode": "60806040523480156200001157600080fd5b506040516200189438038062001894833981016040819052620000349162000291565b600080546001600160a01b038084166001600160a01b031992831617909255600380549286169290911691909117905560088290556200007c8c8c8c8c8c8c8c8c8c6200008e565b5050505050505050505050506200039c565b6001600160a01b038716620000a257600080fd5b60008511620000b057600080fd5b60008311620000be57600080fd5b8315620001635760008111620001105760405162461bcd60e51b815260206004820152601260248201527150455243454e5441474520544f4f204c4f5760701b60448201526064015b60405180910390fd5b6064811115620001635760405162461bcd60e51b815260206004820152601360248201527f50455243454e5441474520544f4f204849474800000000000000000000000000604482015260640162000107565b620001768989888a8987898b8962000181565b505050505050505050565b600280546001600160a01b0319166001600160a01b038b81169190911790915560068990556009805461ff01600160b01b0319166201000092891692909202919091176001179055600d85905542620001dc84603c62000366565b620001e8919062000386565b600c819055600a80546001600160a01b03199081166001600160a01b0388811691821790935560118690556013859055600180549092168b841617909155604080519182529189166020820152908101919091527f9f48ed7233c22694a09a88b91d83d18bc425120181b6806b665358b9d9e1bb269060600160405180910390a1505050505050505050565b80516001600160a01b03811681146200028c57600080fd5b919050565b6000806000806000806000806000806000806101808d8f031215620002b557600080fd5b620002c08d62000274565b9b5060208d01519a50620002d760408e0162000274565b9950620002e760608e0162000274565b985060808d0151975060a08d0151965060c08d015195506200030c60e08e0162000274565b94506101008d01519350620003256101208e0162000274565b92506101408d015191506200033e6101608e0162000274565b90509295989b509295989b509295989b565b634e487b7160e01b600052601160045260246000fd5b808202811582820484141762000380576200038062000350565b92915050565b8082018082111562000380576200038062000350565b6114e880620003ac6000396000f3fe608060405234801561001057600080fd5b50600436106101585760003560e01c80637ac561e4116100c3578063b997cd351161007c578063b997cd3514610296578063c891e8ed146102a9578063d5baf83f146102b1578063de55ab24146102b9578063efdb14fe146102e2578063fffd788d146102ea57600080fd5b80637ac561e41461021657806382e756921461024257806398b7395114610267578063a43be57b1461026f578063a8d5232714610277578063b7ba1dba1461028e57600080fd5b8063522990c511610115578063522990c5146101b657806360d938dc146101be57806362f6e47b146101d557806363acc38f146101dd5780636990256c146101f057806370e5deb91461020357600080fd5b80632432b8ac1461015d5780632488b0b414610174578063278bacd3146101895780633427b870146101915780633ad970c9146101a65780634be2eb0a146101ae575b600080fd5b600d545b6040519081526020015b60405180910390f35b61017c6102f2565b60405161016b919061131e565b600c54610161565b6101a461019f36600461136b565b610354565b005b6101a461052c565b61017c610676565b6101a46106d6565b60105460ff165b604051901515815260200161016b565b600e54610161565b6101c56101eb36600461136b565b6106fe565b6101a46101fe36600461136b565b6107cc565b6101a461021136600461136b565b610922565b6101c5610224366004611384565b6001600160a01b031660009081526017602052604090205460ff1690565b600a546001600160a01b03165b6040516001600160a01b03909116815260200161016b565b601154610161565b6101a46109b4565b6009546201000090046001600160a01b031661024f565b6101a4610a74565b6101a46102a436600461136b565b610b4d565b600554610161565b601354610161565b6101616102c7366004611384565b6001600160a01b031660009081526019602052604090205490565b601254610161565b600b54610161565b6060600b80548060200260200160405190810160405280929190818152602001828054801561034a57602002820191906000526020600020905b81546001600160a01b0316815260019091019060200180831161032c575b5050505050905090565b600954610100900460ff16156103855760405162461bcd60e51b815260040161037c906113ad565b60405180910390fd5b600c544211156103a857604051632fcad0fb60e11b815260040160405180910390fd5b806000036103c957604051631f4ff1cf60e31b815260040160405180910390fd5b6003546103e0906001600160a01b03168233610f34565b600b805460018101825560009182527f0175b7a638427703f0dbe7bb9bbf987a2551717b34e79f33b5b1008d1fa01db90180546001600160a01b03191633179055600e80548392906104339084906113fa565b909155505033600090815260196020526040812080548392906104579084906113fa565b90915550503360009081526015602052604081205460ff16151590036104ef57600154604051631951d2b560e11b81523360048201526001600160a01b03909116906332a3a56a90602401600060405180830381600087803b1580156104bc57600080fd5b505af11580156104d0573d6000803e3d6000fd5b5050336000908152601560205260409020805460ff1916600117905550505b60408051338152602081018390527fff843de903461a83d80c77649ed36998e537f6fd6969a06f0cef493d208fca7a91015b60405180910390a150565b600954610100900460ff16156105545760405162461bcd60e51b815260040161037c906113ad565b3360009081526017602052604090205460ff16151560010361058957604051630968d3f560e21b815260040160405180910390fd5b3360009081526019602052604081205490036105b85760405163eb7d3ba960e01b815260040160405180910390fd5b600c544210156105db57604051635c81c5cd60e01b815260040160405180910390fd5b60006105e5610ff3565b336000908152601760205260408120805460ff19166001179055600f805492935083929091906106169084906113fa565b9091555050600954610638906201000090046001600160a01b0316823361110e565b610640611147565b60408051338152602081018390527f55b23e34fc96dccffe7f8c501b5273c8d3e15e8cb2d58282ff94e192bd1c1a2b9101610521565b6060601480548060200260200160405190810160405280929190818152602001828054801561034a576020028201919060005260206000209081546001600160a01b0316815260019091019060200180831161032c575050505050905090565b6001546001600160a01b031633146106ed57600080fd5b6009805461ff001916610100179055565b600a546000906001600160a01b0316331461072b5760405162461bcd60e51b815260040161037c9061140d565b600954610100900460ff16156107535760405162461bcd60e51b815260040161037c906113ad565b600c5442111561077657604051630fd6d2b760e41b815260040160405180910390fd5b61078d61078483603c611444565b600c549061125d565b600c55506040518181526001907f2c3957d0010f6725c32be5dd614ebf1d0faa8bc5410ec01585a6c1f63b2c65de9060200160405180910390a1919050565b600a546001600160a01b031633146107f65760405162461bcd60e51b815260040161037c9061140d565b600954610100900460ff161561081e5760405162461bcd60e51b815260040161037c906113ad565b8060000361083f57604051631f4ff1cf60e31b815260040160405180910390fd5b600c5442101561086257604051635c81c5cd60e01b815260040160405180910390fd5b61086a611147565b600454601254600e5461087d91906113fa565b610887919061145b565b8111156108a757604051635097f10f60e01b815260040160405180910390fd5b600454156108d5576003546004546001546108cf926001600160a01b0390811692911661110e565b60006004555b6003546108ec906001600160a01b0316823361110e565b60408051338152602081018390527fca46b9b7c324188c4b8a2b29b9399ac5b3ce27e9e21ad4e53733b7c354cb9ea09101610521565b600954610100900460ff166109835760405162461bcd60e51b815260206004820152602160248201527f4f4e4c5920415641494c41424c45204946205041442049532043414e43454c456044820152601160fa1b606482015260840161037c565b6001546001600160a01b0316331461099a57600080fd5b6003546109b1906001600160a01b0316823361110e565b50565b600a546001600160a01b031633146109de5760405162461bcd60e51b815260040161037c9061140d565b60105460ff161515600103610a0657604051630f48b18160e21b815260040160405180910390fd5b6010805460ff191660019081179091555460408051630e580b2b60e41b815290516001600160a01b039092169163e580b2b09160048082019260009290919082900301818387803b158015610a5a57600080fd5b505af1158015610a6e573d6000803e3d6000fd5b50505050565b600a546001600160a01b03163314610a9e5760405162461bcd60e51b815260040161037c9061140d565b600954610100900460ff1615610ac65760405162461bcd60e51b815260040161037c906113ad565b60105460ff161515600003610aee57604051634e3a0cc160e11b815260040160405180910390fd5b600954601154610b0e916201000090046001600160a01b0316903361110e565b6011546040805133815260208101929092527f0b26a7deabcc23ddb1e7ac0e09f2750788424b50871be8225cd275127f8c610e910160405180910390a1565b600954610100900460ff1615610b755760405162461bcd60e51b815260040161037c906113ad565b600c544211610bc65760405162461bcd60e51b815260206004820152601b60248201527f4c41554e4348504144205354494c4c20494e2050524f47524553530000000000604482015260640161037c565b610bce611147565b60095460ff161515600103610bf55760405162eb1cc760e31b815260040160405180910390fd5b601154600003610c1857604051637a8dd83f60e11b815260040160405180910390fd5b60105460ff161515600103610c4057604051630f48b18160e21b815260040160405180910390fd5b6000610c4b82611272565b9050601154811115610c70576040516373c6a6a760e01b815260040160405180910390fd5b6003546040516323b872dd60e01b8152336004820152306024820152604481018490526000916001600160a01b0316906323b872dd906064016020604051808303816000875af1158015610cc8573d6000803e3d6000fd5b505050506040513d601f19601f82011682018060405250810190610cec919061146e565b905080610d365760405162461bcd60e51b81526020600482015260186024820152774552524f52205452414e53464552494e4720544f4b454e5360401b604482015260640161037c565b601154610d4390836112cb565b601155601254610d53908461125d565b6012556014805460018101825560009182527fce6d7b5282bd9a3661ae061feed1dbda4e52ab073b1f9285be6e155d9c38d4ec0180546001600160a01b0319163390811790915560095460405163a9059cbb60e01b81526004810192909252602482018590526201000090046001600160a01b03169063a9059cbb906044016020604051808303816000875af1158015610df1573d6000803e3d6000fd5b505050506040513d601f19601f82011682018060405250810190610e15919061146e565b3360009081526016602052604081205491925060ff90911615159003610ead5760015460405163c3e5e8b360e01b81523360048201526001600160a01b039091169063c3e5e8b390602401600060405180830381600087803b158015610e7a57600080fd5b505af1158015610e8e573d6000803e3d6000fd5b5050336000908152601660205260409020805460ff1916600117905550505b80610ef55760405162461bcd60e51b81526020600482015260186024820152774552524f52205452414e53464552494e4720544f4b454e5360401b604482015260640161037c565b60408051338152602081018590527fee8a2330a1ede71b41e00a75a09bce5a2708f8be50397e9a146191cb2158eb48910160405180910390a150505050565b6040516323b872dd60e01b81526001600160a01b03828116600483015230602483015260448201849052600091908516906323b872dd906064015b6020604051808303816000875af1158015610f8e573d6000803e3d6000fd5b505050506040513d601f19601f82011682018060405250810190610fb2919061146e565b905080610a6e5760405162461bcd60e51b815260206004820152600f60248201526e1514905394d1915488119052531151608a1b604482015260640161037c565b33600090815260196020526040812054600854811080159061102557503360009081526018602052604090205460ff16155b156110d55733600081815260186020526040808220805460ff191660011790559054905163e9c2e14b60e01b815260048101929092526001600160a01b03169063e9c2e14b90602401600060405180830381600087803b15801561108857600080fd5b505af115801561109c573d6000803e3d6000fd5b50506040513381527f3dab64d173b82cdea212bccb7c499f8f5a25d0cc1a55c9b50875f41b9f1408439250602001905060405180910390a15b6110f6600e546110f0600d54846112d790919063ffffffff16565b906112e3565b336000908152601a6020526040902081905592915050565b60405163a9059cbb60e01b81526001600160a01b038281166004830152602482018490526000919085169063a9059cbb90604401610f6f565b60095460ff16151560010361120a576009805460ff191690556001546040805163e4c94fa160e01b815290516001600160a01b039092169163e4c94fa19160048082019260009290919082900301818387803b1580156111a657600080fd5b505af11580156111ba573d6000803e3d6000fd5b505060095460408051620100009092046001600160a01b031682524260208301527f4f347311bfc24c315aeb5e78922d63e941dd3c0f698bd6ffe105f86dfcd8871c935001905060405180910390a15b60075460ff1615156000036112495760006064600e5460065461122d9190611444565b6112379190611490565b600455506007805460ff191660011790555b60055460000361125b5761125b6112ef565b565b600061126982846113fa565b90505b92915050565b6000806064601354670de0b6b3a764000061128d9190611444565b6112979190611490565b6112a990670de0b6b3a76400006113fa565b905080600554846112ba9190611444565b6112c49190611490565b9392505050565b6000611269828461145b565b60006112698284611444565b60006112698284611490565b600e54600d54670de0b6b3a76400009160009161130d908490611444565b6113179190611490565b6005555050565b6020808252825182820181905260009190848201906040850190845b8181101561135f5783516001600160a01b03168352928401929184019160010161133a565b50909695505050505050565b60006020828403121561137d57600080fd5b5035919050565b60006020828403121561139657600080fd5b81356001600160a01b03811681146112c457600080fd5b6020808252601b908201527f4c41554e43485041442043414e43454c45442042592041444d494e0000000000604082015260600190565b634e487b7160e01b600052601160045260246000fd5b8082018082111561126c5761126c6113e4565b60208082526017908201527f4e4f54204c61756e6368506164204d6f64657261746f72000000000000000000604082015260600190565b808202811582820484141761126c5761126c6113e4565b8181038181111561126c5761126c6113e4565b60006020828403121561148057600080fd5b815180151581146112c457600080fd5b6000826114ad57634e487b7160e01b600052601260045260246000fd5b50049056fea264697066735822122093697a96ced56eb8c7badb442e99b828ee12a8bce5334e9bb0bff160c4bc322364736f6c63430008130033000000000000000000000000a771e1625dd4faa2ff0a41fa119eb9644c9a46c8000000000000000000000000000000000000000000000000000000000000000a0000000000000000000000004fe39e64cde340aff497d7da0e16f6e60848cdbd000000000000000000000000ece2662b7d6726408c7603e7f1f36bdde3e041d200000000000000000000000000000000000000000000152d02c7e14af6800000000000000000000000000000000000000000000000002a5a058fc295ed00000000000000000000000000000000000000000000000000000000000000000001f4000000000000000000000000a771e1625dd4faa2ff0a41fa119eb9644c9a46c80000000000000000000000000000000000000000000000000000000000000005000000000000000000000000f6331218f26643ad596daa065457bfe5ac1d5ba600000000000000000000000000000000000000000000003635c9adc5dea00000000000000000000000000000b07249740915f17bc869fe50625a046aaeed1616"
        }
      ],
      "isFixedGasLimit": false
    },
    {
      "hash": "0xa59bad6c9e7113bff36a8c065e2da5cea402591be9cd1f2e34af66f905ccca38",
      "transactionType": "CALL",
      "contractName": "IgniteLaunchPadFactory",
      "contractAddress": "0xECE2662b7D6726408C7603e7F1F36bDDE3e041d2",
      "function": "registerLaunchPads(address,address,uint256,uint256,uint256)",
      "arguments": [
        "0xA771E1625DD4FAa2Ff0a41FA119Eb9644c9A46C8",
        "0x358aE5C64bBF71851Cf817fE0e4b975594DbA78e",
        "105",
        "1682099954",
        "100000000000000000000000"
      ],
      "rpc": "https://eth-sepolia.g.alchemy.com/v2/d-LIwWZ8hzqmjIPKZ-X-jXIoy-rS9gHa",
      "transaction": {
        "type": "0x02",
        "from": "0xa771e1625dd4faa2ff0a41fa119eb9644c9a46c8",
        "to": "0xece2662b7d6726408c7603e7f1f36bdde3e041d2",
        "gas": "0x2e5a1",
        "value": "0x0",
        "data": "0x2ac54011000000000000000000000000a771e1625dd4faa2ff0a41fa119eb9644c9a46c8000000000000000000000000358ae5c64bbf71851cf817fe0e4b975594dba78e0000000000000000000000000000000000000000000000000000000000000069000000000000000000000000000000000000000000000000000000006442cef200000000000000000000000000000000000000000000152d02c7e14af6800000",
        "nonce": "0x18e",
        "accessList": []
      },
      "additionalContracts": [],
      "isFixedGasLimit": false
    },
    {
      "hash": "0x39a7fc9a5f4b708ab55e151253f90c75d168d1df81856711a314aee0d6ecc2bc",
      "transactionType": "CALL",
      "contractName": "StarDaoToken",
      "contractAddress": "0x358aE5C64bBF71851Cf817fE0e4b975594DbA78e",
      "function": "approve(address,uint256):(bool)",
      "arguments": [
        "0xECE2662b7D6726408C7603e7F1F36bDDE3e041d2",
        "100000000000000000000000000000000"
      ],
      "rpc": "https://eth-sepolia.g.alchemy.com/v2/d-LIwWZ8hzqmjIPKZ-X-jXIoy-rS9gHa",
      "transaction": {
        "type": "0x02",
        "from": "0xa771e1625dd4faa2ff0a41fa119eb9644c9a46c8",
        "to": "0x358ae5c64bbf71851cf817fe0e4b975594dba78e",
        "gas": "0x108ae",
        "value": "0x0",
        "data": "0x095ea7b3000000000000000000000000ece2662b7d6726408c7603e7f1f36bdde3e041d200000000000000000000000000000000000004ee2d6d415b85acef8100000000",
        "nonce": "0x18f",
        "accessList": []
      },
      "additionalContracts": [],
      "isFixedGasLimit": false
    },
    {
      "hash": "0x4be45198224a482509fe7d84913f98390a36b0334f8155126965036a061b6784",
      "transactionType": "CALL",
      "contractName": "IgniteLaunchPadFactory",
      "contractAddress": "0xECE2662b7D6726408C7603e7F1F36bDDE3e041d2",
      "function": "createLaunchPad(uint256,address,string,string,uint256,uint256,uint256,uint256)",
      "arguments": [
        "105",
        "0x358aE5C64bBF71851Cf817fE0e4b975594DbA78e",
        "LAST DAWN",
        "LDN",
        "100000000000000000000000",
        "200000000000000000000000",
        "120",
        "20"
      ],
      "rpc": "https://eth-sepolia.g.alchemy.com/v2/d-LIwWZ8hzqmjIPKZ-X-jXIoy-rS9gHa",
      "transaction": {
        "type": "0x02",
        "from": "0xa771e1625dd4faa2ff0a41fa119eb9644c9a46c8",
        "to": "0xece2662b7d6726408c7603e7f1f36bdde3e041d2",
        "gas": "0x258fb8",
        "value": "0x0",
        "data": "0xc71b390e0000000000000000000000000000000000000000000000000000000000000069000000000000000000000000358ae5c64bbf71851cf817fe0e4b975594dba78e0000000000000000000000000000000000000000000000000000000000000100000000000000000000000000000000000000000000000000000000000000014000000000000000000000000000000000000000000000152d02c7e14af6800000000000000000000000000000000000000000000000002a5a058fc295ed0000000000000000000000000000000000000000000000000000000000000000000078000000000000000000000000000000000000000000000000000000000000001400000000000000000000000000000000000000000000000000000000000000094c415354204441574e000000000000000000000000000000000000000000000000000000000000000000000000000000000000000000000000000000000000034c444e0000000000000000000000000000000000000000000000000000000000",
        "nonce": "0x190",
        "accessList": []
      },
      "additionalContracts": [
        {
          "transactionType": "CREATE",
          "address": "0xC2bDF8DCc42D538b89784e8A73a5b24f52dB0962",
          "initCode": "60806040523480156200001157600080fd5b506040516200189438038062001894833981016040819052620000349162000291565b600080546001600160a01b038084166001600160a01b031992831617909255600380549286169290911691909117905560088290556200007c8c8c8c8c8c8c8c8c8c6200008e565b5050505050505050505050506200039c565b6001600160a01b038716620000a257600080fd5b60008511620000b057600080fd5b60008311620000be57600080fd5b8315620001635760008111620001105760405162461bcd60e51b815260206004820152601260248201527150455243454e5441474520544f4f204c4f5760701b60448201526064015b60405180910390fd5b6064811115620001635760405162461bcd60e51b815260206004820152601360248201527f50455243454e5441474520544f4f204849474800000000000000000000000000604482015260640162000107565b620001768989888a8987898b8962000181565b505050505050505050565b600280546001600160a01b0319166001600160a01b038b81169190911790915560068990556009805461ff01600160b01b0319166201000092891692909202919091176001179055600d85905542620001dc84603c62000366565b620001e8919062000386565b600c819055600a80546001600160a01b03199081166001600160a01b0388811691821790935560118690556013859055600180549092168b841617909155604080519182529189166020820152908101919091527f9f48ed7233c22694a09a88b91d83d18bc425120181b6806b665358b9d9e1bb269060600160405180910390a1505050505050505050565b80516001600160a01b03811681146200028c57600080fd5b919050565b6000806000806000806000806000806000806101808d8f031215620002b557600080fd5b620002c08d62000274565b9b5060208d01519a50620002d760408e0162000274565b9950620002e760608e0162000274565b985060808d0151975060a08d0151965060c08d015195506200030c60e08e0162000274565b94506101008d01519350620003256101208e0162000274565b92506101408d015191506200033e6101608e0162000274565b90509295989b509295989b509295989b565b634e487b7160e01b600052601160045260246000fd5b808202811582820484141762000380576200038062000350565b92915050565b8082018082111562000380576200038062000350565b6114e880620003ac6000396000f3fe608060405234801561001057600080fd5b50600436106101585760003560e01c80637ac561e4116100c3578063b997cd351161007c578063b997cd3514610296578063c891e8ed146102a9578063d5baf83f146102b1578063de55ab24146102b9578063efdb14fe146102e2578063fffd788d146102ea57600080fd5b80637ac561e41461021657806382e756921461024257806398b7395114610267578063a43be57b1461026f578063a8d5232714610277578063b7ba1dba1461028e57600080fd5b8063522990c511610115578063522990c5146101b657806360d938dc146101be57806362f6e47b146101d557806363acc38f146101dd5780636990256c146101f057806370e5deb91461020357600080fd5b80632432b8ac1461015d5780632488b0b414610174578063278bacd3146101895780633427b870146101915780633ad970c9146101a65780634be2eb0a146101ae575b600080fd5b600d545b6040519081526020015b60405180910390f35b61017c6102f2565b60405161016b919061131e565b600c54610161565b6101a461019f36600461136b565b610354565b005b6101a461052c565b61017c610676565b6101a46106d6565b60105460ff165b604051901515815260200161016b565b600e54610161565b6101c56101eb36600461136b565b6106fe565b6101a46101fe36600461136b565b6107cc565b6101a461021136600461136b565b610922565b6101c5610224366004611384565b6001600160a01b031660009081526017602052604090205460ff1690565b600a546001600160a01b03165b6040516001600160a01b03909116815260200161016b565b601154610161565b6101a46109b4565b6009546201000090046001600160a01b031661024f565b6101a4610a74565b6101a46102a436600461136b565b610b4d565b600554610161565b601354610161565b6101616102c7366004611384565b6001600160a01b031660009081526019602052604090205490565b601254610161565b600b54610161565b6060600b80548060200260200160405190810160405280929190818152602001828054801561034a57602002820191906000526020600020905b81546001600160a01b0316815260019091019060200180831161032c575b5050505050905090565b600954610100900460ff16156103855760405162461bcd60e51b815260040161037c906113ad565b60405180910390fd5b600c544211156103a857604051632fcad0fb60e11b815260040160405180910390fd5b806000036103c957604051631f4ff1cf60e31b815260040160405180910390fd5b6003546103e0906001600160a01b03168233610f34565b600b805460018101825560009182527f0175b7a638427703f0dbe7bb9bbf987a2551717b34e79f33b5b1008d1fa01db90180546001600160a01b03191633179055600e80548392906104339084906113fa565b909155505033600090815260196020526040812080548392906104579084906113fa565b90915550503360009081526015602052604081205460ff16151590036104ef57600154604051631951d2b560e11b81523360048201526001600160a01b03909116906332a3a56a90602401600060405180830381600087803b1580156104bc57600080fd5b505af11580156104d0573d6000803e3d6000fd5b5050336000908152601560205260409020805460ff1916600117905550505b60408051338152602081018390527fff843de903461a83d80c77649ed36998e537f6fd6969a06f0cef493d208fca7a91015b60405180910390a150565b600954610100900460ff16156105545760405162461bcd60e51b815260040161037c906113ad565b3360009081526017602052604090205460ff16151560010361058957604051630968d3f560e21b815260040160405180910390fd5b3360009081526019602052604081205490036105b85760405163eb7d3ba960e01b815260040160405180910390fd5b600c544210156105db57604051635c81c5cd60e01b815260040160405180910390fd5b60006105e5610ff3565b336000908152601760205260408120805460ff19166001179055600f805492935083929091906106169084906113fa565b9091555050600954610638906201000090046001600160a01b0316823361110e565b610640611147565b60408051338152602081018390527f55b23e34fc96dccffe7f8c501b5273c8d3e15e8cb2d58282ff94e192bd1c1a2b9101610521565b6060601480548060200260200160405190810160405280929190818152602001828054801561034a576020028201919060005260206000209081546001600160a01b0316815260019091019060200180831161032c575050505050905090565b6001546001600160a01b031633146106ed57600080fd5b6009805461ff001916610100179055565b600a546000906001600160a01b0316331461072b5760405162461bcd60e51b815260040161037c9061140d565b600954610100900460ff16156107535760405162461bcd60e51b815260040161037c906113ad565b600c5442111561077657604051630fd6d2b760e41b815260040160405180910390fd5b61078d61078483603c611444565b600c549061125d565b600c55506040518181526001907f2c3957d0010f6725c32be5dd614ebf1d0faa8bc5410ec01585a6c1f63b2c65de9060200160405180910390a1919050565b600a546001600160a01b031633146107f65760405162461bcd60e51b815260040161037c9061140d565b600954610100900460ff161561081e5760405162461bcd60e51b815260040161037c906113ad565b8060000361083f57604051631f4ff1cf60e31b815260040160405180910390fd5b600c5442101561086257604051635c81c5cd60e01b815260040160405180910390fd5b61086a611147565b600454601254600e5461087d91906113fa565b610887919061145b565b8111156108a757604051635097f10f60e01b815260040160405180910390fd5b600454156108d5576003546004546001546108cf926001600160a01b0390811692911661110e565b60006004555b6003546108ec906001600160a01b0316823361110e565b60408051338152602081018390527fca46b9b7c324188c4b8a2b29b9399ac5b3ce27e9e21ad4e53733b7c354cb9ea09101610521565b600954610100900460ff166109835760405162461bcd60e51b815260206004820152602160248201527f4f4e4c5920415641494c41424c45204946205041442049532043414e43454c456044820152601160fa1b606482015260840161037c565b6001546001600160a01b0316331461099a57600080fd5b6003546109b1906001600160a01b0316823361110e565b50565b600a546001600160a01b031633146109de5760405162461bcd60e51b815260040161037c9061140d565b60105460ff161515600103610a0657604051630f48b18160e21b815260040160405180910390fd5b6010805460ff191660019081179091555460408051630e580b2b60e41b815290516001600160a01b039092169163e580b2b09160048082019260009290919082900301818387803b158015610a5a57600080fd5b505af1158015610a6e573d6000803e3d6000fd5b50505050565b600a546001600160a01b03163314610a9e5760405162461bcd60e51b815260040161037c9061140d565b600954610100900460ff1615610ac65760405162461bcd60e51b815260040161037c906113ad565b60105460ff161515600003610aee57604051634e3a0cc160e11b815260040160405180910390fd5b600954601154610b0e916201000090046001600160a01b0316903361110e565b6011546040805133815260208101929092527f0b26a7deabcc23ddb1e7ac0e09f2750788424b50871be8225cd275127f8c610e910160405180910390a1565b600954610100900460ff1615610b755760405162461bcd60e51b815260040161037c906113ad565b600c544211610bc65760405162461bcd60e51b815260206004820152601b60248201527f4c41554e4348504144205354494c4c20494e2050524f47524553530000000000604482015260640161037c565b610bce611147565b60095460ff161515600103610bf55760405162eb1cc760e31b815260040160405180910390fd5b601154600003610c1857604051637a8dd83f60e11b815260040160405180910390fd5b60105460ff161515600103610c4057604051630f48b18160e21b815260040160405180910390fd5b6000610c4b82611272565b9050601154811115610c70576040516373c6a6a760e01b815260040160405180910390fd5b6003546040516323b872dd60e01b8152336004820152306024820152604481018490526000916001600160a01b0316906323b872dd906064016020604051808303816000875af1158015610cc8573d6000803e3d6000fd5b505050506040513d601f19601f82011682018060405250810190610cec919061146e565b905080610d365760405162461bcd60e51b81526020600482015260186024820152774552524f52205452414e53464552494e4720544f4b454e5360401b604482015260640161037c565b601154610d4390836112cb565b601155601254610d53908461125d565b6012556014805460018101825560009182527fce6d7b5282bd9a3661ae061feed1dbda4e52ab073b1f9285be6e155d9c38d4ec0180546001600160a01b0319163390811790915560095460405163a9059cbb60e01b81526004810192909252602482018590526201000090046001600160a01b03169063a9059cbb906044016020604051808303816000875af1158015610df1573d6000803e3d6000fd5b505050506040513d601f19601f82011682018060405250810190610e15919061146e565b3360009081526016602052604081205491925060ff90911615159003610ead5760015460405163c3e5e8b360e01b81523360048201526001600160a01b039091169063c3e5e8b390602401600060405180830381600087803b158015610e7a57600080fd5b505af1158015610e8e573d6000803e3d6000fd5b5050336000908152601660205260409020805460ff1916600117905550505b80610ef55760405162461bcd60e51b81526020600482015260186024820152774552524f52205452414e53464552494e4720544f4b454e5360401b604482015260640161037c565b60408051338152602081018590527fee8a2330a1ede71b41e00a75a09bce5a2708f8be50397e9a146191cb2158eb48910160405180910390a150505050565b6040516323b872dd60e01b81526001600160a01b03828116600483015230602483015260448201849052600091908516906323b872dd906064015b6020604051808303816000875af1158015610f8e573d6000803e3d6000fd5b505050506040513d601f19601f82011682018060405250810190610fb2919061146e565b905080610a6e5760405162461bcd60e51b815260206004820152600f60248201526e1514905394d1915488119052531151608a1b604482015260640161037c565b33600090815260196020526040812054600854811080159061102557503360009081526018602052604090205460ff16155b156110d55733600081815260186020526040808220805460ff191660011790559054905163e9c2e14b60e01b815260048101929092526001600160a01b03169063e9c2e14b90602401600060405180830381600087803b15801561108857600080fd5b505af115801561109c573d6000803e3d6000fd5b50506040513381527f3dab64d173b82cdea212bccb7c499f8f5a25d0cc1a55c9b50875f41b9f1408439250602001905060405180910390a15b6110f6600e546110f0600d54846112d790919063ffffffff16565b906112e3565b336000908152601a6020526040902081905592915050565b60405163a9059cbb60e01b81526001600160a01b038281166004830152602482018490526000919085169063a9059cbb90604401610f6f565b60095460ff16151560010361120a576009805460ff191690556001546040805163e4c94fa160e01b815290516001600160a01b039092169163e4c94fa19160048082019260009290919082900301818387803b1580156111a657600080fd5b505af11580156111ba573d6000803e3d6000fd5b505060095460408051620100009092046001600160a01b031682524260208301527f4f347311bfc24c315aeb5e78922d63e941dd3c0f698bd6ffe105f86dfcd8871c935001905060405180910390a15b60075460ff1615156000036112495760006064600e5460065461122d9190611444565b6112379190611490565b600455506007805460ff191660011790555b60055460000361125b5761125b6112ef565b565b600061126982846113fa565b90505b92915050565b6000806064601354670de0b6b3a764000061128d9190611444565b6112979190611490565b6112a990670de0b6b3a76400006113fa565b905080600554846112ba9190611444565b6112c49190611490565b9392505050565b6000611269828461145b565b60006112698284611444565b60006112698284611490565b600e54600d54670de0b6b3a76400009160009161130d908490611444565b6113179190611490565b6005555050565b6020808252825182820181905260009190848201906040850190845b8181101561135f5783516001600160a01b03168352928401929184019160010161133a565b50909695505050505050565b60006020828403121561137d57600080fd5b5035919050565b60006020828403121561139657600080fd5b81356001600160a01b03811681146112c457600080fd5b6020808252601b908201527f4c41554e43485041442043414e43454c45442042592041444d494e0000000000604082015260600190565b634e487b7160e01b600052601160045260246000fd5b8082018082111561126c5761126c6113e4565b60208082526017908201527f4e4f54204c61756e6368506164204d6f64657261746f72000000000000000000604082015260600190565b808202811582820484141761126c5761126c6113e4565b8181038181111561126c5761126c6113e4565b60006020828403121561148057600080fd5b815180151581146112c457600080fd5b6000826114ad57634e487b7160e01b600052601260045260246000fd5b50049056fea264697066735822122093697a96ced56eb8c7badb442e99b828ee12a8bce5334e9bb0bff160c4bc322364736f6c63430008130033000000000000000000000000a771e1625dd4faa2ff0a41fa119eb9644c9a46c8000000000000000000000000000000000000000000000000000000000000000a000000000000000000000000358ae5c64bbf71851cf817fe0e4b975594dba78e000000000000000000000000ece2662b7d6726408c7603e7f1f36bdde3e041d200000000000000000000000000000000000000000000152d02c7e14af6800000000000000000000000000000000000000000000000002a5a058fc295ed0000000000000000000000000000000000000000000000000000000000000000000078000000000000000000000000a771e1625dd4faa2ff0a41fa119eb9644c9a46c80000000000000000000000000000000000000000000000000000000000000014000000000000000000000000f6331218f26643ad596daa065457bfe5ac1d5ba600000000000000000000000000000000000000000000003635c9adc5dea00000000000000000000000000000b07249740915f17bc869fe50625a046aaeed1616"
        }
      ],
      "isFixedGasLimit": false
    },
    {
      "hash": "0xee94133b121e6966256f7315bcb30900812d60e3a018f7bb1f5bebf5e7280632",
      "transactionType": "CALL",
      "contractName": "IgniteLaunchPadFactory",
      "contractAddress": "0xECE2662b7D6726408C7603e7F1F36bDDE3e041d2",
      "function": "registerLaunchPads(address,address,uint256,uint256,uint256)",
      "arguments": [
        "0xA771E1625DD4FAa2Ff0a41FA119Eb9644c9A46C8",
        "0x77A61844D548E8bbD221AEff646fde357006d525",
        "106",
        "1682099954",
        "100000000000000000000000"
      ],
      "rpc": "https://eth-sepolia.g.alchemy.com/v2/d-LIwWZ8hzqmjIPKZ-X-jXIoy-rS9gHa",
      "transaction": {
        "type": "0x02",
        "from": "0xa771e1625dd4faa2ff0a41fa119eb9644c9a46c8",
        "to": "0xece2662b7d6726408c7603e7f1f36bdde3e041d2",
        "gas": "0x2e5a1",
        "value": "0x0",
        "data": "0x2ac54011000000000000000000000000a771e1625dd4faa2ff0a41fa119eb9644c9a46c800000000000000000000000077a61844d548e8bbd221aeff646fde357006d525000000000000000000000000000000000000000000000000000000000000006a000000000000000000000000000000000000000000000000000000006442cef200000000000000000000000000000000000000000000152d02c7e14af6800000",
        "nonce": "0x191",
        "accessList": []
      },
      "additionalContracts": [],
      "isFixedGasLimit": false
    },
    {
      "hash": "0xa2c31f156a28b000cc6b30f6b4a28d04d6a79848976a39d6f51cf829aa24491d",
      "transactionType": "CALL",
      "contractName": "StarDaoToken",
      "contractAddress": "0x77A61844D548E8bbD221AEff646fde357006d525",
      "function": "approve(address,uint256):(bool)",
      "arguments": [
        "0xECE2662b7D6726408C7603e7F1F36bDDE3e041d2",
        "100000000000000000000000000000000"
      ],
      "rpc": "https://eth-sepolia.g.alchemy.com/v2/d-LIwWZ8hzqmjIPKZ-X-jXIoy-rS9gHa",
      "transaction": {
        "type": "0x02",
        "from": "0xa771e1625dd4faa2ff0a41fa119eb9644c9a46c8",
        "to": "0x77a61844d548e8bbd221aeff646fde357006d525",
        "gas": "0x108ae",
        "value": "0x0",
        "data": "0x095ea7b3000000000000000000000000ece2662b7d6726408c7603e7f1f36bdde3e041d200000000000000000000000000000000000004ee2d6d415b85acef8100000000",
        "nonce": "0x192",
        "accessList": []
      },
      "additionalContracts": [],
      "isFixedGasLimit": false
    },
    {
      "hash": "0x990226528661a0c16efd650ad2f9ee17380eb3230c4475bbc6235eea0e185407",
      "transactionType": "CALL",
      "contractName": "IgniteLaunchPadFactory",
      "contractAddress": "0xECE2662b7D6726408C7603e7F1F36bDDE3e041d2",
      "function": "createLaunchPad(uint256,address,string,string,uint256,uint256,uint256,uint256)",
      "arguments": [
        "106",
        "0x77A61844D548E8bbD221AEff646fde357006d525",
        "LIGHTS SONG",
        "LGS",
        "100000000000000000000000",
        "200000000000000000000000",
        "220",
        "3"
      ],
      "rpc": "https://eth-sepolia.g.alchemy.com/v2/d-LIwWZ8hzqmjIPKZ-X-jXIoy-rS9gHa",
      "transaction": {
        "type": "0x02",
        "from": "0xa771e1625dd4faa2ff0a41fa119eb9644c9a46c8",
        "to": "0xece2662b7d6726408c7603e7f1f36bdde3e041d2",
        "gas": "0x258fdb",
        "value": "0x0",
        "data": "0xc71b390e000000000000000000000000000000000000000000000000000000000000006a00000000000000000000000077a61844d548e8bbd221aeff646fde357006d5250000000000000000000000000000000000000000000000000000000000000100000000000000000000000000000000000000000000000000000000000000014000000000000000000000000000000000000000000000152d02c7e14af6800000000000000000000000000000000000000000000000002a5a058fc295ed00000000000000000000000000000000000000000000000000000000000000000000dc0000000000000000000000000000000000000000000000000000000000000003000000000000000000000000000000000000000000000000000000000000000b4c494748545320534f4e4700000000000000000000000000000000000000000000000000000000000000000000000000000000000000000000000000000000034c47530000000000000000000000000000000000000000000000000000000000",
        "nonce": "0x193",
        "accessList": []
      },
      "additionalContracts": [
        {
          "transactionType": "CREATE",
          "address": "0xe146c2E3aa174db7F8E88f1191eeaB0C4a84D983",
          "initCode": "60806040523480156200001157600080fd5b506040516200189438038062001894833981016040819052620000349162000291565b600080546001600160a01b038084166001600160a01b031992831617909255600380549286169290911691909117905560088290556200007c8c8c8c8c8c8c8c8c8c6200008e565b5050505050505050505050506200039c565b6001600160a01b038716620000a257600080fd5b60008511620000b057600080fd5b60008311620000be57600080fd5b8315620001635760008111620001105760405162461bcd60e51b815260206004820152601260248201527150455243454e5441474520544f4f204c4f5760701b60448201526064015b60405180910390fd5b6064811115620001635760405162461bcd60e51b815260206004820152601360248201527f50455243454e5441474520544f4f204849474800000000000000000000000000604482015260640162000107565b620001768989888a8987898b8962000181565b505050505050505050565b600280546001600160a01b0319166001600160a01b038b81169190911790915560068990556009805461ff01600160b01b0319166201000092891692909202919091176001179055600d85905542620001dc84603c62000366565b620001e8919062000386565b600c819055600a80546001600160a01b03199081166001600160a01b0388811691821790935560118690556013859055600180549092168b841617909155604080519182529189166020820152908101919091527f9f48ed7233c22694a09a88b91d83d18bc425120181b6806b665358b9d9e1bb269060600160405180910390a1505050505050505050565b80516001600160a01b03811681146200028c57600080fd5b919050565b6000806000806000806000806000806000806101808d8f031215620002b557600080fd5b620002c08d62000274565b9b5060208d01519a50620002d760408e0162000274565b9950620002e760608e0162000274565b985060808d0151975060a08d0151965060c08d015195506200030c60e08e0162000274565b94506101008d01519350620003256101208e0162000274565b92506101408d015191506200033e6101608e0162000274565b90509295989b509295989b509295989b565b634e487b7160e01b600052601160045260246000fd5b808202811582820484141762000380576200038062000350565b92915050565b8082018082111562000380576200038062000350565b6114e880620003ac6000396000f3fe608060405234801561001057600080fd5b50600436106101585760003560e01c80637ac561e4116100c3578063b997cd351161007c578063b997cd3514610296578063c891e8ed146102a9578063d5baf83f146102b1578063de55ab24146102b9578063efdb14fe146102e2578063fffd788d146102ea57600080fd5b80637ac561e41461021657806382e756921461024257806398b7395114610267578063a43be57b1461026f578063a8d5232714610277578063b7ba1dba1461028e57600080fd5b8063522990c511610115578063522990c5146101b657806360d938dc146101be57806362f6e47b146101d557806363acc38f146101dd5780636990256c146101f057806370e5deb91461020357600080fd5b80632432b8ac1461015d5780632488b0b414610174578063278bacd3146101895780633427b870146101915780633ad970c9146101a65780634be2eb0a146101ae575b600080fd5b600d545b6040519081526020015b60405180910390f35b61017c6102f2565b60405161016b919061131e565b600c54610161565b6101a461019f36600461136b565b610354565b005b6101a461052c565b61017c610676565b6101a46106d6565b60105460ff165b604051901515815260200161016b565b600e54610161565b6101c56101eb36600461136b565b6106fe565b6101a46101fe36600461136b565b6107cc565b6101a461021136600461136b565b610922565b6101c5610224366004611384565b6001600160a01b031660009081526017602052604090205460ff1690565b600a546001600160a01b03165b6040516001600160a01b03909116815260200161016b565b601154610161565b6101a46109b4565b6009546201000090046001600160a01b031661024f565b6101a4610a74565b6101a46102a436600461136b565b610b4d565b600554610161565b601354610161565b6101616102c7366004611384565b6001600160a01b031660009081526019602052604090205490565b601254610161565b600b54610161565b6060600b80548060200260200160405190810160405280929190818152602001828054801561034a57602002820191906000526020600020905b81546001600160a01b0316815260019091019060200180831161032c575b5050505050905090565b600954610100900460ff16156103855760405162461bcd60e51b815260040161037c906113ad565b60405180910390fd5b600c544211156103a857604051632fcad0fb60e11b815260040160405180910390fd5b806000036103c957604051631f4ff1cf60e31b815260040160405180910390fd5b6003546103e0906001600160a01b03168233610f34565b600b805460018101825560009182527f0175b7a638427703f0dbe7bb9bbf987a2551717b34e79f33b5b1008d1fa01db90180546001600160a01b03191633179055600e80548392906104339084906113fa565b909155505033600090815260196020526040812080548392906104579084906113fa565b90915550503360009081526015602052604081205460ff16151590036104ef57600154604051631951d2b560e11b81523360048201526001600160a01b03909116906332a3a56a90602401600060405180830381600087803b1580156104bc57600080fd5b505af11580156104d0573d6000803e3d6000fd5b5050336000908152601560205260409020805460ff1916600117905550505b60408051338152602081018390527fff843de903461a83d80c77649ed36998e537f6fd6969a06f0cef493d208fca7a91015b60405180910390a150565b600954610100900460ff16156105545760405162461bcd60e51b815260040161037c906113ad565b3360009081526017602052604090205460ff16151560010361058957604051630968d3f560e21b815260040160405180910390fd5b3360009081526019602052604081205490036105b85760405163eb7d3ba960e01b815260040160405180910390fd5b600c544210156105db57604051635c81c5cd60e01b815260040160405180910390fd5b60006105e5610ff3565b336000908152601760205260408120805460ff19166001179055600f805492935083929091906106169084906113fa565b9091555050600954610638906201000090046001600160a01b0316823361110e565b610640611147565b60408051338152602081018390527f55b23e34fc96dccffe7f8c501b5273c8d3e15e8cb2d58282ff94e192bd1c1a2b9101610521565b6060601480548060200260200160405190810160405280929190818152602001828054801561034a576020028201919060005260206000209081546001600160a01b0316815260019091019060200180831161032c575050505050905090565b6001546001600160a01b031633146106ed57600080fd5b6009805461ff001916610100179055565b600a546000906001600160a01b0316331461072b5760405162461bcd60e51b815260040161037c9061140d565b600954610100900460ff16156107535760405162461bcd60e51b815260040161037c906113ad565b600c5442111561077657604051630fd6d2b760e41b815260040160405180910390fd5b61078d61078483603c611444565b600c549061125d565b600c55506040518181526001907f2c3957d0010f6725c32be5dd614ebf1d0faa8bc5410ec01585a6c1f63b2c65de9060200160405180910390a1919050565b600a546001600160a01b031633146107f65760405162461bcd60e51b815260040161037c9061140d565b600954610100900460ff161561081e5760405162461bcd60e51b815260040161037c906113ad565b8060000361083f57604051631f4ff1cf60e31b815260040160405180910390fd5b600c5442101561086257604051635c81c5cd60e01b815260040160405180910390fd5b61086a611147565b600454601254600e5461087d91906113fa565b610887919061145b565b8111156108a757604051635097f10f60e01b815260040160405180910390fd5b600454156108d5576003546004546001546108cf926001600160a01b0390811692911661110e565b60006004555b6003546108ec906001600160a01b0316823361110e565b60408051338152602081018390527fca46b9b7c324188c4b8a2b29b9399ac5b3ce27e9e21ad4e53733b7c354cb9ea09101610521565b600954610100900460ff166109835760405162461bcd60e51b815260206004820152602160248201527f4f4e4c5920415641494c41424c45204946205041442049532043414e43454c456044820152601160fa1b606482015260840161037c565b6001546001600160a01b0316331461099a57600080fd5b6003546109b1906001600160a01b0316823361110e565b50565b600a546001600160a01b031633146109de5760405162461bcd60e51b815260040161037c9061140d565b60105460ff161515600103610a0657604051630f48b18160e21b815260040160405180910390fd5b6010805460ff191660019081179091555460408051630e580b2b60e41b815290516001600160a01b039092169163e580b2b09160048082019260009290919082900301818387803b158015610a5a57600080fd5b505af1158015610a6e573d6000803e3d6000fd5b50505050565b600a546001600160a01b03163314610a9e5760405162461bcd60e51b815260040161037c9061140d565b600954610100900460ff1615610ac65760405162461bcd60e51b815260040161037c906113ad565b60105460ff161515600003610aee57604051634e3a0cc160e11b815260040160405180910390fd5b600954601154610b0e916201000090046001600160a01b0316903361110e565b6011546040805133815260208101929092527f0b26a7deabcc23ddb1e7ac0e09f2750788424b50871be8225cd275127f8c610e910160405180910390a1565b600954610100900460ff1615610b755760405162461bcd60e51b815260040161037c906113ad565b600c544211610bc65760405162461bcd60e51b815260206004820152601b60248201527f4c41554e4348504144205354494c4c20494e2050524f47524553530000000000604482015260640161037c565b610bce611147565b60095460ff161515600103610bf55760405162eb1cc760e31b815260040160405180910390fd5b601154600003610c1857604051637a8dd83f60e11b815260040160405180910390fd5b60105460ff161515600103610c4057604051630f48b18160e21b815260040160405180910390fd5b6000610c4b82611272565b9050601154811115610c70576040516373c6a6a760e01b815260040160405180910390fd5b6003546040516323b872dd60e01b8152336004820152306024820152604481018490526000916001600160a01b0316906323b872dd906064016020604051808303816000875af1158015610cc8573d6000803e3d6000fd5b505050506040513d601f19601f82011682018060405250810190610cec919061146e565b905080610d365760405162461bcd60e51b81526020600482015260186024820152774552524f52205452414e53464552494e4720544f4b454e5360401b604482015260640161037c565b601154610d4390836112cb565b601155601254610d53908461125d565b6012556014805460018101825560009182527fce6d7b5282bd9a3661ae061feed1dbda4e52ab073b1f9285be6e155d9c38d4ec0180546001600160a01b0319163390811790915560095460405163a9059cbb60e01b81526004810192909252602482018590526201000090046001600160a01b03169063a9059cbb906044016020604051808303816000875af1158015610df1573d6000803e3d6000fd5b505050506040513d601f19601f82011682018060405250810190610e15919061146e565b3360009081526016602052604081205491925060ff90911615159003610ead5760015460405163c3e5e8b360e01b81523360048201526001600160a01b039091169063c3e5e8b390602401600060405180830381600087803b158015610e7a57600080fd5b505af1158015610e8e573d6000803e3d6000fd5b5050336000908152601660205260409020805460ff1916600117905550505b80610ef55760405162461bcd60e51b81526020600482015260186024820152774552524f52205452414e53464552494e4720544f4b454e5360401b604482015260640161037c565b60408051338152602081018590527fee8a2330a1ede71b41e00a75a09bce5a2708f8be50397e9a146191cb2158eb48910160405180910390a150505050565b6040516323b872dd60e01b81526001600160a01b03828116600483015230602483015260448201849052600091908516906323b872dd906064015b6020604051808303816000875af1158015610f8e573d6000803e3d6000fd5b505050506040513d601f19601f82011682018060405250810190610fb2919061146e565b905080610a6e5760405162461bcd60e51b815260206004820152600f60248201526e1514905394d1915488119052531151608a1b604482015260640161037c565b33600090815260196020526040812054600854811080159061102557503360009081526018602052604090205460ff16155b156110d55733600081815260186020526040808220805460ff191660011790559054905163e9c2e14b60e01b815260048101929092526001600160a01b03169063e9c2e14b90602401600060405180830381600087803b15801561108857600080fd5b505af115801561109c573d6000803e3d6000fd5b50506040513381527f3dab64d173b82cdea212bccb7c499f8f5a25d0cc1a55c9b50875f41b9f1408439250602001905060405180910390a15b6110f6600e546110f0600d54846112d790919063ffffffff16565b906112e3565b336000908152601a6020526040902081905592915050565b60405163a9059cbb60e01b81526001600160a01b038281166004830152602482018490526000919085169063a9059cbb90604401610f6f565b60095460ff16151560010361120a576009805460ff191690556001546040805163e4c94fa160e01b815290516001600160a01b039092169163e4c94fa19160048082019260009290919082900301818387803b1580156111a657600080fd5b505af11580156111ba573d6000803e3d6000fd5b505060095460408051620100009092046001600160a01b031682524260208301527f4f347311bfc24c315aeb5e78922d63e941dd3c0f698bd6ffe105f86dfcd8871c935001905060405180910390a15b60075460ff1615156000036112495760006064600e5460065461122d9190611444565b6112379190611490565b600455506007805460ff191660011790555b60055460000361125b5761125b6112ef565b565b600061126982846113fa565b90505b92915050565b6000806064601354670de0b6b3a764000061128d9190611444565b6112979190611490565b6112a990670de0b6b3a76400006113fa565b905080600554846112ba9190611444565b6112c49190611490565b9392505050565b6000611269828461145b565b60006112698284611444565b60006112698284611490565b600e54600d54670de0b6b3a76400009160009161130d908490611444565b6113179190611490565b6005555050565b6020808252825182820181905260009190848201906040850190845b8181101561135f5783516001600160a01b03168352928401929184019160010161133a565b50909695505050505050565b60006020828403121561137d57600080fd5b5035919050565b60006020828403121561139657600080fd5b81356001600160a01b03811681146112c457600080fd5b6020808252601b908201527f4c41554e43485041442043414e43454c45442042592041444d494e0000000000604082015260600190565b634e487b7160e01b600052601160045260246000fd5b8082018082111561126c5761126c6113e4565b60208082526017908201527f4e4f54204c61756e6368506164204d6f64657261746f72000000000000000000604082015260600190565b808202811582820484141761126c5761126c6113e4565b8181038181111561126c5761126c6113e4565b60006020828403121561148057600080fd5b815180151581146112c457600080fd5b6000826114ad57634e487b7160e01b600052601260045260246000fd5b50049056fea264697066735822122093697a96ced56eb8c7badb442e99b828ee12a8bce5334e9bb0bff160c4bc322364736f6c63430008130033000000000000000000000000a771e1625dd4faa2ff0a41fa119eb9644c9a46c8000000000000000000000000000000000000000000000000000000000000000a00000000000000000000000077a61844d548e8bbd221aeff646fde357006d525000000000000000000000000ece2662b7d6726408c7603e7f1f36bdde3e041d200000000000000000000000000000000000000000000152d02c7e14af6800000000000000000000000000000000000000000000000002a5a058fc295ed00000000000000000000000000000000000000000000000000000000000000000000dc000000000000000000000000a771e1625dd4faa2ff0a41fa119eb9644c9a46c80000000000000000000000000000000000000000000000000000000000000003000000000000000000000000f6331218f26643ad596daa065457bfe5ac1d5ba600000000000000000000000000000000000000000000003635c9adc5dea00000000000000000000000000000b07249740915f17bc869fe50625a046aaeed1616"
        }
      ],
      "isFixedGasLimit": false
    },
    {
      "hash": "0xdc420dad4e7a6a8228963a5841ea22fb09e8319c484071e16ce4a595960f6c1f",
      "transactionType": "CALL",
      "contractName": "IgniteLaunchPadFactory",
      "contractAddress": "0xECE2662b7D6726408C7603e7F1F36bDDE3e041d2",
      "function": "registerLaunchPads(address,address,uint256,uint256,uint256)",
      "arguments": [
        "0xA771E1625DD4FAa2Ff0a41FA119Eb9644c9A46C8",
        "0xC8610Db0D58A4F71a1F2f17cf6AFcb3f659F3d4d",
        "107",
        "1682099954",
        "100000000000000000000000"
      ],
      "rpc": "https://eth-sepolia.g.alchemy.com/v2/d-LIwWZ8hzqmjIPKZ-X-jXIoy-rS9gHa",
      "transaction": {
        "type": "0x02",
        "from": "0xa771e1625dd4faa2ff0a41fa119eb9644c9a46c8",
        "to": "0xece2662b7d6726408c7603e7f1f36bdde3e041d2",
        "gas": "0x2e5a1",
        "value": "0x0",
        "data": "0x2ac54011000000000000000000000000a771e1625dd4faa2ff0a41fa119eb9644c9a46c8000000000000000000000000c8610db0d58a4f71a1f2f17cf6afcb3f659f3d4d000000000000000000000000000000000000000000000000000000000000006b000000000000000000000000000000000000000000000000000000006442cef200000000000000000000000000000000000000000000152d02c7e14af6800000",
        "nonce": "0x194",
        "accessList": []
      },
      "additionalContracts": [],
      "isFixedGasLimit": false
    },
    {
      "hash": "0x17a963977bef8c832029d30b4b3be04339ac19f5cb2456680e3648ff28f27d80",
      "transactionType": "CALL",
      "contractName": "StarDaoToken",
      "contractAddress": "0xC8610Db0D58A4F71a1F2f17cf6AFcb3f659F3d4d",
      "function": "approve(address,uint256):(bool)",
      "arguments": [
        "0xECE2662b7D6726408C7603e7F1F36bDDE3e041d2",
        "100000000000000000000000000000000"
      ],
      "rpc": "https://eth-sepolia.g.alchemy.com/v2/d-LIwWZ8hzqmjIPKZ-X-jXIoy-rS9gHa",
      "transaction": {
        "type": "0x02",
        "from": "0xa771e1625dd4faa2ff0a41fa119eb9644c9a46c8",
        "to": "0xc8610db0d58a4f71a1f2f17cf6afcb3f659f3d4d",
        "gas": "0x108ae",
        "value": "0x0",
        "data": "0x095ea7b3000000000000000000000000ece2662b7d6726408c7603e7f1f36bdde3e041d200000000000000000000000000000000000004ee2d6d415b85acef8100000000",
        "nonce": "0x195",
        "accessList": []
      },
      "additionalContracts": [],
      "isFixedGasLimit": false
    },
    {
      "hash": "0x6915727198dc9cf39d41a1ea383b1f5ed524eda05f354045c9175030d7e42423",
      "transactionType": "CALL",
      "contractName": "IgniteLaunchPadFactory",
      "contractAddress": "0xECE2662b7D6726408C7603e7F1F36bDDE3e041d2",
      "function": "createLaunchPad(uint256,address,string,string,uint256,uint256,uint256,uint256)",
      "arguments": [
        "107",
        "0xC8610Db0D58A4F71a1F2f17cf6AFcb3f659F3d4d",
        "INTERCONNECTED",
        "ITD",
        "100000000000000000000000",
        "200000000000000000000000",
        "320",
        "16"
      ],
      "rpc": "https://eth-sepolia.g.alchemy.com/v2/d-LIwWZ8hzqmjIPKZ-X-jXIoy-rS9gHa",
      "transaction": {
        "type": "0x02",
        "from": "0xa771e1625dd4faa2ff0a41fa119eb9644c9a46c8",
        "to": "0xece2662b7d6726408c7603e7f1f36bdde3e041d2",
        "gas": "0x259021",
        "value": "0x0",
        "data": "0xc71b390e000000000000000000000000000000000000000000000000000000000000006b000000000000000000000000c8610db0d58a4f71a1f2f17cf6afcb3f659f3d4d0000000000000000000000000000000000000000000000000000000000000100000000000000000000000000000000000000000000000000000000000000014000000000000000000000000000000000000000000000152d02c7e14af6800000000000000000000000000000000000000000000000002a5a058fc295ed00000000000000000000000000000000000000000000000000000000000000000001400000000000000000000000000000000000000000000000000000000000000010000000000000000000000000000000000000000000000000000000000000000e494e544552434f4e4e454354454400000000000000000000000000000000000000000000000000000000000000000000000000000000000000000000000000034954440000000000000000000000000000000000000000000000000000000000",
        "nonce": "0x196",
        "accessList": []
      },
      "additionalContracts": [
        {
          "transactionType": "CREATE",
          "address": "0xec58E908ddEe5724fB54bbd1bE2D7d9d0e8b3A88",
          "initCode": "60806040523480156200001157600080fd5b506040516200189438038062001894833981016040819052620000349162000291565b600080546001600160a01b038084166001600160a01b031992831617909255600380549286169290911691909117905560088290556200007c8c8c8c8c8c8c8c8c8c6200008e565b5050505050505050505050506200039c565b6001600160a01b038716620000a257600080fd5b60008511620000b057600080fd5b60008311620000be57600080fd5b8315620001635760008111620001105760405162461bcd60e51b815260206004820152601260248201527150455243454e5441474520544f4f204c4f5760701b60448201526064015b60405180910390fd5b6064811115620001635760405162461bcd60e51b815260206004820152601360248201527f50455243454e5441474520544f4f204849474800000000000000000000000000604482015260640162000107565b620001768989888a8987898b8962000181565b505050505050505050565b600280546001600160a01b0319166001600160a01b038b81169190911790915560068990556009805461ff01600160b01b0319166201000092891692909202919091176001179055600d85905542620001dc84603c62000366565b620001e8919062000386565b600c819055600a80546001600160a01b03199081166001600160a01b0388811691821790935560118690556013859055600180549092168b841617909155604080519182529189166020820152908101919091527f9f48ed7233c22694a09a88b91d83d18bc425120181b6806b665358b9d9e1bb269060600160405180910390a1505050505050505050565b80516001600160a01b03811681146200028c57600080fd5b919050565b6000806000806000806000806000806000806101808d8f031215620002b557600080fd5b620002c08d62000274565b9b5060208d01519a50620002d760408e0162000274565b9950620002e760608e0162000274565b985060808d0151975060a08d0151965060c08d015195506200030c60e08e0162000274565b94506101008d01519350620003256101208e0162000274565b92506101408d015191506200033e6101608e0162000274565b90509295989b509295989b509295989b565b634e487b7160e01b600052601160045260246000fd5b808202811582820484141762000380576200038062000350565b92915050565b8082018082111562000380576200038062000350565b6114e880620003ac6000396000f3fe608060405234801561001057600080fd5b50600436106101585760003560e01c80637ac561e4116100c3578063b997cd351161007c578063b997cd3514610296578063c891e8ed146102a9578063d5baf83f146102b1578063de55ab24146102b9578063efdb14fe146102e2578063fffd788d146102ea57600080fd5b80637ac561e41461021657806382e756921461024257806398b7395114610267578063a43be57b1461026f578063a8d5232714610277578063b7ba1dba1461028e57600080fd5b8063522990c511610115578063522990c5146101b657806360d938dc146101be57806362f6e47b146101d557806363acc38f146101dd5780636990256c146101f057806370e5deb91461020357600080fd5b80632432b8ac1461015d5780632488b0b414610174578063278bacd3146101895780633427b870146101915780633ad970c9146101a65780634be2eb0a146101ae575b600080fd5b600d545b6040519081526020015b60405180910390f35b61017c6102f2565b60405161016b919061131e565b600c54610161565b6101a461019f36600461136b565b610354565b005b6101a461052c565b61017c610676565b6101a46106d6565b60105460ff165b604051901515815260200161016b565b600e54610161565b6101c56101eb36600461136b565b6106fe565b6101a46101fe36600461136b565b6107cc565b6101a461021136600461136b565b610922565b6101c5610224366004611384565b6001600160a01b031660009081526017602052604090205460ff1690565b600a546001600160a01b03165b6040516001600160a01b03909116815260200161016b565b601154610161565b6101a46109b4565b6009546201000090046001600160a01b031661024f565b6101a4610a74565b6101a46102a436600461136b565b610b4d565b600554610161565b601354610161565b6101616102c7366004611384565b6001600160a01b031660009081526019602052604090205490565b601254610161565b600b54610161565b6060600b80548060200260200160405190810160405280929190818152602001828054801561034a57602002820191906000526020600020905b81546001600160a01b0316815260019091019060200180831161032c575b5050505050905090565b600954610100900460ff16156103855760405162461bcd60e51b815260040161037c906113ad565b60405180910390fd5b600c544211156103a857604051632fcad0fb60e11b815260040160405180910390fd5b806000036103c957604051631f4ff1cf60e31b815260040160405180910390fd5b6003546103e0906001600160a01b03168233610f34565b600b805460018101825560009182527f0175b7a638427703f0dbe7bb9bbf987a2551717b34e79f33b5b1008d1fa01db90180546001600160a01b03191633179055600e80548392906104339084906113fa565b909155505033600090815260196020526040812080548392906104579084906113fa565b90915550503360009081526015602052604081205460ff16151590036104ef57600154604051631951d2b560e11b81523360048201526001600160a01b03909116906332a3a56a90602401600060405180830381600087803b1580156104bc57600080fd5b505af11580156104d0573d6000803e3d6000fd5b5050336000908152601560205260409020805460ff1916600117905550505b60408051338152602081018390527fff843de903461a83d80c77649ed36998e537f6fd6969a06f0cef493d208fca7a91015b60405180910390a150565b600954610100900460ff16156105545760405162461bcd60e51b815260040161037c906113ad565b3360009081526017602052604090205460ff16151560010361058957604051630968d3f560e21b815260040160405180910390fd5b3360009081526019602052604081205490036105b85760405163eb7d3ba960e01b815260040160405180910390fd5b600c544210156105db57604051635c81c5cd60e01b815260040160405180910390fd5b60006105e5610ff3565b336000908152601760205260408120805460ff19166001179055600f805492935083929091906106169084906113fa565b9091555050600954610638906201000090046001600160a01b0316823361110e565b610640611147565b60408051338152602081018390527f55b23e34fc96dccffe7f8c501b5273c8d3e15e8cb2d58282ff94e192bd1c1a2b9101610521565b6060601480548060200260200160405190810160405280929190818152602001828054801561034a576020028201919060005260206000209081546001600160a01b0316815260019091019060200180831161032c575050505050905090565b6001546001600160a01b031633146106ed57600080fd5b6009805461ff001916610100179055565b600a546000906001600160a01b0316331461072b5760405162461bcd60e51b815260040161037c9061140d565b600954610100900460ff16156107535760405162461bcd60e51b815260040161037c906113ad565b600c5442111561077657604051630fd6d2b760e41b815260040160405180910390fd5b61078d61078483603c611444565b600c549061125d565b600c55506040518181526001907f2c3957d0010f6725c32be5dd614ebf1d0faa8bc5410ec01585a6c1f63b2c65de9060200160405180910390a1919050565b600a546001600160a01b031633146107f65760405162461bcd60e51b815260040161037c9061140d565b600954610100900460ff161561081e5760405162461bcd60e51b815260040161037c906113ad565b8060000361083f57604051631f4ff1cf60e31b815260040160405180910390fd5b600c5442101561086257604051635c81c5cd60e01b815260040160405180910390fd5b61086a611147565b600454601254600e5461087d91906113fa565b610887919061145b565b8111156108a757604051635097f10f60e01b815260040160405180910390fd5b600454156108d5576003546004546001546108cf926001600160a01b0390811692911661110e565b60006004555b6003546108ec906001600160a01b0316823361110e565b60408051338152602081018390527fca46b9b7c324188c4b8a2b29b9399ac5b3ce27e9e21ad4e53733b7c354cb9ea09101610521565b600954610100900460ff166109835760405162461bcd60e51b815260206004820152602160248201527f4f4e4c5920415641494c41424c45204946205041442049532043414e43454c456044820152601160fa1b606482015260840161037c565b6001546001600160a01b0316331461099a57600080fd5b6003546109b1906001600160a01b0316823361110e565b50565b600a546001600160a01b031633146109de5760405162461bcd60e51b815260040161037c9061140d565b60105460ff161515600103610a0657604051630f48b18160e21b815260040160405180910390fd5b6010805460ff191660019081179091555460408051630e580b2b60e41b815290516001600160a01b039092169163e580b2b09160048082019260009290919082900301818387803b158015610a5a57600080fd5b505af1158015610a6e573d6000803e3d6000fd5b50505050565b600a546001600160a01b03163314610a9e5760405162461bcd60e51b815260040161037c9061140d565b600954610100900460ff1615610ac65760405162461bcd60e51b815260040161037c906113ad565b60105460ff161515600003610aee57604051634e3a0cc160e11b815260040160405180910390fd5b600954601154610b0e916201000090046001600160a01b0316903361110e565b6011546040805133815260208101929092527f0b26a7deabcc23ddb1e7ac0e09f2750788424b50871be8225cd275127f8c610e910160405180910390a1565b600954610100900460ff1615610b755760405162461bcd60e51b815260040161037c906113ad565b600c544211610bc65760405162461bcd60e51b815260206004820152601b60248201527f4c41554e4348504144205354494c4c20494e2050524f47524553530000000000604482015260640161037c565b610bce611147565b60095460ff161515600103610bf55760405162eb1cc760e31b815260040160405180910390fd5b601154600003610c1857604051637a8dd83f60e11b815260040160405180910390fd5b60105460ff161515600103610c4057604051630f48b18160e21b815260040160405180910390fd5b6000610c4b82611272565b9050601154811115610c70576040516373c6a6a760e01b815260040160405180910390fd5b6003546040516323b872dd60e01b8152336004820152306024820152604481018490526000916001600160a01b0316906323b872dd906064016020604051808303816000875af1158015610cc8573d6000803e3d6000fd5b505050506040513d601f19601f82011682018060405250810190610cec919061146e565b905080610d365760405162461bcd60e51b81526020600482015260186024820152774552524f52205452414e53464552494e4720544f4b454e5360401b604482015260640161037c565b601154610d4390836112cb565b601155601254610d53908461125d565b6012556014805460018101825560009182527fce6d7b5282bd9a3661ae061feed1dbda4e52ab073b1f9285be6e155d9c38d4ec0180546001600160a01b0319163390811790915560095460405163a9059cbb60e01b81526004810192909252602482018590526201000090046001600160a01b03169063a9059cbb906044016020604051808303816000875af1158015610df1573d6000803e3d6000fd5b505050506040513d601f19601f82011682018060405250810190610e15919061146e565b3360009081526016602052604081205491925060ff90911615159003610ead5760015460405163c3e5e8b360e01b81523360048201526001600160a01b039091169063c3e5e8b390602401600060405180830381600087803b158015610e7a57600080fd5b505af1158015610e8e573d6000803e3d6000fd5b5050336000908152601660205260409020805460ff1916600117905550505b80610ef55760405162461bcd60e51b81526020600482015260186024820152774552524f52205452414e53464552494e4720544f4b454e5360401b604482015260640161037c565b60408051338152602081018590527fee8a2330a1ede71b41e00a75a09bce5a2708f8be50397e9a146191cb2158eb48910160405180910390a150505050565b6040516323b872dd60e01b81526001600160a01b03828116600483015230602483015260448201849052600091908516906323b872dd906064015b6020604051808303816000875af1158015610f8e573d6000803e3d6000fd5b505050506040513d601f19601f82011682018060405250810190610fb2919061146e565b905080610a6e5760405162461bcd60e51b815260206004820152600f60248201526e1514905394d1915488119052531151608a1b604482015260640161037c565b33600090815260196020526040812054600854811080159061102557503360009081526018602052604090205460ff16155b156110d55733600081815260186020526040808220805460ff191660011790559054905163e9c2e14b60e01b815260048101929092526001600160a01b03169063e9c2e14b90602401600060405180830381600087803b15801561108857600080fd5b505af115801561109c573d6000803e3d6000fd5b50506040513381527f3dab64d173b82cdea212bccb7c499f8f5a25d0cc1a55c9b50875f41b9f1408439250602001905060405180910390a15b6110f6600e546110f0600d54846112d790919063ffffffff16565b906112e3565b336000908152601a6020526040902081905592915050565b60405163a9059cbb60e01b81526001600160a01b038281166004830152602482018490526000919085169063a9059cbb90604401610f6f565b60095460ff16151560010361120a576009805460ff191690556001546040805163e4c94fa160e01b815290516001600160a01b039092169163e4c94fa19160048082019260009290919082900301818387803b1580156111a657600080fd5b505af11580156111ba573d6000803e3d6000fd5b505060095460408051620100009092046001600160a01b031682524260208301527f4f347311bfc24c315aeb5e78922d63e941dd3c0f698bd6ffe105f86dfcd8871c935001905060405180910390a15b60075460ff1615156000036112495760006064600e5460065461122d9190611444565b6112379190611490565b600455506007805460ff191660011790555b60055460000361125b5761125b6112ef565b565b600061126982846113fa565b90505b92915050565b6000806064601354670de0b6b3a764000061128d9190611444565b6112979190611490565b6112a990670de0b6b3a76400006113fa565b905080600554846112ba9190611444565b6112c49190611490565b9392505050565b6000611269828461145b565b60006112698284611444565b60006112698284611490565b600e54600d54670de0b6b3a76400009160009161130d908490611444565b6113179190611490565b6005555050565b6020808252825182820181905260009190848201906040850190845b8181101561135f5783516001600160a01b03168352928401929184019160010161133a565b50909695505050505050565b60006020828403121561137d57600080fd5b5035919050565b60006020828403121561139657600080fd5b81356001600160a01b03811681146112c457600080fd5b6020808252601b908201527f4c41554e43485041442043414e43454c45442042592041444d494e0000000000604082015260600190565b634e487b7160e01b600052601160045260246000fd5b8082018082111561126c5761126c6113e4565b60208082526017908201527f4e4f54204c61756e6368506164204d6f64657261746f72000000000000000000604082015260600190565b808202811582820484141761126c5761126c6113e4565b8181038181111561126c5761126c6113e4565b60006020828403121561148057600080fd5b815180151581146112c457600080fd5b6000826114ad57634e487b7160e01b600052601260045260246000fd5b50049056fea264697066735822122093697a96ced56eb8c7badb442e99b828ee12a8bce5334e9bb0bff160c4bc322364736f6c63430008130033000000000000000000000000a771e1625dd4faa2ff0a41fa119eb9644c9a46c8000000000000000000000000000000000000000000000000000000000000000a000000000000000000000000c8610db0d58a4f71a1f2f17cf6afcb3f659f3d4d000000000000000000000000ece2662b7d6726408c7603e7f1f36bdde3e041d200000000000000000000000000000000000000000000152d02c7e14af6800000000000000000000000000000000000000000000000002a5a058fc295ed0000000000000000000000000000000000000000000000000000000000000000000140000000000000000000000000a771e1625dd4faa2ff0a41fa119eb9644c9a46c80000000000000000000000000000000000000000000000000000000000000010000000000000000000000000f6331218f26643ad596daa065457bfe5ac1d5ba600000000000000000000000000000000000000000000003635c9adc5dea00000000000000000000000000000b07249740915f17bc869fe50625a046aaeed1616"
        }
      ],
      "isFixedGasLimit": false
    },
    {
      "hash": "0xa58dd969d303ddb9eb541307bb62759303fe9de0662a01ba86cc396a7cd39ae7",
      "transactionType": "CALL",
      "contractName": "IgniteLaunchPadFactory",
      "contractAddress": "0xECE2662b7D6726408C7603e7F1F36bDDE3e041d2",
      "function": "registerLaunchPads(address,address,uint256,uint256,uint256)",
      "arguments": [
        "0xA771E1625DD4FAa2Ff0a41FA119Eb9644c9A46C8",
        "0x6E7A13CfD3D35319C91EED0F69822B54055f7D3C",
        "108",
        "1682099954",
        "100000000000000000000000"
      ],
      "rpc": "https://eth-sepolia.g.alchemy.com/v2/d-LIwWZ8hzqmjIPKZ-X-jXIoy-rS9gHa",
      "transaction": {
        "type": "0x02",
        "from": "0xa771e1625dd4faa2ff0a41fa119eb9644c9a46c8",
        "to": "0xece2662b7d6726408c7603e7f1f36bdde3e041d2",
        "gas": "0x2e5a1",
        "value": "0x0",
        "data": "0x2ac54011000000000000000000000000a771e1625dd4faa2ff0a41fa119eb9644c9a46c80000000000000000000000006e7a13cfd3d35319c91eed0f69822b54055f7d3c000000000000000000000000000000000000000000000000000000000000006c000000000000000000000000000000000000000000000000000000006442cef200000000000000000000000000000000000000000000152d02c7e14af6800000",
        "nonce": "0x197",
        "accessList": []
      },
      "additionalContracts": [],
      "isFixedGasLimit": false
    },
    {
      "hash": "0xd3ecb88ed9620895f4779c3716692b71cd607152c889ea77974dedf7bc6c80c0",
      "transactionType": "CALL",
      "contractName": "StarDaoToken",
      "contractAddress": "0x6E7A13CfD3D35319C91EED0F69822B54055f7D3C",
      "function": "approve(address,uint256):(bool)",
      "arguments": [
        "0xECE2662b7D6726408C7603e7F1F36bDDE3e041d2",
        "100000000000000000000000000000000"
      ],
      "rpc": "https://eth-sepolia.g.alchemy.com/v2/d-LIwWZ8hzqmjIPKZ-X-jXIoy-rS9gHa",
      "transaction": {
        "type": "0x02",
        "from": "0xa771e1625dd4faa2ff0a41fa119eb9644c9a46c8",
        "to": "0x6e7a13cfd3d35319c91eed0f69822b54055f7d3c",
        "gas": "0x108ae",
        "value": "0x0",
        "data": "0x095ea7b3000000000000000000000000ece2662b7d6726408c7603e7f1f36bdde3e041d200000000000000000000000000000000000004ee2d6d415b85acef8100000000",
        "nonce": "0x198",
        "accessList": []
      },
      "additionalContracts": [],
      "isFixedGasLimit": false
    },
    {
      "hash": "0x91aa1117d455677228b22c8bf0a7e09c56c5576e67b3d440b39bb8e78f5656f2",
      "transactionType": "CALL",
      "contractName": "IgniteLaunchPadFactory",
      "contractAddress": "0xECE2662b7D6726408C7603e7F1F36bDDE3e041d2",
      "function": "createLaunchPad(uint256,address,string,string,uint256,uint256,uint256,uint256)",
      "arguments": [
        "108",
        "0x6E7A13CfD3D35319C91EED0F69822B54055f7D3C",
        "BRAVE",
        "BRV",
        "100000000000000000000000",
        "200000000000000000000000",
        "120",
        "9"
      ],
      "rpc": "https://eth-sepolia.g.alchemy.com/v2/d-LIwWZ8hzqmjIPKZ-X-jXIoy-rS9gHa",
      "transaction": {
        "type": "0x02",
        "from": "0xa771e1625dd4faa2ff0a41fa119eb9644c9a46c8",
        "to": "0xece2662b7d6726408c7603e7f1f36bdde3e041d2",
        "gas": "0x258f71",
        "value": "0x0",
        "data": "0xc71b390e000000000000000000000000000000000000000000000000000000000000006c0000000000000000000000006e7a13cfd3d35319c91eed0f69822b54055f7d3c0000000000000000000000000000000000000000000000000000000000000100000000000000000000000000000000000000000000000000000000000000014000000000000000000000000000000000000000000000152d02c7e14af6800000000000000000000000000000000000000000000000002a5a058fc295ed000000000000000000000000000000000000000000000000000000000000000000007800000000000000000000000000000000000000000000000000000000000000090000000000000000000000000000000000000000000000000000000000000005425241564500000000000000000000000000000000000000000000000000000000000000000000000000000000000000000000000000000000000000000000034252560000000000000000000000000000000000000000000000000000000000",
        "nonce": "0x199",
        "accessList": []
      },
      "additionalContracts": [
        {
          "transactionType": "CREATE",
          "address": "0xa6BE50F20bD38B71f5A1836756f9a59D6e1BD1Ab",
          "initCode": "60806040523480156200001157600080fd5b506040516200189438038062001894833981016040819052620000349162000291565b600080546001600160a01b038084166001600160a01b031992831617909255600380549286169290911691909117905560088290556200007c8c8c8c8c8c8c8c8c8c6200008e565b5050505050505050505050506200039c565b6001600160a01b038716620000a257600080fd5b60008511620000b057600080fd5b60008311620000be57600080fd5b8315620001635760008111620001105760405162461bcd60e51b815260206004820152601260248201527150455243454e5441474520544f4f204c4f5760701b60448201526064015b60405180910390fd5b6064811115620001635760405162461bcd60e51b815260206004820152601360248201527f50455243454e5441474520544f4f204849474800000000000000000000000000604482015260640162000107565b620001768989888a8987898b8962000181565b505050505050505050565b600280546001600160a01b0319166001600160a01b038b81169190911790915560068990556009805461ff01600160b01b0319166201000092891692909202919091176001179055600d85905542620001dc84603c62000366565b620001e8919062000386565b600c819055600a80546001600160a01b03199081166001600160a01b0388811691821790935560118690556013859055600180549092168b841617909155604080519182529189166020820152908101919091527f9f48ed7233c22694a09a88b91d83d18bc425120181b6806b665358b9d9e1bb269060600160405180910390a1505050505050505050565b80516001600160a01b03811681146200028c57600080fd5b919050565b6000806000806000806000806000806000806101808d8f031215620002b557600080fd5b620002c08d62000274565b9b5060208d01519a50620002d760408e0162000274565b9950620002e760608e0162000274565b985060808d0151975060a08d0151965060c08d015195506200030c60e08e0162000274565b94506101008d01519350620003256101208e0162000274565b92506101408d015191506200033e6101608e0162000274565b90509295989b509295989b509295989b565b634e487b7160e01b600052601160045260246000fd5b808202811582820484141762000380576200038062000350565b92915050565b8082018082111562000380576200038062000350565b6114e880620003ac6000396000f3fe608060405234801561001057600080fd5b50600436106101585760003560e01c80637ac561e4116100c3578063b997cd351161007c578063b997cd3514610296578063c891e8ed146102a9578063d5baf83f146102b1578063de55ab24146102b9578063efdb14fe146102e2578063fffd788d146102ea57600080fd5b80637ac561e41461021657806382e756921461024257806398b7395114610267578063a43be57b1461026f578063a8d5232714610277578063b7ba1dba1461028e57600080fd5b8063522990c511610115578063522990c5146101b657806360d938dc146101be57806362f6e47b146101d557806363acc38f146101dd5780636990256c146101f057806370e5deb91461020357600080fd5b80632432b8ac1461015d5780632488b0b414610174578063278bacd3146101895780633427b870146101915780633ad970c9146101a65780634be2eb0a146101ae575b600080fd5b600d545b6040519081526020015b60405180910390f35b61017c6102f2565b60405161016b919061131e565b600c54610161565b6101a461019f36600461136b565b610354565b005b6101a461052c565b61017c610676565b6101a46106d6565b60105460ff165b604051901515815260200161016b565b600e54610161565b6101c56101eb36600461136b565b6106fe565b6101a46101fe36600461136b565b6107cc565b6101a461021136600461136b565b610922565b6101c5610224366004611384565b6001600160a01b031660009081526017602052604090205460ff1690565b600a546001600160a01b03165b6040516001600160a01b03909116815260200161016b565b601154610161565b6101a46109b4565b6009546201000090046001600160a01b031661024f565b6101a4610a74565b6101a46102a436600461136b565b610b4d565b600554610161565b601354610161565b6101616102c7366004611384565b6001600160a01b031660009081526019602052604090205490565b601254610161565b600b54610161565b6060600b80548060200260200160405190810160405280929190818152602001828054801561034a57602002820191906000526020600020905b81546001600160a01b0316815260019091019060200180831161032c575b5050505050905090565b600954610100900460ff16156103855760405162461bcd60e51b815260040161037c906113ad565b60405180910390fd5b600c544211156103a857604051632fcad0fb60e11b815260040160405180910390fd5b806000036103c957604051631f4ff1cf60e31b815260040160405180910390fd5b6003546103e0906001600160a01b03168233610f34565b600b805460018101825560009182527f0175b7a638427703f0dbe7bb9bbf987a2551717b34e79f33b5b1008d1fa01db90180546001600160a01b03191633179055600e80548392906104339084906113fa565b909155505033600090815260196020526040812080548392906104579084906113fa565b90915550503360009081526015602052604081205460ff16151590036104ef57600154604051631951d2b560e11b81523360048201526001600160a01b03909116906332a3a56a90602401600060405180830381600087803b1580156104bc57600080fd5b505af11580156104d0573d6000803e3d6000fd5b5050336000908152601560205260409020805460ff1916600117905550505b60408051338152602081018390527fff843de903461a83d80c77649ed36998e537f6fd6969a06f0cef493d208fca7a91015b60405180910390a150565b600954610100900460ff16156105545760405162461bcd60e51b815260040161037c906113ad565b3360009081526017602052604090205460ff16151560010361058957604051630968d3f560e21b815260040160405180910390fd5b3360009081526019602052604081205490036105b85760405163eb7d3ba960e01b815260040160405180910390fd5b600c544210156105db57604051635c81c5cd60e01b815260040160405180910390fd5b60006105e5610ff3565b336000908152601760205260408120805460ff19166001179055600f805492935083929091906106169084906113fa565b9091555050600954610638906201000090046001600160a01b0316823361110e565b610640611147565b60408051338152602081018390527f55b23e34fc96dccffe7f8c501b5273c8d3e15e8cb2d58282ff94e192bd1c1a2b9101610521565b6060601480548060200260200160405190810160405280929190818152602001828054801561034a576020028201919060005260206000209081546001600160a01b0316815260019091019060200180831161032c575050505050905090565b6001546001600160a01b031633146106ed57600080fd5b6009805461ff001916610100179055565b600a546000906001600160a01b0316331461072b5760405162461bcd60e51b815260040161037c9061140d565b600954610100900460ff16156107535760405162461bcd60e51b815260040161037c906113ad565b600c5442111561077657604051630fd6d2b760e41b815260040160405180910390fd5b61078d61078483603c611444565b600c549061125d565b600c55506040518181526001907f2c3957d0010f6725c32be5dd614ebf1d0faa8bc5410ec01585a6c1f63b2c65de9060200160405180910390a1919050565b600a546001600160a01b031633146107f65760405162461bcd60e51b815260040161037c9061140d565b600954610100900460ff161561081e5760405162461bcd60e51b815260040161037c906113ad565b8060000361083f57604051631f4ff1cf60e31b815260040160405180910390fd5b600c5442101561086257604051635c81c5cd60e01b815260040160405180910390fd5b61086a611147565b600454601254600e5461087d91906113fa565b610887919061145b565b8111156108a757604051635097f10f60e01b815260040160405180910390fd5b600454156108d5576003546004546001546108cf926001600160a01b0390811692911661110e565b60006004555b6003546108ec906001600160a01b0316823361110e565b60408051338152602081018390527fca46b9b7c324188c4b8a2b29b9399ac5b3ce27e9e21ad4e53733b7c354cb9ea09101610521565b600954610100900460ff166109835760405162461bcd60e51b815260206004820152602160248201527f4f4e4c5920415641494c41424c45204946205041442049532043414e43454c456044820152601160fa1b606482015260840161037c565b6001546001600160a01b0316331461099a57600080fd5b6003546109b1906001600160a01b0316823361110e565b50565b600a546001600160a01b031633146109de5760405162461bcd60e51b815260040161037c9061140d565b60105460ff161515600103610a0657604051630f48b18160e21b815260040160405180910390fd5b6010805460ff191660019081179091555460408051630e580b2b60e41b815290516001600160a01b039092169163e580b2b09160048082019260009290919082900301818387803b158015610a5a57600080fd5b505af1158015610a6e573d6000803e3d6000fd5b50505050565b600a546001600160a01b03163314610a9e5760405162461bcd60e51b815260040161037c9061140d565b600954610100900460ff1615610ac65760405162461bcd60e51b815260040161037c906113ad565b60105460ff161515600003610aee57604051634e3a0cc160e11b815260040160405180910390fd5b600954601154610b0e916201000090046001600160a01b0316903361110e565b6011546040805133815260208101929092527f0b26a7deabcc23ddb1e7ac0e09f2750788424b50871be8225cd275127f8c610e910160405180910390a1565b600954610100900460ff1615610b755760405162461bcd60e51b815260040161037c906113ad565b600c544211610bc65760405162461bcd60e51b815260206004820152601b60248201527f4c41554e4348504144205354494c4c20494e2050524f47524553530000000000604482015260640161037c565b610bce611147565b60095460ff161515600103610bf55760405162eb1cc760e31b815260040160405180910390fd5b601154600003610c1857604051637a8dd83f60e11b815260040160405180910390fd5b60105460ff161515600103610c4057604051630f48b18160e21b815260040160405180910390fd5b6000610c4b82611272565b9050601154811115610c70576040516373c6a6a760e01b815260040160405180910390fd5b6003546040516323b872dd60e01b8152336004820152306024820152604481018490526000916001600160a01b0316906323b872dd906064016020604051808303816000875af1158015610cc8573d6000803e3d6000fd5b505050506040513d601f19601f82011682018060405250810190610cec919061146e565b905080610d365760405162461bcd60e51b81526020600482015260186024820152774552524f52205452414e53464552494e4720544f4b454e5360401b604482015260640161037c565b601154610d4390836112cb565b601155601254610d53908461125d565b6012556014805460018101825560009182527fce6d7b5282bd9a3661ae061feed1dbda4e52ab073b1f9285be6e155d9c38d4ec0180546001600160a01b0319163390811790915560095460405163a9059cbb60e01b81526004810192909252602482018590526201000090046001600160a01b03169063a9059cbb906044016020604051808303816000875af1158015610df1573d6000803e3d6000fd5b505050506040513d601f19601f82011682018060405250810190610e15919061146e565b3360009081526016602052604081205491925060ff90911615159003610ead5760015460405163c3e5e8b360e01b81523360048201526001600160a01b039091169063c3e5e8b390602401600060405180830381600087803b158015610e7a57600080fd5b505af1158015610e8e573d6000803e3d6000fd5b5050336000908152601660205260409020805460ff1916600117905550505b80610ef55760405162461bcd60e51b81526020600482015260186024820152774552524f52205452414e53464552494e4720544f4b454e5360401b604482015260640161037c565b60408051338152602081018590527fee8a2330a1ede71b41e00a75a09bce5a2708f8be50397e9a146191cb2158eb48910160405180910390a150505050565b6040516323b872dd60e01b81526001600160a01b03828116600483015230602483015260448201849052600091908516906323b872dd906064015b6020604051808303816000875af1158015610f8e573d6000803e3d6000fd5b505050506040513d601f19601f82011682018060405250810190610fb2919061146e565b905080610a6e5760405162461bcd60e51b815260206004820152600f60248201526e1514905394d1915488119052531151608a1b604482015260640161037c565b33600090815260196020526040812054600854811080159061102557503360009081526018602052604090205460ff16155b156110d55733600081815260186020526040808220805460ff191660011790559054905163e9c2e14b60e01b815260048101929092526001600160a01b03169063e9c2e14b90602401600060405180830381600087803b15801561108857600080fd5b505af115801561109c573d6000803e3d6000fd5b50506040513381527f3dab64d173b82cdea212bccb7c499f8f5a25d0cc1a55c9b50875f41b9f1408439250602001905060405180910390a15b6110f6600e546110f0600d54846112d790919063ffffffff16565b906112e3565b336000908152601a6020526040902081905592915050565b60405163a9059cbb60e01b81526001600160a01b038281166004830152602482018490526000919085169063a9059cbb90604401610f6f565b60095460ff16151560010361120a576009805460ff191690556001546040805163e4c94fa160e01b815290516001600160a01b039092169163e4c94fa19160048082019260009290919082900301818387803b1580156111a657600080fd5b505af11580156111ba573d6000803e3d6000fd5b505060095460408051620100009092046001600160a01b031682524260208301527f4f347311bfc24c315aeb5e78922d63e941dd3c0f698bd6ffe105f86dfcd8871c935001905060405180910390a15b60075460ff1615156000036112495760006064600e5460065461122d9190611444565b6112379190611490565b600455506007805460ff191660011790555b60055460000361125b5761125b6112ef565b565b600061126982846113fa565b90505b92915050565b6000806064601354670de0b6b3a764000061128d9190611444565b6112979190611490565b6112a990670de0b6b3a76400006113fa565b905080600554846112ba9190611444565b6112c49190611490565b9392505050565b6000611269828461145b565b60006112698284611444565b60006112698284611490565b600e54600d54670de0b6b3a76400009160009161130d908490611444565b6113179190611490565b6005555050565b6020808252825182820181905260009190848201906040850190845b8181101561135f5783516001600160a01b03168352928401929184019160010161133a565b50909695505050505050565b60006020828403121561137d57600080fd5b5035919050565b60006020828403121561139657600080fd5b81356001600160a01b03811681146112c457600080fd5b6020808252601b908201527f4c41554e43485041442043414e43454c45442042592041444d494e0000000000604082015260600190565b634e487b7160e01b600052601160045260246000fd5b8082018082111561126c5761126c6113e4565b60208082526017908201527f4e4f54204c61756e6368506164204d6f64657261746f72000000000000000000604082015260600190565b808202811582820484141761126c5761126c6113e4565b8181038181111561126c5761126c6113e4565b60006020828403121561148057600080fd5b815180151581146112c457600080fd5b6000826114ad57634e487b7160e01b600052601260045260246000fd5b50049056fea264697066735822122093697a96ced56eb8c7badb442e99b828ee12a8bce5334e9bb0bff160c4bc322364736f6c63430008130033000000000000000000000000a771e1625dd4faa2ff0a41fa119eb9644c9a46c8000000000000000000000000000000000000000000000000000000000000000a0000000000000000000000006e7a13cfd3d35319c91eed0f69822b54055f7d3c000000000000000000000000ece2662b7d6726408c7603e7f1f36bdde3e041d200000000000000000000000000000000000000000000152d02c7e14af6800000000000000000000000000000000000000000000000002a5a058fc295ed0000000000000000000000000000000000000000000000000000000000000000000078000000000000000000000000a771e1625dd4faa2ff0a41fa119eb9644c9a46c80000000000000000000000000000000000000000000000000000000000000009000000000000000000000000f6331218f26643ad596daa065457bfe5ac1d5ba600000000000000000000000000000000000000000000003635c9adc5dea00000000000000000000000000000b07249740915f17bc869fe50625a046aaeed1616"
        }
      ],
      "isFixedGasLimit": false
    }
  ],
  "receipts": [
    {
      "transactionHash": "0x2cf8d70886314dc64170ee82cc70e90240ac3ebbab88dd545a7a7e53e0cec25d",
      "transactionIndex": "0x2",
      "blockHash": "0xd504c8f75362830d16d091b9282ab09aab7999ce99e06a605b11c8c0c6ae5d8d",
      "blockNumber": "0x32dee8",
      "from": "0xA771E1625DD4FAa2Ff0a41FA119Eb9644c9A46C8",
      "to": "0xECE2662b7D6726408C7603e7F1F36bDDE3e041d2",
      "cumulativeGasUsed": "0x2bcfe",
      "gasUsed": "0x218ee",
      "contractAddress": null,
      "logs": [
        {
          "address": "0xECE2662b7D6726408C7603e7F1F36bDDE3e041d2",
          "topics": [
            "0xd7ade55009cd5a05f2ecf3ec274889a8e3b3a8ffbad4742dd55e0671de2d9b35"
          ],
          "data": "0x000000000000000000000000f078f89b3cad8bae62da4c15cb2fd1e6a3eb032f0000000000000000000000000000000000000000000000000000000000000065",
          "blockHash": "0xd504c8f75362830d16d091b9282ab09aab7999ce99e06a605b11c8c0c6ae5d8d",
          "blockNumber": "0x32dee8",
          "transactionHash": "0x2cf8d70886314dc64170ee82cc70e90240ac3ebbab88dd545a7a7e53e0cec25d",
          "transactionIndex": "0x2",
          "logIndex": "0x0",
          "removed": false
        }
      ],
      "status": "0x1",
      "logsBloom": "0x00000000000000000000000000000000000000000000000000000000000000000000000000000000000000000000000000000000000000000000000200000000000000000000000000000000000000000000000000000000010000000000000000000000000000000000000000000000000000000000000000000000400000000000000000000000000010000000000000000000000000000000000000000000000000000000000000000000000000000000000000000000000002000000000000000000000000000000000000000000000000000000000000000000000000000000000000000000000000000000000000000000000200000000000000000000",
      "type": "0x2",
      "effectiveGasPrice": "0xb2d05e07"
    },
    {
      "transactionHash": "0x9a4ea63c3f53a69f2269fbe13864c194c1d20e58f5d3eca392a1fb2c92f1e849",
      "transactionIndex": "0x3",
      "blockHash": "0xd504c8f75362830d16d091b9282ab09aab7999ce99e06a605b11c8c0c6ae5d8d",
      "blockNumber": "0x32dee8",
      "from": "0xA771E1625DD4FAa2Ff0a41FA119Eb9644c9A46C8",
      "to": "0xf078f89B3cAD8bAe62DA4C15cb2fD1e6A3eB032F",
      "cumulativeGasUsed": "0x371f9",
      "gasUsed": "0xb4fb",
      "contractAddress": null,
      "logs": [
        {
          "address": "0xf078f89B3cAD8bAe62DA4C15cb2fD1e6A3eB032F",
          "topics": [
            "0x8c5be1e5ebec7d5bd14f71427d1e84f3dd0314c0f7b2291e5b200ac8c7c3b925",
            "0x000000000000000000000000a771e1625dd4faa2ff0a41fa119eb9644c9a46c8",
            "0x000000000000000000000000ece2662b7d6726408c7603e7f1f36bdde3e041d2"
          ],
          "data": "0x00000000000000000000000000000000000004ee2d6d415b85acef8100000000",
          "blockHash": "0xd504c8f75362830d16d091b9282ab09aab7999ce99e06a605b11c8c0c6ae5d8d",
          "blockNumber": "0x32dee8",
          "transactionHash": "0x9a4ea63c3f53a69f2269fbe13864c194c1d20e58f5d3eca392a1fb2c92f1e849",
          "transactionIndex": "0x3",
          "logIndex": "0x1",
          "removed": false
        }
      ],
      "status": "0x1",
      "logsBloom": "0x00000000000100000000000000000000000100000000000000000000000010000000000000000000000000000000000002000000000000000000000000200000000000000000000000000000000000000000000000000000000000000000000000000000000000000000000000000000000000000000000000008000000000000000000000000000000000000000000000000000000000000000000000000000020020000000000000000000000002000000000000000000000000004000000000000000000000000000000000000000000000000000000000800000000000000010000000000000000000000000000000000000000000000000000000000000",
      "type": "0x2",
      "effectiveGasPrice": "0xb2d05e07"
    },
    {
      "transactionHash": "0xf9e2e7dacfb49f163cfb16e652828c8e9f5a54f204b9d4c455cd9abb98852e28",
      "transactionIndex": "0x4",
      "blockHash": "0xd504c8f75362830d16d091b9282ab09aab7999ce99e06a605b11c8c0c6ae5d8d",
      "blockNumber": "0x32dee8",
      "from": "0xA771E1625DD4FAa2Ff0a41FA119Eb9644c9A46C8",
      "to": "0xECE2662b7D6726408C7603e7F1F36bDDE3e041d2",
      "cumulativeGasUsed": "0x1dd849",
      "gasUsed": "0x1a6650",
      "contractAddress": null,
      "logs": [
        {
          "address": "0xFe7AbD1799256bB6d2Db0E752BD952F30F9332d1",
          "topics": [
            "0x9f48ed7233c22694a09a88b91d83d18bc425120181b6806b665358b9d9e1bb26"
          ],
          "data": "0x000000000000000000000000a771e1625dd4faa2ff0a41fa119eb9644c9a46c8000000000000000000000000f078f89b3cad8bae62da4c15cb2fd1e6a3eb032f000000000000000000000000000000000000000000000000000000006442eb70",
          "blockHash": "0xd504c8f75362830d16d091b9282ab09aab7999ce99e06a605b11c8c0c6ae5d8d",
          "blockNumber": "0x32dee8",
          "transactionHash": "0xf9e2e7dacfb49f163cfb16e652828c8e9f5a54f204b9d4c455cd9abb98852e28",
          "transactionIndex": "0x4",
          "logIndex": "0x2",
          "removed": false
        },
        {
          "address": "0xf078f89B3cAD8bAe62DA4C15cb2fD1e6A3eB032F",
          "topics": [
            "0x8c5be1e5ebec7d5bd14f71427d1e84f3dd0314c0f7b2291e5b200ac8c7c3b925",
            "0x000000000000000000000000a771e1625dd4faa2ff0a41fa119eb9644c9a46c8",
            "0x000000000000000000000000ece2662b7d6726408c7603e7f1f36bdde3e041d2"
          ],
          "data": "0x00000000000000000000000000000000000004ee2d6d01d47d554ba01c800000",
          "blockHash": "0xd504c8f75362830d16d091b9282ab09aab7999ce99e06a605b11c8c0c6ae5d8d",
          "blockNumber": "0x32dee8",
          "transactionHash": "0xf9e2e7dacfb49f163cfb16e652828c8e9f5a54f204b9d4c455cd9abb98852e28",
          "transactionIndex": "0x4",
          "logIndex": "0x3",
          "removed": false
        },
        {
          "address": "0xf078f89B3cAD8bAe62DA4C15cb2fD1e6A3eB032F",
          "topics": [
            "0xddf252ad1be2c89b69c2b068fc378daa952ba7f163c4a11628f55a4df523b3ef",
            "0x000000000000000000000000a771e1625dd4faa2ff0a41fa119eb9644c9a46c8",
            "0x000000000000000000000000fe7abd1799256bb6d2db0e752bd952f30f9332d1"
          ],
          "data": "0x000000000000000000000000000000000000000000003f870857a3e0e3800000",
          "blockHash": "0xd504c8f75362830d16d091b9282ab09aab7999ce99e06a605b11c8c0c6ae5d8d",
          "blockNumber": "0x32dee8",
          "transactionHash": "0xf9e2e7dacfb49f163cfb16e652828c8e9f5a54f204b9d4c455cd9abb98852e28",
          "transactionIndex": "0x4",
          "logIndex": "0x4",
          "removed": false
        },
        {
          "address": "0xECE2662b7D6726408C7603e7F1F36bDDE3e041d2",
          "topics": [
            "0x9f48ed7233c22694a09a88b91d83d18bc425120181b6806b665358b9d9e1bb26"
          ],
          "data": "0x000000000000000000000000fe7abd1799256bb6d2db0e752bd952f30f9332d1000000000000000000000000f078f89b3cad8bae62da4c15cb2fd1e6a3eb032f0000000000000000000000000000000000000000000000000000000000000078",
          "blockHash": "0xd504c8f75362830d16d091b9282ab09aab7999ce99e06a605b11c8c0c6ae5d8d",
          "blockNumber": "0x32dee8",
          "transactionHash": "0xf9e2e7dacfb49f163cfb16e652828c8e9f5a54f204b9d4c455cd9abb98852e28",
          "transactionIndex": "0x4",
          "logIndex": "0x5",
          "removed": false
        }
      ],
      "status": "0x1",
      "logsBloom": "0x00000000000100000008000000000000000100000000000000000000100010000000000000000000000000000000000002000000000000000000000200200000000000000010000000200008000000000000000000000000000000100000000000000000000000000000000000000000000000000000000000008010400000000000000000000000000000000000000000000000000000000000000000000000020020000000000000000000000202000000000000080000000002004000000000000002000000080000000000000000000000000000000000800000000000000010008000000000000000000000000000000000000000000000000000000000",
      "type": "0x2",
      "effectiveGasPrice": "0xb2d05e07"
    },
    {
      "transactionHash": "0x48dc36b934b7b2cf92b86e82304a4b08510f723d0f7324394567b79192d37667",
      "transactionIndex": "0x5",
      "blockHash": "0xd504c8f75362830d16d091b9282ab09aab7999ce99e06a605b11c8c0c6ae5d8d",
      "blockNumber": "0x32dee8",
      "from": "0xA771E1625DD4FAa2Ff0a41FA119Eb9644c9A46C8",
      "to": "0xECE2662b7D6726408C7603e7F1F36bDDE3e041d2",
      "cumulativeGasUsed": "0x1ff137",
      "gasUsed": "0x218ee",
      "contractAddress": null,
      "logs": [
        {
          "address": "0xECE2662b7D6726408C7603e7F1F36bDDE3e041d2",
          "topics": [
            "0xd7ade55009cd5a05f2ecf3ec274889a8e3b3a8ffbad4742dd55e0671de2d9b35"
          ],
          "data": "0x0000000000000000000000001f8a1018d1f84749ad4ae3d3711cc98b79e8f9620000000000000000000000000000000000000000000000000000000000000066",
          "blockHash": "0xd504c8f75362830d16d091b9282ab09aab7999ce99e06a605b11c8c0c6ae5d8d",
          "blockNumber": "0x32dee8",
          "transactionHash": "0x48dc36b934b7b2cf92b86e82304a4b08510f723d0f7324394567b79192d37667",
          "transactionIndex": "0x5",
          "logIndex": "0x6",
          "removed": false
        }
      ],
      "status": "0x1",
      "logsBloom": "0x00000000000000000000000000000000000000000000000000000000000000000000000000000000000000000000000000000000000000000000000200000000000000000000000000000000000000000000000000000000010000000000000000000000000000000000000000000000000000000000000000000000400000000000000000000000000010000000000000000000000000000000000000000000000000000000000000000000000000000000000000000000000002000000000000000000000000000000000000000000000000000000000000000000000000000000000000000000000000000000000000000000000200000000000000000000",
      "type": "0x2",
      "effectiveGasPrice": "0xb2d05e07"
    },
    {
      "transactionHash": "0x075f1a4242af4e74424d19e021e8d7171270d8f7dc75dbfc52fe8edba77a4372",
      "transactionIndex": "0x6",
      "blockHash": "0xd504c8f75362830d16d091b9282ab09aab7999ce99e06a605b11c8c0c6ae5d8d",
      "blockNumber": "0x32dee8",
      "from": "0xA771E1625DD4FAa2Ff0a41FA119Eb9644c9A46C8",
      "to": "0x1F8a1018d1f84749aD4aE3d3711Cc98b79E8f962",
      "cumulativeGasUsed": "0x20a632",
      "gasUsed": "0xb4fb",
      "contractAddress": null,
      "logs": [
        {
          "address": "0x1F8a1018d1f84749aD4aE3d3711Cc98b79E8f962",
          "topics": [
            "0x8c5be1e5ebec7d5bd14f71427d1e84f3dd0314c0f7b2291e5b200ac8c7c3b925",
            "0x000000000000000000000000a771e1625dd4faa2ff0a41fa119eb9644c9a46c8",
            "0x000000000000000000000000ece2662b7d6726408c7603e7f1f36bdde3e041d2"
          ],
          "data": "0x00000000000000000000000000000000000004ee2d6d415b85acef8100000000",
          "blockHash": "0xd504c8f75362830d16d091b9282ab09aab7999ce99e06a605b11c8c0c6ae5d8d",
          "blockNumber": "0x32dee8",
          "transactionHash": "0x075f1a4242af4e74424d19e021e8d7171270d8f7dc75dbfc52fe8edba77a4372",
          "transactionIndex": "0x6",
          "logIndex": "0x7",
          "removed": false
        }
      ],
      "status": "0x1",
      "logsBloom": "0x00000000000100000000000000000000000100000000000000400000000010000000000000000000000000000000000000000000000000000000000000200000000000000000000000000000000000000000000000000000000000000000000000000000040000000000000000000000000000000000000000000000000000000000000000000000000000000000000000000000000000000000000000000000020000000000000000000000000002000000000000000000000000004000000000000000000000000000000000000000000000000000000000800000000000000010000000000000000000000080000000000000000000000000000000000000",
      "type": "0x2",
      "effectiveGasPrice": "0xb2d05e07"
    },
    {
      "transactionHash": "0x17589230317ccf01fac7acd5de8c7a138a0981985cb72f9b19ca501e65de4377",
      "transactionIndex": "0x7",
      "blockHash": "0xd504c8f75362830d16d091b9282ab09aab7999ce99e06a605b11c8c0c6ae5d8d",
      "blockNumber": "0x32dee8",
      "from": "0xA771E1625DD4FAa2Ff0a41FA119Eb9644c9A46C8",
      "to": "0xECE2662b7D6726408C7603e7F1F36bDDE3e041d2",
      "cumulativeGasUsed": "0x3a56f6",
      "gasUsed": "0x19b0c4",
      "contractAddress": null,
      "logs": [
        {
          "address": "0x1c51B01336331f886284DD43F75F5A71749fB568",
          "topics": [
            "0x9f48ed7233c22694a09a88b91d83d18bc425120181b6806b665358b9d9e1bb26"
          ],
          "data": "0x000000000000000000000000a771e1625dd4faa2ff0a41fa119eb9644c9a46c80000000000000000000000001f8a1018d1f84749ad4ae3d3711cc98b79e8f9620000000000000000000000000000000000000000000000000000000064438ad0",
          "blockHash": "0xd504c8f75362830d16d091b9282ab09aab7999ce99e06a605b11c8c0c6ae5d8d",
          "blockNumber": "0x32dee8",
          "transactionHash": "0x17589230317ccf01fac7acd5de8c7a138a0981985cb72f9b19ca501e65de4377",
          "transactionIndex": "0x7",
          "logIndex": "0x8",
          "removed": false
        },
        {
          "address": "0x1F8a1018d1f84749aD4aE3d3711Cc98b79E8f962",
          "topics": [
            "0x8c5be1e5ebec7d5bd14f71427d1e84f3dd0314c0f7b2291e5b200ac8c7c3b925",
            "0x000000000000000000000000a771e1625dd4faa2ff0a41fa119eb9644c9a46c8",
            "0x000000000000000000000000ece2662b7d6726408c7603e7f1f36bdde3e041d2"
          ],
          "data": "0x00000000000000000000000000000000000004ee2d6d01d47d554ba01c800000",
          "blockHash": "0xd504c8f75362830d16d091b9282ab09aab7999ce99e06a605b11c8c0c6ae5d8d",
          "blockNumber": "0x32dee8",
          "transactionHash": "0x17589230317ccf01fac7acd5de8c7a138a0981985cb72f9b19ca501e65de4377",
          "transactionIndex": "0x7",
          "logIndex": "0x9",
          "removed": false
        },
        {
          "address": "0x1F8a1018d1f84749aD4aE3d3711Cc98b79E8f962",
          "topics": [
            "0xddf252ad1be2c89b69c2b068fc378daa952ba7f163c4a11628f55a4df523b3ef",
            "0x000000000000000000000000a771e1625dd4faa2ff0a41fa119eb9644c9a46c8",
            "0x0000000000000000000000001c51b01336331f886284dd43f75f5a71749fb568"
          ],
          "data": "0x000000000000000000000000000000000000000000003f870857a3e0e3800000",
          "blockHash": "0xd504c8f75362830d16d091b9282ab09aab7999ce99e06a605b11c8c0c6ae5d8d",
          "blockNumber": "0x32dee8",
          "transactionHash": "0x17589230317ccf01fac7acd5de8c7a138a0981985cb72f9b19ca501e65de4377",
          "transactionIndex": "0x7",
          "logIndex": "0xa",
          "removed": false
        },
        {
          "address": "0xECE2662b7D6726408C7603e7F1F36bDDE3e041d2",
          "topics": [
            "0x9f48ed7233c22694a09a88b91d83d18bc425120181b6806b665358b9d9e1bb26"
          ],
          "data": "0x0000000000000000000000001c51b01336331f886284dd43f75f5a71749fb5680000000000000000000000001f8a1018d1f84749ad4ae3d3711cc98b79e8f9620000000000000000000000000000000000000000000000000000000000000320",
          "blockHash": "0xd504c8f75362830d16d091b9282ab09aab7999ce99e06a605b11c8c0c6ae5d8d",
          "blockNumber": "0x32dee8",
          "transactionHash": "0x17589230317ccf01fac7acd5de8c7a138a0981985cb72f9b19ca501e65de4377",
          "transactionIndex": "0x7",
          "logIndex": "0xb",
          "removed": false
        }
      ],
      "status": "0x1",
      "logsBloom": "0x00000000000100000008000000000000000100000000000000400000000010000000000000008000000000000000000000000000000000000000000200200000000000000010000000000008000000000040000000000000000000000000000000000000040000000000040000000000000000000000000000000010400000000000000000000000000000000000200000000000000000000000000000000000020000000000000000000000000202000000000000000000000002004000000000000003000000000000000000000000000000000000000000800000000000000010080000000000000000000080000000000000000000000000000000000000",
      "type": "0x2",
      "effectiveGasPrice": "0xb2d05e07"
    },
    {
      "transactionHash": "0x5c6ed140c5105908a90120fb793c4bdde06c22b4de60741b01f7dbfeac7aa31b",
      "transactionIndex": "0x8",
      "blockHash": "0xd504c8f75362830d16d091b9282ab09aab7999ce99e06a605b11c8c0c6ae5d8d",
      "blockNumber": "0x32dee8",
      "from": "0xA771E1625DD4FAa2Ff0a41FA119Eb9644c9A46C8",
      "to": "0xECE2662b7D6726408C7603e7F1F36bDDE3e041d2",
      "cumulativeGasUsed": "0x3c6fe4",
      "gasUsed": "0x218ee",
      "contractAddress": null,
      "logs": [
        {
          "address": "0xECE2662b7D6726408C7603e7F1F36bDDE3e041d2",
          "topics": [
            "0xd7ade55009cd5a05f2ecf3ec274889a8e3b3a8ffbad4742dd55e0671de2d9b35"
          ],
          "data": "0x0000000000000000000000004fe39e64cde340aff497d7da0e16f6e60848cdbd0000000000000000000000000000000000000000000000000000000000000067",
          "blockHash": "0xd504c8f75362830d16d091b9282ab09aab7999ce99e06a605b11c8c0c6ae5d8d",
          "blockNumber": "0x32dee8",
          "transactionHash": "0x5c6ed140c5105908a90120fb793c4bdde06c22b4de60741b01f7dbfeac7aa31b",
          "transactionIndex": "0x8",
          "logIndex": "0xc",
          "removed": false
        }
      ],
      "status": "0x1",
      "logsBloom": "0x00000000000000000000000000000000000000000000000000000000000000000000000000000000000000000000000000000000000000000000000200000000000000000000000000000000000000000000000000000000010000000000000000000000000000000000000000000000000000000000000000000000400000000000000000000000000010000000000000000000000000000000000000000000000000000000000000000000000000000000000000000000000002000000000000000000000000000000000000000000000000000000000000000000000000000000000000000000000000000000000000000000000200000000000000000000",
      "type": "0x2",
      "effectiveGasPrice": "0xb2d05e07"
    },
    {
      "transactionHash": "0x25b296775a1d62c1b76e9425fb4114fdf1e9e777a22f9e2fc9badc6dfd0b8ea8",
      "transactionIndex": "0x9",
      "blockHash": "0xd504c8f75362830d16d091b9282ab09aab7999ce99e06a605b11c8c0c6ae5d8d",
      "blockNumber": "0x32dee8",
      "from": "0xA771E1625DD4FAa2Ff0a41FA119Eb9644c9A46C8",
      "to": "0x4fe39e64CdE340AfF497D7da0e16F6E60848cDbd",
      "cumulativeGasUsed": "0x3d24df",
      "gasUsed": "0xb4fb",
      "contractAddress": null,
      "logs": [
        {
          "address": "0x4fe39e64CdE340AfF497D7da0e16F6E60848cDbd",
          "topics": [
            "0x8c5be1e5ebec7d5bd14f71427d1e84f3dd0314c0f7b2291e5b200ac8c7c3b925",
            "0x000000000000000000000000a771e1625dd4faa2ff0a41fa119eb9644c9a46c8",
            "0x000000000000000000000000ece2662b7d6726408c7603e7f1f36bdde3e041d2"
          ],
          "data": "0x00000000000000000000000000000000000004ee2d6d415b85acef8100000000",
          "blockHash": "0xd504c8f75362830d16d091b9282ab09aab7999ce99e06a605b11c8c0c6ae5d8d",
          "blockNumber": "0x32dee8",
          "transactionHash": "0x25b296775a1d62c1b76e9425fb4114fdf1e9e777a22f9e2fc9badc6dfd0b8ea8",
          "transactionIndex": "0x9",
          "logIndex": "0xd",
          "removed": false
        }
      ],
      "status": "0x1",
      "logsBloom": "0x00000000000100004000000000000000000100000000000000000000000010000000000000000000000000000000000000000000000000000000000000200000000000000000000080000000000000000000000000000000000000000000000000000000000000000000000000000000000000000000000000000000000000000000000000000000000000000000000000000000000000000000000000000000020000000000000000000000000002000000000000000000000000004000000000000000000000000000000000000000000000000000000000800800000000000010000000000000000000000000000000000000000000000000000000000000",
      "type": "0x2",
      "effectiveGasPrice": "0xb2d05e07"
    },
    {
      "transactionHash": "0x2b43471358e911981e2757171da38e48ecf7375732b46ed156a4991f4449317e",
      "transactionIndex": "0xa",
      "blockHash": "0xd504c8f75362830d16d091b9282ab09aab7999ce99e06a605b11c8c0c6ae5d8d",
      "blockNumber": "0x32dee8",
      "from": "0xA771E1625DD4FAa2Ff0a41FA119Eb9644c9A46C8",
      "to": "0xECE2662b7D6726408C7603e7F1F36bDDE3e041d2",
      "cumulativeGasUsed": "0x56d597",
      "gasUsed": "0x19b0b8",
      "contractAddress": null,
      "logs": [
        {
          "address": "0xfecA0421ABD4e4E22f680d0cd72191988079bE94",
          "topics": [
            "0x9f48ed7233c22694a09a88b91d83d18bc425120181b6806b665358b9d9e1bb26"
          ],
          "data": "0x000000000000000000000000a771e1625dd4faa2ff0a41fa119eb9644c9a46c80000000000000000000000004fe39e64cde340aff497d7da0e16f6e60848cdbd0000000000000000000000000000000000000000000000000000000064434480",
          "blockHash": "0xd504c8f75362830d16d091b9282ab09aab7999ce99e06a605b11c8c0c6ae5d8d",
          "blockNumber": "0x32dee8",
          "transactionHash": "0x2b43471358e911981e2757171da38e48ecf7375732b46ed156a4991f4449317e",
          "transactionIndex": "0xa",
          "logIndex": "0xe",
          "removed": false
        },
        {
          "address": "0x4fe39e64CdE340AfF497D7da0e16F6E60848cDbd",
          "topics": [
            "0x8c5be1e5ebec7d5bd14f71427d1e84f3dd0314c0f7b2291e5b200ac8c7c3b925",
            "0x000000000000000000000000a771e1625dd4faa2ff0a41fa119eb9644c9a46c8",
            "0x000000000000000000000000ece2662b7d6726408c7603e7f1f36bdde3e041d2"
          ],
          "data": "0x00000000000000000000000000000000000004ee2d6d01d47d554ba01c800000",
          "blockHash": "0xd504c8f75362830d16d091b9282ab09aab7999ce99e06a605b11c8c0c6ae5d8d",
          "blockNumber": "0x32dee8",
          "transactionHash": "0x2b43471358e911981e2757171da38e48ecf7375732b46ed156a4991f4449317e",
          "transactionIndex": "0xa",
          "logIndex": "0xf",
          "removed": false
        },
        {
          "address": "0x4fe39e64CdE340AfF497D7da0e16F6E60848cDbd",
          "topics": [
            "0xddf252ad1be2c89b69c2b068fc378daa952ba7f163c4a11628f55a4df523b3ef",
            "0x000000000000000000000000a771e1625dd4faa2ff0a41fa119eb9644c9a46c8",
            "0x000000000000000000000000feca0421abd4e4e22f680d0cd72191988079be94"
          ],
          "data": "0x000000000000000000000000000000000000000000003f870857a3e0e3800000",
          "blockHash": "0xd504c8f75362830d16d091b9282ab09aab7999ce99e06a605b11c8c0c6ae5d8d",
          "blockNumber": "0x32dee8",
          "transactionHash": "0x2b43471358e911981e2757171da38e48ecf7375732b46ed156a4991f4449317e",
          "transactionIndex": "0xa",
          "logIndex": "0x10",
          "removed": false
        },
        {
          "address": "0xECE2662b7D6726408C7603e7F1F36bDDE3e041d2",
          "topics": [
            "0x9f48ed7233c22694a09a88b91d83d18bc425120181b6806b665358b9d9e1bb26"
          ],
          "data": "0x000000000000000000000000feca0421abd4e4e22f680d0cd72191988079be940000000000000000000000004fe39e64cde340aff497d7da0e16f6e60848cdbd00000000000000000000000000000000000000000000000000000000000001f4",
          "blockHash": "0xd504c8f75362830d16d091b9282ab09aab7999ce99e06a605b11c8c0c6ae5d8d",
          "blockNumber": "0x32dee8",
          "transactionHash": "0x2b43471358e911981e2757171da38e48ecf7375732b46ed156a4991f4449317e",
          "transactionIndex": "0xa",
          "logIndex": "0x11",
          "removed": false
        }
      ],
      "status": "0x1",
      "logsBloom": "0x00000000000100004008000000000000000100000000000000000000000010000000000000000000000000000001000000000000000000000000000200200000000000000010000080000008000000000000000000000000000000000000000000000000000000000000000000000000000000000000000000000010400000000000080000000000000020000000000000000000000000000000000000000000020000000000000000000000000202000000000000000000000402004000000000000002000000000000000000000000000000000000000000800800004000002010000000000000000000000000000000000000000000000000000000000000",
      "type": "0x2",
      "effectiveGasPrice": "0xb2d05e07"
    },
    {
      "transactionHash": "0xa59bad6c9e7113bff36a8c065e2da5cea402591be9cd1f2e34af66f905ccca38",
      "transactionIndex": "0xb",
      "blockHash": "0xd504c8f75362830d16d091b9282ab09aab7999ce99e06a605b11c8c0c6ae5d8d",
      "blockNumber": "0x32dee8",
      "from": "0xA771E1625DD4FAa2Ff0a41FA119Eb9644c9A46C8",
      "to": "0xECE2662b7D6726408C7603e7F1F36bDDE3e041d2",
      "cumulativeGasUsed": "0x58ee85",
      "gasUsed": "0x218ee",
      "contractAddress": null,
      "logs": [
        {
          "address": "0xECE2662b7D6726408C7603e7F1F36bDDE3e041d2",
          "topics": [
            "0xd7ade55009cd5a05f2ecf3ec274889a8e3b3a8ffbad4742dd55e0671de2d9b35"
          ],
          "data": "0x000000000000000000000000358ae5c64bbf71851cf817fe0e4b975594dba78e0000000000000000000000000000000000000000000000000000000000000069",
          "blockHash": "0xd504c8f75362830d16d091b9282ab09aab7999ce99e06a605b11c8c0c6ae5d8d",
          "blockNumber": "0x32dee8",
          "transactionHash": "0xa59bad6c9e7113bff36a8c065e2da5cea402591be9cd1f2e34af66f905ccca38",
          "transactionIndex": "0xb",
          "logIndex": "0x12",
          "removed": false
        }
      ],
      "status": "0x1",
      "logsBloom": "0x00000000000000000000000000000000000000000000000000000000000000000000000000000000000000000000000000000000000000000000000200000000000000000000000000000000000000000000000000000000010000000000000000000000000000000000000000000000000000000000000000000000400000000000000000000000000010000000000000000000000000000000000000000000000000000000000000000000000000000000000000000000000002000000000000000000000000000000000000000000000000000000000000000000000000000000000000000000000000000000000000000000000200000000000000000000",
      "type": "0x2",
      "effectiveGasPrice": "0xb2d05e07"
    },
    {
      "transactionHash": "0x39a7fc9a5f4b708ab55e151253f90c75d168d1df81856711a314aee0d6ecc2bc",
      "transactionIndex": "0xc",
      "blockHash": "0xd504c8f75362830d16d091b9282ab09aab7999ce99e06a605b11c8c0c6ae5d8d",
      "blockNumber": "0x32dee8",
      "from": "0xA771E1625DD4FAa2Ff0a41FA119Eb9644c9A46C8",
      "to": "0x358aE5C64bBF71851Cf817fE0e4b975594DbA78e",
      "cumulativeGasUsed": "0x59a380",
      "gasUsed": "0xb4fb",
      "contractAddress": null,
      "logs": [
        {
          "address": "0x358aE5C64bBF71851Cf817fE0e4b975594DbA78e",
          "topics": [
            "0x8c5be1e5ebec7d5bd14f71427d1e84f3dd0314c0f7b2291e5b200ac8c7c3b925",
            "0x000000000000000000000000a771e1625dd4faa2ff0a41fa119eb9644c9a46c8",
            "0x000000000000000000000000ece2662b7d6726408c7603e7f1f36bdde3e041d2"
          ],
          "data": "0x00000000000000000000000000000000000004ee2d6d415b85acef8100000000",
          "blockHash": "0xd504c8f75362830d16d091b9282ab09aab7999ce99e06a605b11c8c0c6ae5d8d",
          "blockNumber": "0x32dee8",
          "transactionHash": "0x39a7fc9a5f4b708ab55e151253f90c75d168d1df81856711a314aee0d6ecc2bc",
          "transactionIndex": "0xc",
          "logIndex": "0x13",
          "removed": false
        }
      ],
      "status": "0x1",
      "logsBloom": "0x00000000000100000000000000000000000100000000000000000000000010000000000000000000000000000000000000000000000000000000000000200000000000000000000000000000000000000000000000000000000000000000000000000000000000000000000000004020000000000000000000000000000000000000000000000000000000000000000000000000000000000000000000000000024000000000000000000000000002000000000000000000000000004000000000000000000000000000000000000000000000000000000000800000000000000010000000000000000000000000000000000000000000000000000000000000",
      "type": "0x2",
      "effectiveGasPrice": "0xb2d05e07"
    },
    {
      "transactionHash": "0x4be45198224a482509fe7d84913f98390a36b0334f8155126965036a061b6784",
      "transactionIndex": "0xd",
      "blockHash": "0xd504c8f75362830d16d091b9282ab09aab7999ce99e06a605b11c8c0c6ae5d8d",
      "blockNumber": "0x32dee8",
      "from": "0xA771E1625DD4FAa2Ff0a41FA119Eb9644c9A46C8",
      "to": "0xECE2662b7D6726408C7603e7F1F36bDDE3e041d2",
      "cumulativeGasUsed": "0x7353fc",
      "gasUsed": "0x19b07c",
      "contractAddress": null,
      "logs": [
        {
          "address": "0xC2bDF8DCc42D538b89784e8A73a5b24f52dB0962",
          "topics": [
            "0x9f48ed7233c22694a09a88b91d83d18bc425120181b6806b665358b9d9e1bb26"
          ],
          "data": "0x000000000000000000000000a771e1625dd4faa2ff0a41fa119eb9644c9a46c8000000000000000000000000358ae5c64bbf71851cf817fe0e4b975594dba78e000000000000000000000000000000000000000000000000000000006442eb70",
          "blockHash": "0xd504c8f75362830d16d091b9282ab09aab7999ce99e06a605b11c8c0c6ae5d8d",
          "blockNumber": "0x32dee8",
          "transactionHash": "0x4be45198224a482509fe7d84913f98390a36b0334f8155126965036a061b6784",
          "transactionIndex": "0xd",
          "logIndex": "0x14",
          "removed": false
        },
        {
          "address": "0x358aE5C64bBF71851Cf817fE0e4b975594DbA78e",
          "topics": [
            "0x8c5be1e5ebec7d5bd14f71427d1e84f3dd0314c0f7b2291e5b200ac8c7c3b925",
            "0x000000000000000000000000a771e1625dd4faa2ff0a41fa119eb9644c9a46c8",
            "0x000000000000000000000000ece2662b7d6726408c7603e7f1f36bdde3e041d2"
          ],
          "data": "0x00000000000000000000000000000000000004ee2d6d01d47d554ba01c800000",
          "blockHash": "0xd504c8f75362830d16d091b9282ab09aab7999ce99e06a605b11c8c0c6ae5d8d",
          "blockNumber": "0x32dee8",
          "transactionHash": "0x4be45198224a482509fe7d84913f98390a36b0334f8155126965036a061b6784",
          "transactionIndex": "0xd",
          "logIndex": "0x15",
          "removed": false
        },
        {
          "address": "0x358aE5C64bBF71851Cf817fE0e4b975594DbA78e",
          "topics": [
            "0xddf252ad1be2c89b69c2b068fc378daa952ba7f163c4a11628f55a4df523b3ef",
            "0x000000000000000000000000a771e1625dd4faa2ff0a41fa119eb9644c9a46c8",
            "0x000000000000000000000000c2bdf8dcc42d538b89784e8a73a5b24f52db0962"
          ],
          "data": "0x000000000000000000000000000000000000000000003f870857a3e0e3800000",
          "blockHash": "0xd504c8f75362830d16d091b9282ab09aab7999ce99e06a605b11c8c0c6ae5d8d",
          "blockNumber": "0x32dee8",
          "transactionHash": "0x4be45198224a482509fe7d84913f98390a36b0334f8155126965036a061b6784",
          "transactionIndex": "0xd",
          "logIndex": "0x16",
          "removed": false
        },
        {
          "address": "0xECE2662b7D6726408C7603e7F1F36bDDE3e041d2",
          "topics": [
            "0x9f48ed7233c22694a09a88b91d83d18bc425120181b6806b665358b9d9e1bb26"
          ],
          "data": "0x000000000000000000000000c2bdf8dcc42d538b89784e8a73a5b24f52db0962000000000000000000000000358ae5c64bbf71851cf817fe0e4b975594dba78e0000000000000000000000000000000000000000000000000000000000000078",
          "blockHash": "0xd504c8f75362830d16d091b9282ab09aab7999ce99e06a605b11c8c0c6ae5d8d",
          "blockNumber": "0x32dee8",
          "transactionHash": "0x4be45198224a482509fe7d84913f98390a36b0334f8155126965036a061b6784",
          "transactionIndex": "0xd",
          "logIndex": "0x17",
          "removed": false
        }
      ],
      "status": "0x1",
      "logsBloom": "0x00000000000100000008000000000000000100000000000000000000000010000000004000000000000000000000000000000000000000000000000200200000000000000010000000000008000000000000000000000000000000000000000000000000000000000000000000004020000000000000000000000010400000060000000000000002000000000000000000001000000000000000000200000000024000000000000000000000000202000000000000000000000002004000000000000002000000000000000000000000000000000000000000800000000000000010000000000000000000000000000000000000000000000000000000000000",
      "type": "0x2",
      "effectiveGasPrice": "0xb2d05e07"
    },
    {
      "transactionHash": "0xee94133b121e6966256f7315bcb30900812d60e3a018f7bb1f5bebf5e7280632",
      "transactionIndex": "0xe",
      "blockHash": "0xd504c8f75362830d16d091b9282ab09aab7999ce99e06a605b11c8c0c6ae5d8d",
      "blockNumber": "0x32dee8",
      "from": "0xA771E1625DD4FAa2Ff0a41FA119Eb9644c9A46C8",
      "to": "0xECE2662b7D6726408C7603e7F1F36bDDE3e041d2",
      "cumulativeGasUsed": "0x756cea",
      "gasUsed": "0x218ee",
      "contractAddress": null,
      "logs": [
        {
          "address": "0xECE2662b7D6726408C7603e7F1F36bDDE3e041d2",
          "topics": [
            "0xd7ade55009cd5a05f2ecf3ec274889a8e3b3a8ffbad4742dd55e0671de2d9b35"
          ],
          "data": "0x00000000000000000000000077a61844d548e8bbd221aeff646fde357006d525000000000000000000000000000000000000000000000000000000000000006a",
          "blockHash": "0xd504c8f75362830d16d091b9282ab09aab7999ce99e06a605b11c8c0c6ae5d8d",
          "blockNumber": "0x32dee8",
          "transactionHash": "0xee94133b121e6966256f7315bcb30900812d60e3a018f7bb1f5bebf5e7280632",
          "transactionIndex": "0xe",
          "logIndex": "0x18",
          "removed": false
        }
      ],
      "status": "0x1",
      "logsBloom": "0x00000000000000000000000000000000000000000000000000000000000000000000000000000000000000000000000000000000000000000000000200000000000000000000000000000000000000000000000000000000010000000000000000000000000000000000000000000000000000000000000000000000400000000000000000000000000010000000000000000000000000000000000000000000000000000000000000000000000000000000000000000000000002000000000000000000000000000000000000000000000000000000000000000000000000000000000000000000000000000000000000000000000200000000000000000000",
      "type": "0x2",
      "effectiveGasPrice": "0xb2d05e07"
    },
    {
      "transactionHash": "0xa2c31f156a28b000cc6b30f6b4a28d04d6a79848976a39d6f51cf829aa24491d",
      "transactionIndex": "0xf",
      "blockHash": "0xd504c8f75362830d16d091b9282ab09aab7999ce99e06a605b11c8c0c6ae5d8d",
      "blockNumber": "0x32dee8",
      "from": "0xA771E1625DD4FAa2Ff0a41FA119Eb9644c9A46C8",
      "to": "0x77A61844D548E8bbD221AEff646fde357006d525",
      "cumulativeGasUsed": "0x7621e5",
      "gasUsed": "0xb4fb",
      "contractAddress": null,
      "logs": [
        {
          "address": "0x77A61844D548E8bbD221AEff646fde357006d525",
          "topics": [
            "0x8c5be1e5ebec7d5bd14f71427d1e84f3dd0314c0f7b2291e5b200ac8c7c3b925",
            "0x000000000000000000000000a771e1625dd4faa2ff0a41fa119eb9644c9a46c8",
            "0x000000000000000000000000ece2662b7d6726408c7603e7f1f36bdde3e041d2"
          ],
          "data": "0x00000000000000000000000000000000000004ee2d6d415b85acef8100000000",
          "blockHash": "0xd504c8f75362830d16d091b9282ab09aab7999ce99e06a605b11c8c0c6ae5d8d",
          "blockNumber": "0x32dee8",
          "transactionHash": "0xa2c31f156a28b000cc6b30f6b4a28d04d6a79848976a39d6f51cf829aa24491d",
          "transactionIndex": "0xf",
          "logIndex": "0x19",
          "removed": false
        }
      ],
      "status": "0x1",
      "logsBloom": "0x00000000000100000000000000000000000100000000000000000000000010000000000000000000000000000000000000000000000000000000000000200000000000000000000000000000000000000000000000000000000000000000000000000000000000000000000000000000000000000000000000000000000000000000000000000000000000000000000000000000000000000000000000000000020000040000000000000000000002000000000000000000000000004000000000000000000000000000000000000000000000000008000000800000000000000010000000000000000000000000000000000080000000000000000000000000",
      "type": "0x2",
      "effectiveGasPrice": "0xb2d05e07"
    },
    {
      "transactionHash": "0x990226528661a0c16efd650ad2f9ee17380eb3230c4475bbc6235eea0e185407",
      "transactionIndex": "0x10",
      "blockHash": "0xd504c8f75362830d16d091b9282ab09aab7999ce99e06a605b11c8c0c6ae5d8d",
      "blockNumber": "0x32dee8",
      "from": "0xA771E1625DD4FAa2Ff0a41FA119Eb9644c9A46C8",
      "to": "0xECE2662b7D6726408C7603e7F1F36bDDE3e041d2",
      "cumulativeGasUsed": "0x8fd279",
      "gasUsed": "0x19b094",
      "contractAddress": null,
      "logs": [
        {
          "address": "0xe146c2E3aa174db7F8E88f1191eeaB0C4a84D983",
          "topics": [
            "0x9f48ed7233c22694a09a88b91d83d18bc425120181b6806b665358b9d9e1bb26"
          ],
          "data": "0x000000000000000000000000a771e1625dd4faa2ff0a41fa119eb9644c9a46c800000000000000000000000077a61844d548e8bbd221aeff646fde357006d52500000000000000000000000000000000000000000000000000000000644302e0",
          "blockHash": "0xd504c8f75362830d16d091b9282ab09aab7999ce99e06a605b11c8c0c6ae5d8d",
          "blockNumber": "0x32dee8",
          "transactionHash": "0x990226528661a0c16efd650ad2f9ee17380eb3230c4475bbc6235eea0e185407",
          "transactionIndex": "0x10",
          "logIndex": "0x1a",
          "removed": false
        },
        {
          "address": "0x77A61844D548E8bbD221AEff646fde357006d525",
          "topics": [
            "0x8c5be1e5ebec7d5bd14f71427d1e84f3dd0314c0f7b2291e5b200ac8c7c3b925",
            "0x000000000000000000000000a771e1625dd4faa2ff0a41fa119eb9644c9a46c8",
            "0x000000000000000000000000ece2662b7d6726408c7603e7f1f36bdde3e041d2"
          ],
          "data": "0x00000000000000000000000000000000000004ee2d6d01d47d554ba01c800000",
          "blockHash": "0xd504c8f75362830d16d091b9282ab09aab7999ce99e06a605b11c8c0c6ae5d8d",
          "blockNumber": "0x32dee8",
          "transactionHash": "0x990226528661a0c16efd650ad2f9ee17380eb3230c4475bbc6235eea0e185407",
          "transactionIndex": "0x10",
          "logIndex": "0x1b",
          "removed": false
        },
        {
          "address": "0x77A61844D548E8bbD221AEff646fde357006d525",
          "topics": [
            "0xddf252ad1be2c89b69c2b068fc378daa952ba7f163c4a11628f55a4df523b3ef",
            "0x000000000000000000000000a771e1625dd4faa2ff0a41fa119eb9644c9a46c8",
            "0x000000000000000000000000e146c2e3aa174db7f8e88f1191eeab0c4a84d983"
          ],
          "data": "0x000000000000000000000000000000000000000000003f870857a3e0e3800000",
          "blockHash": "0xd504c8f75362830d16d091b9282ab09aab7999ce99e06a605b11c8c0c6ae5d8d",
          "blockNumber": "0x32dee8",
          "transactionHash": "0x990226528661a0c16efd650ad2f9ee17380eb3230c4475bbc6235eea0e185407",
          "transactionIndex": "0x10",
          "logIndex": "0x1c",
          "removed": false
        },
        {
          "address": "0xECE2662b7D6726408C7603e7F1F36bDDE3e041d2",
          "topics": [
            "0x9f48ed7233c22694a09a88b91d83d18bc425120181b6806b665358b9d9e1bb26"
          ],
          "data": "0x000000000000000000000000e146c2e3aa174db7f8e88f1191eeab0c4a84d98300000000000000000000000077a61844d548e8bbd221aeff646fde357006d52500000000000000000000000000000000000000000000000000000000000000dc",
          "blockHash": "0xd504c8f75362830d16d091b9282ab09aab7999ce99e06a605b11c8c0c6ae5d8d",
          "blockNumber": "0x32dee8",
          "transactionHash": "0x990226528661a0c16efd650ad2f9ee17380eb3230c4475bbc6235eea0e185407",
          "transactionIndex": "0x10",
          "logIndex": "0x1d",
          "removed": false
        }
      ],
      "status": "0x1",
      "logsBloom": "0x00000000000100000008000000000000000100000000000000000000000110000000000000000000000000000000000000000000200000000000000200200000000000000010000000000008000000000000000000000000000000000000000000000000000000000000000000000000100000000000000000000010400000010000000000000000000000000000000000000000000000000000000000000000020000040000000000000000000202000000000000000000000002004000000000000002000000000000000000000000000000000008000000800000000000000010000400000000000000000000000000000080000000000000000000000000",
      "type": "0x2",
      "effectiveGasPrice": "0xb2d05e07"
    },
    {
      "transactionHash": "0xdc420dad4e7a6a8228963a5841ea22fb09e8319c484071e16ce4a595960f6c1f",
      "transactionIndex": "0x11",
      "blockHash": "0xd504c8f75362830d16d091b9282ab09aab7999ce99e06a605b11c8c0c6ae5d8d",
      "blockNumber": "0x32dee8",
      "from": "0xA771E1625DD4FAa2Ff0a41FA119Eb9644c9A46C8",
      "to": "0xECE2662b7D6726408C7603e7F1F36bDDE3e041d2",
      "cumulativeGasUsed": "0x91eb67",
      "gasUsed": "0x218ee",
      "contractAddress": null,
      "logs": [
        {
          "address": "0xECE2662b7D6726408C7603e7F1F36bDDE3e041d2",
          "topics": [
            "0xd7ade55009cd5a05f2ecf3ec274889a8e3b3a8ffbad4742dd55e0671de2d9b35"
          ],
          "data": "0x000000000000000000000000c8610db0d58a4f71a1f2f17cf6afcb3f659f3d4d000000000000000000000000000000000000000000000000000000000000006b",
          "blockHash": "0xd504c8f75362830d16d091b9282ab09aab7999ce99e06a605b11c8c0c6ae5d8d",
          "blockNumber": "0x32dee8",
          "transactionHash": "0xdc420dad4e7a6a8228963a5841ea22fb09e8319c484071e16ce4a595960f6c1f",
          "transactionIndex": "0x11",
          "logIndex": "0x1e",
          "removed": false
        }
      ],
      "status": "0x1",
      "logsBloom": "0x00000000000000000000000000000000000000000000000000000000000000000000000000000000000000000000000000000000000000000000000200000000000000000000000000000000000000000000000000000000010000000000000000000000000000000000000000000000000000000000000000000000400000000000000000000000000010000000000000000000000000000000000000000000000000000000000000000000000000000000000000000000000002000000000000000000000000000000000000000000000000000000000000000000000000000000000000000000000000000000000000000000000200000000000000000000",
      "type": "0x2",
      "effectiveGasPrice": "0xb2d05e07"
    },
    {
      "transactionHash": "0x17a963977bef8c832029d30b4b3be04339ac19f5cb2456680e3648ff28f27d80",
      "transactionIndex": "0x12",
      "blockHash": "0xd504c8f75362830d16d091b9282ab09aab7999ce99e06a605b11c8c0c6ae5d8d",
      "blockNumber": "0x32dee8",
      "from": "0xA771E1625DD4FAa2Ff0a41FA119Eb9644c9A46C8",
      "to": "0xC8610Db0D58A4F71a1F2f17cf6AFcb3f659F3d4d",
      "cumulativeGasUsed": "0x92a062",
      "gasUsed": "0xb4fb",
      "contractAddress": null,
      "logs": [
        {
          "address": "0xC8610Db0D58A4F71a1F2f17cf6AFcb3f659F3d4d",
          "topics": [
            "0x8c5be1e5ebec7d5bd14f71427d1e84f3dd0314c0f7b2291e5b200ac8c7c3b925",
            "0x000000000000000000000000a771e1625dd4faa2ff0a41fa119eb9644c9a46c8",
            "0x000000000000000000000000ece2662b7d6726408c7603e7f1f36bdde3e041d2"
          ],
          "data": "0x00000000000000000000000000000000000004ee2d6d415b85acef8100000000",
          "blockHash": "0xd504c8f75362830d16d091b9282ab09aab7999ce99e06a605b11c8c0c6ae5d8d",
          "blockNumber": "0x32dee8",
          "transactionHash": "0x17a963977bef8c832029d30b4b3be04339ac19f5cb2456680e3648ff28f27d80",
          "transactionIndex": "0x12",
          "logIndex": "0x1f",
          "removed": false
        }
      ],
      "status": "0x1",
      "logsBloom": "0x00000000000100000000800000000000000100000000000000000000000010000000000000000000000000000000000000000000000000000000000000200000000000000000000000000000000000000000000000000000000000000000000000000000000000000000080000000000000000000000000000004000000000000000000000000000000000000000000000000000000000000000000000000000020000000000000000000000000002000000000000000000000000004000000000000000000000000000000000000000000000000000000000800000000000000010000000000000000000000000000000000000000000000000000000000000",
      "type": "0x2",
      "effectiveGasPrice": "0xb2d05e07"
    },
    {
      "transactionHash": "0x6915727198dc9cf39d41a1ea383b1f5ed524eda05f354045c9175030d7e42423",
      "transactionIndex": "0x13",
      "blockHash": "0xd504c8f75362830d16d091b9282ab09aab7999ce99e06a605b11c8c0c6ae5d8d",
      "blockNumber": "0x32dee8",
      "from": "0xA771E1625DD4FAa2Ff0a41FA119Eb9644c9A46C8",
      "to": "0xECE2662b7D6726408C7603e7F1F36bDDE3e041d2",
      "cumulativeGasUsed": "0xac5126",
      "gasUsed": "0x19b0c4",
      "contractAddress": null,
      "logs": [
        {
          "address": "0xec58E908ddEe5724fB54bbd1bE2D7d9d0e8b3A88",
          "topics": [
            "0x9f48ed7233c22694a09a88b91d83d18bc425120181b6806b665358b9d9e1bb26"
          ],
          "data": "0x000000000000000000000000a771e1625dd4faa2ff0a41fa119eb9644c9a46c8000000000000000000000000c8610db0d58a4f71a1f2f17cf6afcb3f659f3d4d0000000000000000000000000000000000000000000000000000000064431a50",
          "blockHash": "0xd504c8f75362830d16d091b9282ab09aab7999ce99e06a605b11c8c0c6ae5d8d",
          "blockNumber": "0x32dee8",
          "transactionHash": "0x6915727198dc9cf39d41a1ea383b1f5ed524eda05f354045c9175030d7e42423",
          "transactionIndex": "0x13",
          "logIndex": "0x20",
          "removed": false
        },
        {
          "address": "0xC8610Db0D58A4F71a1F2f17cf6AFcb3f659F3d4d",
          "topics": [
            "0x8c5be1e5ebec7d5bd14f71427d1e84f3dd0314c0f7b2291e5b200ac8c7c3b925",
            "0x000000000000000000000000a771e1625dd4faa2ff0a41fa119eb9644c9a46c8",
            "0x000000000000000000000000ece2662b7d6726408c7603e7f1f36bdde3e041d2"
          ],
          "data": "0x00000000000000000000000000000000000004ee2d6d01d47d554ba01c800000",
          "blockHash": "0xd504c8f75362830d16d091b9282ab09aab7999ce99e06a605b11c8c0c6ae5d8d",
          "blockNumber": "0x32dee8",
          "transactionHash": "0x6915727198dc9cf39d41a1ea383b1f5ed524eda05f354045c9175030d7e42423",
          "transactionIndex": "0x13",
          "logIndex": "0x21",
          "removed": false
        },
        {
          "address": "0xC8610Db0D58A4F71a1F2f17cf6AFcb3f659F3d4d",
          "topics": [
            "0xddf252ad1be2c89b69c2b068fc378daa952ba7f163c4a11628f55a4df523b3ef",
            "0x000000000000000000000000a771e1625dd4faa2ff0a41fa119eb9644c9a46c8",
            "0x000000000000000000000000ec58e908ddee5724fb54bbd1be2d7d9d0e8b3a88"
          ],
          "data": "0x000000000000000000000000000000000000000000003f870857a3e0e3800000",
          "blockHash": "0xd504c8f75362830d16d091b9282ab09aab7999ce99e06a605b11c8c0c6ae5d8d",
          "blockNumber": "0x32dee8",
          "transactionHash": "0x6915727198dc9cf39d41a1ea383b1f5ed524eda05f354045c9175030d7e42423",
          "transactionIndex": "0x13",
          "logIndex": "0x22",
          "removed": false
        },
        {
          "address": "0xECE2662b7D6726408C7603e7F1F36bDDE3e041d2",
          "topics": [
            "0x9f48ed7233c22694a09a88b91d83d18bc425120181b6806b665358b9d9e1bb26"
          ],
          "data": "0x000000000000000000000000ec58e908ddee5724fb54bbd1be2d7d9d0e8b3a88000000000000000000000000c8610db0d58a4f71a1f2f17cf6afcb3f659f3d4d0000000000000000000000000000000000000000000000000000000000000140",
          "blockHash": "0xd504c8f75362830d16d091b9282ab09aab7999ce99e06a605b11c8c0c6ae5d8d",
          "blockNumber": "0x32dee8",
          "transactionHash": "0x6915727198dc9cf39d41a1ea383b1f5ed524eda05f354045c9175030d7e42423",
          "transactionIndex": "0x13",
          "logIndex": "0x23",
          "removed": false
        }
      ],
      "status": "0x1",
      "logsBloom": "0x00000000000100000008800000000000000100000000000000000000001010000000000000000000000000000000000000000000000000000000000200200000000000001010000000000008000000000000000000000000000000000000000000000000000080000000080000000000000000000000000000004010400000000000000000000000000000000000000000000000000000000000000000000000020000000000000000000000000202000000000000000000000002004000000000000002000000000000000002000000000000000000000000800000000000000010000000000000000000000002000000020000000000000000000000000000",
      "type": "0x2",
      "effectiveGasPrice": "0xb2d05e07"
    },
    {
      "transactionHash": "0xa58dd969d303ddb9eb541307bb62759303fe9de0662a01ba86cc396a7cd39ae7",
      "transactionIndex": "0x14",
      "blockHash": "0xd504c8f75362830d16d091b9282ab09aab7999ce99e06a605b11c8c0c6ae5d8d",
      "blockNumber": "0x32dee8",
      "from": "0xA771E1625DD4FAa2Ff0a41FA119Eb9644c9A46C8",
      "to": "0xECE2662b7D6726408C7603e7F1F36bDDE3e041d2",
      "cumulativeGasUsed": "0xae6a14",
      "gasUsed": "0x218ee",
      "contractAddress": null,
      "logs": [
        {
          "address": "0xECE2662b7D6726408C7603e7F1F36bDDE3e041d2",
          "topics": [
            "0xd7ade55009cd5a05f2ecf3ec274889a8e3b3a8ffbad4742dd55e0671de2d9b35"
          ],
          "data": "0x0000000000000000000000006e7a13cfd3d35319c91eed0f69822b54055f7d3c000000000000000000000000000000000000000000000000000000000000006c",
          "blockHash": "0xd504c8f75362830d16d091b9282ab09aab7999ce99e06a605b11c8c0c6ae5d8d",
          "blockNumber": "0x32dee8",
          "transactionHash": "0xa58dd969d303ddb9eb541307bb62759303fe9de0662a01ba86cc396a7cd39ae7",
          "transactionIndex": "0x14",
          "logIndex": "0x24",
          "removed": false
        }
      ],
      "status": "0x1",
      "logsBloom": "0x00000000000000000000000000000000000000000000000000000000000000000000000000000000000000000000000000000000000000000000000200000000000000000000000000000000000000000000000000000000010000000000000000000000000000000000000000000000000000000000000000000000400000000000000000000000000010000000000000000000000000000000000000000000000000000000000000000000000000000000000000000000000002000000000000000000000000000000000000000000000000000000000000000000000000000000000000000000000000000000000000000000000200000000000000000000",
      "type": "0x2",
      "effectiveGasPrice": "0xb2d05e07"
    },
    {
      "transactionHash": "0xd3ecb88ed9620895f4779c3716692b71cd607152c889ea77974dedf7bc6c80c0",
      "transactionIndex": "0x15",
      "blockHash": "0xd504c8f75362830d16d091b9282ab09aab7999ce99e06a605b11c8c0c6ae5d8d",
      "blockNumber": "0x32dee8",
      "from": "0xA771E1625DD4FAa2Ff0a41FA119Eb9644c9A46C8",
      "to": "0x6E7A13CfD3D35319C91EED0F69822B54055f7D3C",
      "cumulativeGasUsed": "0xaf1f0f",
      "gasUsed": "0xb4fb",
      "contractAddress": null,
      "logs": [
        {
          "address": "0x6E7A13CfD3D35319C91EED0F69822B54055f7D3C",
          "topics": [
            "0x8c5be1e5ebec7d5bd14f71427d1e84f3dd0314c0f7b2291e5b200ac8c7c3b925",
            "0x000000000000000000000000a771e1625dd4faa2ff0a41fa119eb9644c9a46c8",
            "0x000000000000000000000000ece2662b7d6726408c7603e7f1f36bdde3e041d2"
          ],
          "data": "0x00000000000000000000000000000000000004ee2d6d415b85acef8100000000",
          "blockHash": "0xd504c8f75362830d16d091b9282ab09aab7999ce99e06a605b11c8c0c6ae5d8d",
          "blockNumber": "0x32dee8",
          "transactionHash": "0xd3ecb88ed9620895f4779c3716692b71cd607152c889ea77974dedf7bc6c80c0",
          "transactionIndex": "0x15",
          "logIndex": "0x25",
          "removed": false
        }
      ],
      "status": "0x1",
      "logsBloom": "0x00000000000100000000000000000000000100000000000000000000000010000000000000000000000000000000000000000000000000000000000000200000000000000000000000000000000000000000000000000000000000000000000000000000000000000000000000000000000000000000000000000000000000000000000000000000000000000000000000000000000000000000000000000000020000000000000000000000000002000000000020000000000000004000000000010000000400000000000000000000000000000000000000800000000000000010000000000000000000000000000000000000000000000000000000000000",
      "type": "0x2",
      "effectiveGasPrice": "0xb2d05e07"
    },
    {
      "transactionHash": "0x91aa1117d455677228b22c8bf0a7e09c56c5576e67b3d440b39bb8e78f5656f2",
      "transactionIndex": "0x16",
      "blockHash": "0xd504c8f75362830d16d091b9282ab09aab7999ce99e06a605b11c8c0c6ae5d8d",
      "blockNumber": "0x32dee8",
      "from": "0xA771E1625DD4FAa2Ff0a41FA119Eb9644c9A46C8",
      "to": "0xECE2662b7D6726408C7603e7F1F36bDDE3e041d2",
      "cumulativeGasUsed": "0xc8cf5b",
      "gasUsed": "0x19b04c",
      "contractAddress": null,
      "logs": [
        {
          "address": "0xa6BE50F20bD38B71f5A1836756f9a59D6e1BD1Ab",
          "topics": [
            "0x9f48ed7233c22694a09a88b91d83d18bc425120181b6806b665358b9d9e1bb26"
          ],
          "data": "0x000000000000000000000000a771e1625dd4faa2ff0a41fa119eb9644c9a46c80000000000000000000000006e7a13cfd3d35319c91eed0f69822b54055f7d3c000000000000000000000000000000000000000000000000000000006442eb70",
          "blockHash": "0xd504c8f75362830d16d091b9282ab09aab7999ce99e06a605b11c8c0c6ae5d8d",
          "blockNumber": "0x32dee8",
          "transactionHash": "0x91aa1117d455677228b22c8bf0a7e09c56c5576e67b3d440b39bb8e78f5656f2",
          "transactionIndex": "0x16",
          "logIndex": "0x26",
          "removed": false
        },
        {
          "address": "0x6E7A13CfD3D35319C91EED0F69822B54055f7D3C",
          "topics": [
            "0x8c5be1e5ebec7d5bd14f71427d1e84f3dd0314c0f7b2291e5b200ac8c7c3b925",
            "0x000000000000000000000000a771e1625dd4faa2ff0a41fa119eb9644c9a46c8",
            "0x000000000000000000000000ece2662b7d6726408c7603e7f1f36bdde3e041d2"
          ],
          "data": "0x00000000000000000000000000000000000004ee2d6d01d47d554ba01c800000",
          "blockHash": "0xd504c8f75362830d16d091b9282ab09aab7999ce99e06a605b11c8c0c6ae5d8d",
          "blockNumber": "0x32dee8",
          "transactionHash": "0x91aa1117d455677228b22c8bf0a7e09c56c5576e67b3d440b39bb8e78f5656f2",
          "transactionIndex": "0x16",
          "logIndex": "0x27",
          "removed": false
        },
        {
          "address": "0x6E7A13CfD3D35319C91EED0F69822B54055f7D3C",
          "topics": [
            "0xddf252ad1be2c89b69c2b068fc378daa952ba7f163c4a11628f55a4df523b3ef",
            "0x000000000000000000000000a771e1625dd4faa2ff0a41fa119eb9644c9a46c8",
            "0x000000000000000000000000a6be50f20bd38b71f5a1836756f9a59d6e1bd1ab"
          ],
          "data": "0x000000000000000000000000000000000000000000003f870857a3e0e3800000",
          "blockHash": "0xd504c8f75362830d16d091b9282ab09aab7999ce99e06a605b11c8c0c6ae5d8d",
          "blockNumber": "0x32dee8",
          "transactionHash": "0x91aa1117d455677228b22c8bf0a7e09c56c5576e67b3d440b39bb8e78f5656f2",
          "transactionIndex": "0x16",
          "logIndex": "0x28",
          "removed": false
        },
        {
          "address": "0xECE2662b7D6726408C7603e7F1F36bDDE3e041d2",
          "topics": [
            "0x9f48ed7233c22694a09a88b91d83d18bc425120181b6806b665358b9d9e1bb26"
          ],
          "data": "0x000000000000000000000000a6be50f20bd38b71f5a1836756f9a59d6e1bd1ab0000000000000000000000006e7a13cfd3d35319c91eed0f69822b54055f7d3c0000000000000000000000000000000000000000000000000000000000000078",
          "blockHash": "0xd504c8f75362830d16d091b9282ab09aab7999ce99e06a605b11c8c0c6ae5d8d",
          "blockNumber": "0x32dee8",
          "transactionHash": "0x91aa1117d455677228b22c8bf0a7e09c56c5576e67b3d440b39bb8e78f5656f2",
          "transactionIndex": "0x16",
          "logIndex": "0x29",
          "removed": false
        }
      ],
      "status": "0x1",
      "logsBloom": "0x00000000000100000008000000000004000100000000000000000400000010000000000000000040000000000000000000000000000000000000000200200000000000000010000000000008000000000000000000000000000000000000000000000000000000000000000000200000000000000000000000000010400000000002000000000000000000000000000000000000000000000000000000000000020000000000000000000000001202000000000020000000000002004000000000010002000400000000000000000000000000000000000000800000000000000010000000000000000000000000000000000000000000000000000000000000",
      "type": "0x2",
      "effectiveGasPrice": "0xb2d05e07"
    }
  ],
  "libraries": [],
  "pending": [],
  "path": "/home/idogwu_chinonso/Desktop/SmartContracts/BunzzFinalProject/smartContracts/broadcast/deploys.s.sol/11155111/run-latest.json",
  "returns": {},
  "timestamp": 1682100051,
  "chain": 11155111,
  "multi": false,
  "commit": "cee7d6a"
}