{
  "transactions": [
    {
      "hash": "0xcf6fd06e0dbc696ba7acf96c870aa31a06c569b5be77a304b225612fde5250fe",
      "transactionType": "CALL",
      "contractName": "IgniteLaunchPadFactory",
      "contractAddress": "0xECE2662b7D6726408C7603e7F1F36bDDE3e041d2",
      "function": "registerLaunchPads(address,address,uint256,uint256,uint256)",
      "arguments": [
        "0xA771E1625DD4FAa2Ff0a41FA119Eb9644c9A46C8",
        "0x1F8a1018d1f84749aD4aE3d3711Cc98b79E8f962",
        "104",
        "1682100302",
        "100000000000000000000000"
      ],
      "rpc": "https://eth-sepolia.g.alchemy.com/v2/d-LIwWZ8hzqmjIPKZ-X-jXIoy-rS9gHa",
      "transaction": {
        "type": "0x02",
        "from": "0xa771e1625dd4faa2ff0a41fa119eb9644c9a46c8",
        "to": "0xece2662b7d6726408c7603e7f1f36bdde3e041d2",
        "gas": "0x2af91",
        "value": "0x0",
        "data": "0x2ac54011000000000000000000000000a771e1625dd4faa2ff0a41fa119eb9644c9a46c80000000000000000000000001f8a1018d1f84749ad4ae3d3711cc98b79e8f9620000000000000000000000000000000000000000000000000000000000000068000000000000000000000000000000000000000000000000000000006442d04e00000000000000000000000000000000000000000000152d02c7e14af6800000",
        "nonce": "0x19a",
        "accessList": []
      },
      "additionalContracts": [],
      "isFixedGasLimit": false
    },
    {
      "hash": "0x23d120e416b60a362124b9f915801e43dc6018d884fe2522dffd93fc372271d2",
      "transactionType": "CALL",
      "contractName": "StarDaoToken",
      "contractAddress": "0x1F8a1018d1f84749aD4aE3d3711Cc98b79E8f962",
      "function": "approve(address,uint256):(bool)",
      "arguments": [
        "0xECE2662b7D6726408C7603e7F1F36bDDE3e041d2",
        "100000000000000000000000000000000"
      ],
      "rpc": "https://eth-sepolia.g.alchemy.com/v2/d-LIwWZ8hzqmjIPKZ-X-jXIoy-rS9gHa",
      "transaction": {
        "type": "0x02",
        "from": "0xa771e1625dd4faa2ff0a41fa119eb9644c9a46c8",
        "to": "0x1f8a1018d1f84749ad4ae3d3711cc98b79e8f962",
        "gas": "0x9db6",
        "value": "0x0",
        "data": "0x095ea7b3000000000000000000000000ece2662b7d6726408c7603e7f1f36bdde3e041d200000000000000000000000000000000000004ee2d6d415b85acef8100000000",
        "nonce": "0x19b",
        "accessList": []
      },
      "additionalContracts": [],
      "isFixedGasLimit": false
    },
    {
      "hash": "0x8613d4e7ca03145efb3ed20d8c0cada55d2432ceb5c66f51e82189cd722f3ccc",
      "transactionType": "CALL",
      "contractName": "IgniteLaunchPadFactory",
      "contractAddress": "0xECE2662b7D6726408C7603e7F1F36bDDE3e041d2",
      "function": "createLaunchPad(uint256,address,string,string,uint256,uint256,uint256,uint256)",
      "arguments": [
        "104",
        "0x1F8a1018d1f84749aD4aE3d3711Cc98b79E8f962",
        "STAR LIGHT",
        "SRL",
        "100000000000000000000000",
        "140000000000000000000000",
        "600",
        "8"
      ],
      "rpc": "https://eth-sepolia.g.alchemy.com/v2/d-LIwWZ8hzqmjIPKZ-X-jXIoy-rS9gHa",
      "transaction": {
        "type": "0x02",
        "from": "0xa771e1625dd4faa2ff0a41fa119eb9644c9a46c8",
        "to": "0xece2662b7d6726408c7603e7f1f36bdde3e041d2",
        "gas": "0x2512d0",
        "value": "0x0",
        "data": "0xc71b390e00000000000000000000000000000000000000000000000000000000000000680000000000000000000000001f8a1018d1f84749ad4ae3d3711cc98b79e8f9620000000000000000000000000000000000000000000000000000000000000100000000000000000000000000000000000000000000000000000000000000014000000000000000000000000000000000000000000000152d02c7e14af6800000000000000000000000000000000000000000000000001da56a4b0835bf80000000000000000000000000000000000000000000000000000000000000000002580000000000000000000000000000000000000000000000000000000000000008000000000000000000000000000000000000000000000000000000000000000a53544152204c4947485400000000000000000000000000000000000000000000000000000000000000000000000000000000000000000000000000000000000353524c0000000000000000000000000000000000000000000000000000000000",
        "nonce": "0x19c",
        "accessList": []
      },
      "additionalContracts": [
        {
          "transactionType": "CREATE",
          "address": "0xc7e311AbffdE25C323ceaC12E3E310C5b0a31474",
          "initCode": "60806040523480156200001157600080fd5b506040516200189438038062001894833981016040819052620000349162000291565b600080546001600160a01b038084166001600160a01b031992831617909255600380549286169290911691909117905560088290556200007c8c8c8c8c8c8c8c8c8c6200008e565b5050505050505050505050506200039c565b6001600160a01b038716620000a257600080fd5b60008511620000b057600080fd5b60008311620000be57600080fd5b8315620001635760008111620001105760405162461bcd60e51b815260206004820152601260248201527150455243454e5441474520544f4f204c4f5760701b60448201526064015b60405180910390fd5b6064811115620001635760405162461bcd60e51b815260206004820152601360248201527f50455243454e5441474520544f4f204849474800000000000000000000000000604482015260640162000107565b620001768989888a8987898b8962000181565b505050505050505050565b600280546001600160a01b0319166001600160a01b038b81169190911790915560068990556009805461ff01600160b01b0319166201000092891692909202919091176001179055600d85905542620001dc84603c62000366565b620001e8919062000386565b600c819055600a80546001600160a01b03199081166001600160a01b0388811691821790935560118690556013859055600180549092168b841617909155604080519182529189166020820152908101919091527f9f48ed7233c22694a09a88b91d83d18bc425120181b6806b665358b9d9e1bb269060600160405180910390a1505050505050505050565b80516001600160a01b03811681146200028c57600080fd5b919050565b6000806000806000806000806000806000806101808d8f031215620002b557600080fd5b620002c08d62000274565b9b5060208d01519a50620002d760408e0162000274565b9950620002e760608e0162000274565b985060808d0151975060a08d0151965060c08d015195506200030c60e08e0162000274565b94506101008d01519350620003256101208e0162000274565b92506101408d015191506200033e6101608e0162000274565b90509295989b509295989b509295989b565b634e487b7160e01b600052601160045260246000fd5b808202811582820484141762000380576200038062000350565b92915050565b8082018082111562000380576200038062000350565b6114e880620003ac6000396000f3fe608060405234801561001057600080fd5b50600436106101585760003560e01c80637ac561e4116100c3578063b997cd351161007c578063b997cd3514610296578063c891e8ed146102a9578063d5baf83f146102b1578063de55ab24146102b9578063efdb14fe146102e2578063fffd788d146102ea57600080fd5b80637ac561e41461021657806382e756921461024257806398b7395114610267578063a43be57b1461026f578063a8d5232714610277578063b7ba1dba1461028e57600080fd5b8063522990c511610115578063522990c5146101b657806360d938dc146101be57806362f6e47b146101d557806363acc38f146101dd5780636990256c146101f057806370e5deb91461020357600080fd5b80632432b8ac1461015d5780632488b0b414610174578063278bacd3146101895780633427b870146101915780633ad970c9146101a65780634be2eb0a146101ae575b600080fd5b600d545b6040519081526020015b60405180910390f35b61017c6102f2565b60405161016b919061131e565b600c54610161565b6101a461019f36600461136b565b610354565b005b6101a461052c565b61017c610676565b6101a46106d6565b60105460ff165b604051901515815260200161016b565b600e54610161565b6101c56101eb36600461136b565b6106fe565b6101a46101fe36600461136b565b6107cc565b6101a461021136600461136b565b610922565b6101c5610224366004611384565b6001600160a01b031660009081526017602052604090205460ff1690565b600a546001600160a01b03165b6040516001600160a01b03909116815260200161016b565b601154610161565b6101a46109b4565b6009546201000090046001600160a01b031661024f565b6101a4610a74565b6101a46102a436600461136b565b610b4d565b600554610161565b601354610161565b6101616102c7366004611384565b6001600160a01b031660009081526019602052604090205490565b601254610161565b600b54610161565b6060600b80548060200260200160405190810160405280929190818152602001828054801561034a57602002820191906000526020600020905b81546001600160a01b0316815260019091019060200180831161032c575b5050505050905090565b600954610100900460ff16156103855760405162461bcd60e51b815260040161037c906113ad565b60405180910390fd5b600c544211156103a857604051632fcad0fb60e11b815260040160405180910390fd5b806000036103c957604051631f4ff1cf60e31b815260040160405180910390fd5b6003546103e0906001600160a01b03168233610f34565b600b805460018101825560009182527f0175b7a638427703f0dbe7bb9bbf987a2551717b34e79f33b5b1008d1fa01db90180546001600160a01b03191633179055600e80548392906104339084906113fa565b909155505033600090815260196020526040812080548392906104579084906113fa565b90915550503360009081526015602052604081205460ff16151590036104ef57600154604051631951d2b560e11b81523360048201526001600160a01b03909116906332a3a56a90602401600060405180830381600087803b1580156104bc57600080fd5b505af11580156104d0573d6000803e3d6000fd5b5050336000908152601560205260409020805460ff1916600117905550505b60408051338152602081018390527fff843de903461a83d80c77649ed36998e537f6fd6969a06f0cef493d208fca7a91015b60405180910390a150565b600954610100900460ff16156105545760405162461bcd60e51b815260040161037c906113ad565b3360009081526017602052604090205460ff16151560010361058957604051630968d3f560e21b815260040160405180910390fd5b3360009081526019602052604081205490036105b85760405163eb7d3ba960e01b815260040160405180910390fd5b600c544210156105db57604051635c81c5cd60e01b815260040160405180910390fd5b60006105e5610ff3565b336000908152601760205260408120805460ff19166001179055600f805492935083929091906106169084906113fa565b9091555050600954610638906201000090046001600160a01b0316823361110e565b610640611147565b60408051338152602081018390527f55b23e34fc96dccffe7f8c501b5273c8d3e15e8cb2d58282ff94e192bd1c1a2b9101610521565b6060601480548060200260200160405190810160405280929190818152602001828054801561034a576020028201919060005260206000209081546001600160a01b0316815260019091019060200180831161032c575050505050905090565b6001546001600160a01b031633146106ed57600080fd5b6009805461ff001916610100179055565b600a546000906001600160a01b0316331461072b5760405162461bcd60e51b815260040161037c9061140d565b600954610100900460ff16156107535760405162461bcd60e51b815260040161037c906113ad565b600c5442111561077657604051630fd6d2b760e41b815260040160405180910390fd5b61078d61078483603c611444565b600c549061125d565b600c55506040518181526001907f2c3957d0010f6725c32be5dd614ebf1d0faa8bc5410ec01585a6c1f63b2c65de9060200160405180910390a1919050565b600a546001600160a01b031633146107f65760405162461bcd60e51b815260040161037c9061140d565b600954610100900460ff161561081e5760405162461bcd60e51b815260040161037c906113ad565b8060000361083f57604051631f4ff1cf60e31b815260040160405180910390fd5b600c5442101561086257604051635c81c5cd60e01b815260040160405180910390fd5b61086a611147565b600454601254600e5461087d91906113fa565b610887919061145b565b8111156108a757604051635097f10f60e01b815260040160405180910390fd5b600454156108d5576003546004546001546108cf926001600160a01b0390811692911661110e565b60006004555b6003546108ec906001600160a01b0316823361110e565b60408051338152602081018390527fca46b9b7c324188c4b8a2b29b9399ac5b3ce27e9e21ad4e53733b7c354cb9ea09101610521565b600954610100900460ff166109835760405162461bcd60e51b815260206004820152602160248201527f4f4e4c5920415641494c41424c45204946205041442049532043414e43454c456044820152601160fa1b606482015260840161037c565b6001546001600160a01b0316331461099a57600080fd5b6003546109b1906001600160a01b0316823361110e565b50565b600a546001600160a01b031633146109de5760405162461bcd60e51b815260040161037c9061140d565b60105460ff161515600103610a0657604051630f48b18160e21b815260040160405180910390fd5b6010805460ff191660019081179091555460408051630e580b2b60e41b815290516001600160a01b039092169163e580b2b09160048082019260009290919082900301818387803b158015610a5a57600080fd5b505af1158015610a6e573d6000803e3d6000fd5b50505050565b600a546001600160a01b03163314610a9e5760405162461bcd60e51b815260040161037c9061140d565b600954610100900460ff1615610ac65760405162461bcd60e51b815260040161037c906113ad565b60105460ff161515600003610aee57604051634e3a0cc160e11b815260040160405180910390fd5b600954601154610b0e916201000090046001600160a01b0316903361110e565b6011546040805133815260208101929092527f0b26a7deabcc23ddb1e7ac0e09f2750788424b50871be8225cd275127f8c610e910160405180910390a1565b600954610100900460ff1615610b755760405162461bcd60e51b815260040161037c906113ad565b600c544211610bc65760405162461bcd60e51b815260206004820152601b60248201527f4c41554e4348504144205354494c4c20494e2050524f47524553530000000000604482015260640161037c565b610bce611147565b60095460ff161515600103610bf55760405162eb1cc760e31b815260040160405180910390fd5b601154600003610c1857604051637a8dd83f60e11b815260040160405180910390fd5b60105460ff161515600103610c4057604051630f48b18160e21b815260040160405180910390fd5b6000610c4b82611272565b9050601154811115610c70576040516373c6a6a760e01b815260040160405180910390fd5b6003546040516323b872dd60e01b8152336004820152306024820152604481018490526000916001600160a01b0316906323b872dd906064016020604051808303816000875af1158015610cc8573d6000803e3d6000fd5b505050506040513d601f19601f82011682018060405250810190610cec919061146e565b905080610d365760405162461bcd60e51b81526020600482015260186024820152774552524f52205452414e53464552494e4720544f4b454e5360401b604482015260640161037c565b601154610d4390836112cb565b601155601254610d53908461125d565b6012556014805460018101825560009182527fce6d7b5282bd9a3661ae061feed1dbda4e52ab073b1f9285be6e155d9c38d4ec0180546001600160a01b0319163390811790915560095460405163a9059cbb60e01b81526004810192909252602482018590526201000090046001600160a01b03169063a9059cbb906044016020604051808303816000875af1158015610df1573d6000803e3d6000fd5b505050506040513d601f19601f82011682018060405250810190610e15919061146e565b3360009081526016602052604081205491925060ff90911615159003610ead5760015460405163c3e5e8b360e01b81523360048201526001600160a01b039091169063c3e5e8b390602401600060405180830381600087803b158015610e7a57600080fd5b505af1158015610e8e573d6000803e3d6000fd5b5050336000908152601660205260409020805460ff1916600117905550505b80610ef55760405162461bcd60e51b81526020600482015260186024820152774552524f52205452414e53464552494e4720544f4b454e5360401b604482015260640161037c565b60408051338152602081018590527fee8a2330a1ede71b41e00a75a09bce5a2708f8be50397e9a146191cb2158eb48910160405180910390a150505050565b6040516323b872dd60e01b81526001600160a01b03828116600483015230602483015260448201849052600091908516906323b872dd906064015b6020604051808303816000875af1158015610f8e573d6000803e3d6000fd5b505050506040513d601f19601f82011682018060405250810190610fb2919061146e565b905080610a6e5760405162461bcd60e51b815260206004820152600f60248201526e1514905394d1915488119052531151608a1b604482015260640161037c565b33600090815260196020526040812054600854811080159061102557503360009081526018602052604090205460ff16155b156110d55733600081815260186020526040808220805460ff191660011790559054905163e9c2e14b60e01b815260048101929092526001600160a01b03169063e9c2e14b90602401600060405180830381600087803b15801561108857600080fd5b505af115801561109c573d6000803e3d6000fd5b50506040513381527f3dab64d173b82cdea212bccb7c499f8f5a25d0cc1a55c9b50875f41b9f1408439250602001905060405180910390a15b6110f6600e546110f0600d54846112d790919063ffffffff16565b906112e3565b336000908152601a6020526040902081905592915050565b60405163a9059cbb60e01b81526001600160a01b038281166004830152602482018490526000919085169063a9059cbb90604401610f6f565b60095460ff16151560010361120a576009805460ff191690556001546040805163e4c94fa160e01b815290516001600160a01b039092169163e4c94fa19160048082019260009290919082900301818387803b1580156111a657600080fd5b505af11580156111ba573d6000803e3d6000fd5b505060095460408051620100009092046001600160a01b031682524260208301527f4f347311bfc24c315aeb5e78922d63e941dd3c0f698bd6ffe105f86dfcd8871c935001905060405180910390a15b60075460ff1615156000036112495760006064600e5460065461122d9190611444565b6112379190611490565b600455506007805460ff191660011790555b60055460000361125b5761125b6112ef565b565b600061126982846113fa565b90505b92915050565b6000806064601354670de0b6b3a764000061128d9190611444565b6112979190611490565b6112a990670de0b6b3a76400006113fa565b905080600554846112ba9190611444565b6112c49190611490565b9392505050565b6000611269828461145b565b60006112698284611444565b60006112698284611490565b600e54600d54670de0b6b3a76400009160009161130d908490611444565b6113179190611490565b6005555050565b6020808252825182820181905260009190848201906040850190845b8181101561135f5783516001600160a01b03168352928401929184019160010161133a565b50909695505050505050565b60006020828403121561137d57600080fd5b5035919050565b60006020828403121561139657600080fd5b81356001600160a01b03811681146112c457600080fd5b6020808252601b908201527f4c41554e43485041442043414e43454c45442042592041444d494e0000000000604082015260600190565b634e487b7160e01b600052601160045260246000fd5b8082018082111561126c5761126c6113e4565b60208082526017908201527f4e4f54204c61756e6368506164204d6f64657261746f72000000000000000000604082015260600190565b808202811582820484141761126c5761126c6113e4565b8181038181111561126c5761126c6113e4565b60006020828403121561148057600080fd5b815180151581146112c457600080fd5b6000826114ad57634e487b7160e01b600052601260045260246000fd5b50049056fea264697066735822122093697a96ced56eb8c7badb442e99b828ee12a8bce5334e9bb0bff160c4bc322364736f6c63430008130033000000000000000000000000a771e1625dd4faa2ff0a41fa119eb9644c9a46c8000000000000000000000000000000000000000000000000000000000000000a0000000000000000000000001f8a1018d1f84749ad4ae3d3711cc98b79e8f962000000000000000000000000ece2662b7d6726408c7603e7f1f36bdde3e041d200000000000000000000000000000000000000000000152d02c7e14af6800000000000000000000000000000000000000000000000001da56a4b0835bf8000000000000000000000000000000000000000000000000000000000000000000258000000000000000000000000a771e1625dd4faa2ff0a41fa119eb9644c9a46c80000000000000000000000000000000000000000000000000000000000000008000000000000000000000000f6331218f26643ad596daa065457bfe5ac1d5ba600000000000000000000000000000000000000000000003635c9adc5dea00000000000000000000000000000b07249740915f17bc869fe50625a046aaeed1616"
        }
      ],
      "isFixedGasLimit": false
    }
  ],
  "receipts": [
    {
      "transactionHash": "0xcf6fd06e0dbc696ba7acf96c870aa31a06c569b5be77a304b225612fde5250fe",
      "transactionIndex": "0x8",
      "blockHash": "0x8467b6e1c6e5714fb27c89bfe75bae705c75c16620365ce38025cc1472351e38",
      "blockNumber": "0x32defe",
      "from": "0xA771E1625DD4FAa2Ff0a41FA119Eb9644c9A46C8",
      "to": "0xECE2662b7D6726408C7603e7F1F36bDDE3e041d2",
      "cumulativeGasUsed": "0x4faba",
      "gasUsed": "0x1d622",
      "contractAddress": null,
      "logs": [
        {
          "address": "0xECE2662b7D6726408C7603e7F1F36bDDE3e041d2",
          "topics": [
            "0xd7ade55009cd5a05f2ecf3ec274889a8e3b3a8ffbad4742dd55e0671de2d9b35"
          ],
          "data": "0x0000000000000000000000001f8a1018d1f84749ad4ae3d3711cc98b79e8f9620000000000000000000000000000000000000000000000000000000000000068",
          "blockHash": "0x8467b6e1c6e5714fb27c89bfe75bae705c75c16620365ce38025cc1472351e38",
          "blockNumber": "0x32defe",
          "transactionHash": "0xcf6fd06e0dbc696ba7acf96c870aa31a06c569b5be77a304b225612fde5250fe",
          "transactionIndex": "0x8",
          "logIndex": "0x3",
          "removed": false
        }
      ],
      "status": "0x1",
      "logsBloom": "0x00000000000000000000000000000000000000000000000000000000000000000000000000000000000000000000000000000000000000000000000200000000000000000000000000000000000000000000000000000000010000000000000000000000000000000000000000000000000000000000000000000000400000000000000000000000000010000000000000000000000000000000000000000000000000000000000000000000000000000000000000000000000002000000000000000000000000000000000000000000000000000000000000000000000000000000000000000000000000000000000000000000000200000000000000000000",
      "type": "0x2",
      "effectiveGasPrice": "0xb2d05e07"
    },
    {
      "transactionHash": "0x23d120e416b60a362124b9f915801e43dc6018d884fe2522dffd93fc372271d2",
      "transactionIndex": "0x9",
      "blockHash": "0x8467b6e1c6e5714fb27c89bfe75bae705c75c16620365ce38025cc1472351e38",
      "blockNumber": "0x32defe",
      "from": "0xA771E1625DD4FAa2Ff0a41FA119Eb9644c9A46C8",
      "to": "0x1F8a1018d1f84749aD4aE3d3711Cc98b79E8f962",
      "cumulativeGasUsed": "0x56ce9",
      "gasUsed": "0x722f",
      "contractAddress": null,
      "logs": [
        {
          "address": "0x1F8a1018d1f84749aD4aE3d3711Cc98b79E8f962",
          "topics": [
            "0x8c5be1e5ebec7d5bd14f71427d1e84f3dd0314c0f7b2291e5b200ac8c7c3b925",
            "0x000000000000000000000000a771e1625dd4faa2ff0a41fa119eb9644c9a46c8",
            "0x000000000000000000000000ece2662b7d6726408c7603e7f1f36bdde3e041d2"
          ],
          "data": "0x00000000000000000000000000000000000004ee2d6d415b85acef8100000000",
          "blockHash": "0x8467b6e1c6e5714fb27c89bfe75bae705c75c16620365ce38025cc1472351e38",
          "blockNumber": "0x32defe",
          "transactionHash": "0x23d120e416b60a362124b9f915801e43dc6018d884fe2522dffd93fc372271d2",
          "transactionIndex": "0x9",
          "logIndex": "0x4",
          "removed": false
        }
      ],
      "status": "0x1",
      "logsBloom": "0x00000000000100000000000000000000000100000000000000400000000010000000000000000000000000000000000000000000000000000000000000200000000000000000000000000000000000000000000000000000000000000000000000000000040000000000000000000000000000000000000000000000000000000000000000000000000000000000000000000000000000000000000000000000020000000000000000000000000002000000000000000000000000004000000000000000000000000000000000000000000000000000000000800000000000000010000000000000000000000080000000000000000000000000000000000000",
      "type": "0x2",
      "effectiveGasPrice": "0xb2d05e07"
    },
    {
      "transactionHash": "0x8613d4e7ca03145efb3ed20d8c0cada55d2432ceb5c66f51e82189cd722f3ccc",
      "transactionIndex": "0xa",
      "blockHash": "0x8467b6e1c6e5714fb27c89bfe75bae705c75c16620365ce38025cc1472351e38",
      "blockNumber": "0x32defe",
      "from": "0xA771E1625DD4FAa2Ff0a41FA119Eb9644c9A46C8",
      "to": "0xECE2662b7D6726408C7603e7F1F36bDDE3e041d2",
      "cumulativeGasUsed": "0x1ec7fd",
      "gasUsed": "0x195b14",
      "contractAddress": null,
      "logs": [
        {
          "address": "0xc7e311AbffdE25C323ceaC12E3E310C5b0a31474",
          "topics": [
            "0x9f48ed7233c22694a09a88b91d83d18bc425120181b6806b665358b9d9e1bb26"
          ],
          "data": "0x000000000000000000000000a771e1625dd4faa2ff0a41fa119eb9644c9a46c80000000000000000000000001f8a1018d1f84749ad4ae3d3711cc98b79e8f9620000000000000000000000000000000000000000000000000000000064435d1c",
          "blockHash": "0x8467b6e1c6e5714fb27c89bfe75bae705c75c16620365ce38025cc1472351e38",
          "blockNumber": "0x32defe",
          "transactionHash": "0x8613d4e7ca03145efb3ed20d8c0cada55d2432ceb5c66f51e82189cd722f3ccc",
          "transactionIndex": "0xa",
          "logIndex": "0x5",
          "removed": false
        },
        {
          "address": "0x1F8a1018d1f84749aD4aE3d3711Cc98b79E8f962",
          "topics": [
            "0x8c5be1e5ebec7d5bd14f71427d1e84f3dd0314c0f7b2291e5b200ac8c7c3b925",
            "0x000000000000000000000000a771e1625dd4faa2ff0a41fa119eb9644c9a46c8",
            "0x000000000000000000000000ece2662b7d6726408c7603e7f1f36bdde3e041d2"
          ],
          "data": "0x00000000000000000000000000000000000004ee2d6d0e89189a06004a000000",
          "blockHash": "0x8467b6e1c6e5714fb27c89bfe75bae705c75c16620365ce38025cc1472351e38",
          "blockNumber": "0x32defe",
          "transactionHash": "0x8613d4e7ca03145efb3ed20d8c0cada55d2432ceb5c66f51e82189cd722f3ccc",
          "transactionIndex": "0xa",
          "logIndex": "0x6",
          "removed": false
        },
        {
          "address": "0x1F8a1018d1f84749aD4aE3d3711Cc98b79E8f962",
          "topics": [
            "0xddf252ad1be2c89b69c2b068fc378daa952ba7f163c4a11628f55a4df523b3ef",
            "0x000000000000000000000000a771e1625dd4faa2ff0a41fa119eb9644c9a46c8",
            "0x000000000000000000000000c7e311abffde25c323ceac12e3e310c5b0a31474"
          ],
          "data": "0x0000000000000000000000000000000000000000000032d26d12e980b6000000",
          "blockHash": "0x8467b6e1c6e5714fb27c89bfe75bae705c75c16620365ce38025cc1472351e38",
          "blockNumber": "0x32defe",
          "transactionHash": "0x8613d4e7ca03145efb3ed20d8c0cada55d2432ceb5c66f51e82189cd722f3ccc",
          "transactionIndex": "0xa",
          "logIndex": "0x7",
          "removed": false
        },
        {
          "address": "0xECE2662b7D6726408C7603e7F1F36bDDE3e041d2",
          "topics": [
            "0x9f48ed7233c22694a09a88b91d83d18bc425120181b6806b665358b9d9e1bb26"
          ],
          "data": "0x000000000000000000000000c7e311abffde25c323ceac12e3e310c5b0a314740000000000000000000000001f8a1018d1f84749ad4ae3d3711cc98b79e8f9620000000000000000000000000000000000000000000000000000000000000258",
          "blockHash": "0x8467b6e1c6e5714fb27c89bfe75bae705c75c16620365ce38025cc1472351e38",
          "blockNumber": "0x32defe",
          "transactionHash": "0x8613d4e7ca03145efb3ed20d8c0cada55d2432ceb5c66f51e82189cd722f3ccc",
          "transactionIndex": "0xa",
          "logIndex": "0x8",
          "removed": false
        }
      ],
      "status": "0x1",
      "logsBloom": "0x00000000000100000008000000001000000100000000000000400000000010000000000000000000000000000000000000000000000000000000000200200000000000000010000000000008000000000000040000000000000000000000000000000000040000000000000400000000000000000000000000000010400000000000800000000000000000000000000000000000000000000000000000000000020000000000000000000000000202000000000000000000000002004000000000000002000000000000000000000000000000000000000000800000000000000010000000000000000800000080000000000000000000000000000000000000",
      "type": "0x2",
      "effectiveGasPrice": "0xb2d05e07"
    }
  ],
  "libraries": [],
  "pending": [],
  "path": "/home/idogwu_chinonso/Desktop/SmartContracts/BunzzFinalProject/smartContracts/broadcast/deploys.s.sol/11155111/run-latest.json",
  "returns": {},
  "timestamp": 1682100350,
  "chain": 11155111,
  "multi": false,
  "commit": "cee7d6a"
}